{
  "_format": "hh-sol-artifact-1",
  "contractName": "StakingRewards",
  "sourceName": "contracts/staking/StakingRewards.sol",
  "abi": [
    {
      "anonymous": false,
      "inputs": [
        {
          "indexed": false,
          "internalType": "uint256",
          "name": "reward",
          "type": "uint256"
        }
      ],
      "name": "RewardAdded",
      "type": "event"
    },
    {
      "anonymous": false,
      "inputs": [
        {
          "indexed": true,
          "internalType": "address",
          "name": "user",
          "type": "address"
        },
        {
          "indexed": true,
          "internalType": "address",
          "name": "token",
          "type": "address"
        },
        {
          "indexed": false,
          "internalType": "uint256",
          "name": "rewardAmount",
          "type": "uint256"
        }
      ],
      "name": "RewardClaimed",
      "type": "event"
    },
    {
      "anonymous": false,
      "inputs": [
        {
          "indexed": false,
          "internalType": "uint256",
          "name": "newDuration",
          "type": "uint256"
        }
      ],
      "name": "RewardsDurationUpdated",
      "type": "event"
    },
    {
      "anonymous": false,
      "inputs": [
        {
          "indexed": true,
          "internalType": "address",
          "name": "user",
          "type": "address"
        },
        {
          "indexed": false,
          "internalType": "uint256",
          "name": "amount",
          "type": "uint256"
        }
      ],
      "name": "Staked",
      "type": "event"
    },
    {
      "anonymous": false,
      "inputs": [
        {
          "indexed": true,
          "internalType": "address",
          "name": "user",
          "type": "address"
        },
        {
          "indexed": false,
          "internalType": "uint256",
          "name": "amount",
          "type": "uint256"
        }
      ],
      "name": "Withdrawn",
      "type": "event"
    },
    {
      "inputs": [],
      "name": "claimReward",
      "outputs": [],
      "stateMutability": "nonpayable",
      "type": "function"
    },
    {
      "inputs": [
        {
          "internalType": "address",
          "name": "account",
          "type": "address"
        },
        {
          "internalType": "address",
          "name": "token",
          "type": "address"
        }
      ],
      "name": "earned",
      "outputs": [
        {
          "internalType": "uint256",
          "name": "",
          "type": "uint256"
        }
      ],
      "stateMutability": "view",
      "type": "function"
    },
    {
      "inputs": [
        {
          "internalType": "address",
          "name": "token",
          "type": "address"
        }
      ],
      "name": "getRewardForDuration",
      "outputs": [
        {
          "internalType": "uint256",
          "name": "",
          "type": "uint256"
        }
      ],
      "stateMutability": "view",
      "type": "function"
    },
    {
      "inputs": [],
      "name": "getRewardTokens",
      "outputs": [
        {
          "internalType": "address[]",
          "name": "tokens",
          "type": "address[]"
        }
      ],
      "stateMutability": "view",
      "type": "function"
    },
    {
      "inputs": [],
      "name": "getRewardTokensCount",
      "outputs": [
        {
          "internalType": "uint256",
          "name": "",
          "type": "uint256"
        }
      ],
      "stateMutability": "view",
      "type": "function"
    },
    {
      "inputs": [
        {
          "internalType": "uint256",
          "name": "rewardAmount",
          "type": "uint256"
        },
        {
          "internalType": "address",
          "name": "token",
          "type": "address"
        }
      ],
      "name": "initializeReward",
      "outputs": [],
      "stateMutability": "nonpayable",
      "type": "function"
    },
    {
      "inputs": [],
      "name": "lastTimeRewardApplicable",
      "outputs": [
        {
          "internalType": "uint256",
          "name": "",
          "type": "uint256"
        }
      ],
      "stateMutability": "view",
      "type": "function"
    },
    {
      "inputs": [
        {
          "internalType": "address",
          "name": "",
          "type": "address"
        }
      ],
      "name": "lastUpdateTime",
      "outputs": [
        {
          "internalType": "uint256",
          "name": "",
          "type": "uint256"
        }
      ],
      "stateMutability": "view",
      "type": "function"
    },
    {
      "inputs": [],
      "name": "periodFinish",
      "outputs": [
        {
          "internalType": "uint256",
          "name": "",
          "type": "uint256"
        }
      ],
      "stateMutability": "view",
      "type": "function"
    },
    {
      "inputs": [],
      "name": "rewardEscrow",
      "outputs": [
        {
          "internalType": "contract IRewardEscrow",
          "name": "",
          "type": "address"
        }
      ],
      "stateMutability": "view",
      "type": "function"
    },
    {
      "inputs": [
        {
          "internalType": "address",
          "name": "",
          "type": "address"
        }
      ],
      "name": "rewardInfo",
      "outputs": [
        {
          "internalType": "uint256",
          "name": "rewardRate",
          "type": "uint256"
        },
        {
          "internalType": "uint256",
          "name": "rewardPerTokenStored",
          "type": "uint256"
        },
        {
          "internalType": "uint256",
          "name": "totalRewardAmount",
          "type": "uint256"
        },
        {
          "internalType": "uint256",
          "name": "remainingRewardAmount",
          "type": "uint256"
        }
      ],
      "stateMutability": "view",
      "type": "function"
    },
    {
      "inputs": [
        {
          "internalType": "address",
          "name": "token",
          "type": "address"
        }
      ],
      "name": "rewardPerToken",
      "outputs": [
        {
          "internalType": "uint256",
          "name": "",
          "type": "uint256"
        }
      ],
      "stateMutability": "view",
      "type": "function"
    },
    {
      "inputs": [
        {
          "internalType": "uint256",
          "name": "",
          "type": "uint256"
        }
      ],
      "name": "rewardTokens",
      "outputs": [
        {
          "internalType": "address",
          "name": "",
          "type": "address"
        }
      ],
      "stateMutability": "view",
      "type": "function"
    },
    {
      "inputs": [],
      "name": "rewardsAreEscrowed",
      "outputs": [
        {
          "internalType": "bool",
          "name": "",
          "type": "bool"
        }
      ],
      "stateMutability": "view",
      "type": "function"
    },
    {
      "inputs": [],
      "name": "rewardsDuration",
      "outputs": [
        {
          "internalType": "uint256",
          "name": "",
          "type": "uint256"
        }
      ],
      "stateMutability": "view",
      "type": "function"
    },
    {
      "inputs": [
        {
          "internalType": "uint256",
          "name": "_rewardsDuration",
          "type": "uint256"
        }
      ],
      "name": "setRewardsDuration",
      "outputs": [],
      "stateMutability": "nonpayable",
      "type": "function"
    },
    {
      "inputs": [
        {
          "internalType": "address",
          "name": "account",
          "type": "address"
        }
      ],
      "name": "stakedBalanceOf",
      "outputs": [
        {
          "internalType": "uint256",
          "name": "",
          "type": "uint256"
        }
      ],
      "stateMutability": "view",
      "type": "function"
    },
    {
      "inputs": [],
      "name": "stakedTotalSupply",
      "outputs": [
        {
          "internalType": "uint256",
          "name": "",
          "type": "uint256"
        }
      ],
      "stateMutability": "view",
      "type": "function"
    }
  ],
  "bytecode": "0x60806040526000600255600060035534801561001a57600080fd5b5060016000556110078061002f6000396000f3fe608060405234801561001057600080fd5b50600436106100f65760003560e01c806380faa57d1161009257806380faa57d14610222578063a430be6c1461022a578063b88a802f14610232578063bcd110141461023a578063c4f59f9b14610260578063cbecf6b5146102b8578063cc1a378f14610304578063ebe2b12b14610321578063f122977714610329576100f6565b806316765391146100fb578063211dc32d1461013357806326867ae4146101615780632826b81f1461017d5780632ce9aead146101855780632d9e88e1146101ab578063386a9525146101b357806378b67e94146101bb5780637bb7bed1146101e9575b600080fd5b6101216004803603602081101561011157600080fd5b50356001600160a01b031661034f565b60408051918252519081900360200190f35b6101216004803603604081101561014957600080fd5b506001600160a01b038135811691602001351661036e565b610169610401565b604080519115158252519081900360200190f35b61012161040a565b6101216004803603602081101561019b57600080fd5b50356001600160a01b0316610410565b610121610422565b610121610428565b6101e7600480360360408110156101d157600080fd5b50803590602001356001600160a01b031661042e565b005b610206600480360360208110156101ff57600080fd5b5035610542565b604080516001600160a01b039092168252519081900360200190f35b61012161056c565b61020661057f565b6101e7610593565b6101216004803603602081101561025057600080fd5b50356001600160a01b03166105de565b610268610606565b60408051602080825283518183015283519192839290830191858101910280838360005b838110156102a457818101518382015260200161028c565b505050509050019250505060405180910390f35b6102de600480360360208110156102ce57600080fd5b50356001600160a01b0316610668565b604080519485526020850193909352838301919091526060830152519081900360800190f35b6101e76004803603602081101561031a57600080fd5b503561068f565b610121610709565b6101216004803603602081101561033f57600080fd5b50356001600160a01b031661070f565b6001600160a01b0381166000908152600860205260409020545b919050565b6001600160a01b03818116600090815260056020818152604080842094871684529184018152818320546004909401905281205490916103f8916103f290670de0b6b3a7640000906103ec906103cd906103c78961070f565b906107b5565b6001600160a01b03891660009081526008602052604090205490610812565b9061086b565b906108d2565b90505b92915050565b60065460ff1681565b60075490565b60046020526000908152604090205481565b60015490565b60035481565b610438600061092c565b6001600160a01b0381166000908152600560205260409020600254421061046e5760035461046790849061086b565b81556104bf565b60025460009061047e90426107b5565b6001600160a01b038416600090815260056020526040812054919250906104a6908390610812565b6003549091506104ba906103ec87846108d2565b835550505b6002810183905560038101546104d590846108d2565b6003808301919091556001600160a01b03831660009081526004602052604090204290819055905461050791906108d2565b6002556040805184815290517fde88a922e0d3b88b24e9623efeb464919c6bf9f66857a65e2bfcf2ce87a9433d9181900360200190a1505050565b6001818154811061055257600080fd5b6000918252602090912001546001600160a01b0316905081565b600061057a42600254610970565b905090565b60065461010090046001600160a01b031681565b61059c3361092c565b60005b6001548110156105db576105d3600182815481106105b957fe5b6000918252602090912001546001600160a01b0316610986565b60010161059f565b50565b6003546001600160a01b03821660009081526005602052604081205490916103fb9190610812565b6060600180548060200260200160405190810160405280929190818152602001828054801561065e57602002820191906000526020600020905b81546001600160a01b03168152600190910190602001808311610640575b5050505050905090565b60056020526000908152604090208054600182015460028301546003909301549192909184565b600081116106ce5760405162461bcd60e51b8152600401808060200182810382526028815260200180610f396028913960400191505060405180910390fd5b60038190556040805182815290517ffb46ca5a5e06d4540d6387b930a7c978bce0db5f449ec6b3f5d07c6e1d44f2d39181900360200190a150565b60025481565b60006007546000141561073e57506001600160a01b038116600090815260056020526040902060010154610369565b6007546001600160a01b0383166000908152600560209081526040808320546004909252909120546103fb926107939290916103ec91670de0b6b3a76400009161078d919082906103c761056c565b90610812565b6001600160a01b038416600090815260056020526040902060010154906108d2565b60008282111561080c576040805162461bcd60e51b815260206004820152601e60248201527f536166654d6174683a207375627472616374696f6e206f766572666c6f770000604482015290519081900360640190fd5b50900390565b600082610821575060006103fb565b8282028284828161082e57fe5b04146103f85760405162461bcd60e51b8152600401808060200182810382526021815260200180610f876021913960400191505060405180910390fd5b60008082116108c1576040805162461bcd60e51b815260206004820152601a60248201527f536166654d6174683a206469766973696f6e206279207a65726f000000000000604482015290519081900360640190fd5b8183816108ca57fe5b049392505050565b6000828201838110156103f8576040805162461bcd60e51b815260206004820152601b60248201527f536166654d6174683a206164646974696f6e206f766572666c6f770000000000604482015290519081900360640190fd5b60005b60015481101561096c57610964826001838154811061094a57fe5b6000918252602090912001546001600160a01b0316610b89565b60010161092f565b5050565b600081831061097f57816103f8565b5090919050565b6000610992338361036e565b9050801561096c576001600160a01b038216600090815260056020526040902060030154811115610a1f576001600160a01b0382166000908152600560205260409020600301546109e49082906107b5565b6001600160a01b0383166000818152600560208181526040808420338552808401835290842095909555929091529052600301549050610a46565b6001600160a01b038216600090815260056020818152604080842033855290920190528120555b60065460ff1615610af357600654610a70906001600160a01b038481169161010090041683610c1c565b60065460408051626fcbd160e91b81526001600160a01b0385811660048301523360248301523060448301526064820185905291516101009093049091169163df97a2009160848082019260009290919082900301818387803b158015610ad657600080fd5b505af1158015610aea573d6000803e3d6000fd5b50505050610b07565b610b076001600160a01b0383163383610c1c565b6001600160a01b038216600090815260056020526040902060030154610b2d90826107b5565b6001600160a01b0383166000818152600560209081526040918290206003019390935580518481529051919233927f0aa4d283470c904c551d18bb894d37e17674920f3261a7f854be501e25f421b79281900390910190a35050565b6001600160a01b0381166000908152600560205260409020610baa8261070f565b6001820155610bb761056c565b6001600160a01b03808416600090815260046020526040902091909155831615610c1757610be5838361036e565b6001600160a01b0384166000908152600583016020908152604080832093909355600184015460048501909152919020555b505050565b604080516001600160a01b038416602482015260448082018490528251808303909101815260649091019091526020810180516001600160e01b031663a9059cbb60e01b179052610c179084906000610cbe826040518060400160405280602081526020017f5361666545524332303a206c6f772d6c6576656c2063616c6c206661696c6564815250856001600160a01b0316610d1a9092919063ffffffff16565b805190915015610c1757808060200190516020811015610cdd57600080fd5b5051610c175760405162461bcd60e51b815260040180806020018281038252602a815260200180610fa8602a913960400191505060405180910390fd5b6060610d298484600085610d33565b90505b9392505050565b606082471015610d745760405162461bcd60e51b8152600401808060200182810382526026815260200180610f616026913960400191505060405180910390fd5b610d7d85610e8e565b610dce576040805162461bcd60e51b815260206004820152601d60248201527f416464726573733a2063616c6c20746f206e6f6e2d636f6e7472616374000000604482015290519081900360640190fd5b600080866001600160a01b031685876040518082805190602001908083835b60208310610e0c5780518252601f199092019160209182019101610ded565b6001836020036101000a03801982511681845116808217855250505050505090500191505060006040518083038185875af1925050503d8060008114610e6e576040519150601f19603f3d011682016040523d82523d6000602084013e610e73565b606091505b5091509150610e83828286610e94565b979650505050505050565b3b151590565b60608315610ea3575081610d2c565b825115610eb35782518084602001fd5b8160405162461bcd60e51b81526004018080602001828103825283818151815260200191508051906020019080838360005b83811015610efd578181015183820152602001610ee5565b50505050905090810190601f168015610f2a5780820380516001836020036101000a031916815260200191505b509250505060405180910390fdfe52657761726473206475726174696f6e2073686f756c64206265206c6f6e676572207468616e2030416464726573733a20696e73756666696369656e742062616c616e636520666f722063616c6c536166654d6174683a206d756c7469706c69636174696f6e206f766572666c6f775361666545524332303a204552433230206f7065726174696f6e20646964206e6f742073756363656564a26469706673582212200fc974b19549d4ef9995ff4fb8bfe20543e5c99a477f479b025207e383828a7464736f6c63430007060033",
  "linkReferences": {},
  "deployedLinkReferences": {}
}