{
  "_format": "hh-sol-artifact-1",
  "contractName": "TimeLock",
  "sourceName": "contracts/TimeLock.sol",
  "abi": [
    {
      "inputs": [
        {
          "internalType": "address",
          "name": "",
          "type": "address"
        }
      ],
      "name": "lastLockedTimestamp",
      "outputs": [
        {
          "internalType": "uint256",
          "name": "",
          "type": "uint256"
        }
      ],
      "stateMutability": "view",
      "type": "function"
    }
  ],
  "bytecode": "0x6080604052348015600f57600080fd5b5060aa8061001e6000396000f3fe6080604052348015600f57600080fd5b506004361060285760003560e01c80630300531514602d575b600080fd5b605060048036036020811015604157600080fd5b50356001600160a01b03166062565b60408051918252519081900360200190f35b6000602081905290815260409020548156fea26469706673582212203a9a7ebfc58f9f8bbbc2b3c33aafccbf34bdb0391d27e1d0b002574042c4d1eb64736f6c63430007060033",
  "linkReferences": {},
  "deployedLinkReferences": {}
}