{
  "_format": "hh-sol-artifact-1",
  "contractName": "MockStrategy",
  "sourceName": "contracts/test/MockStrategy.sol",
  "abi": [
    {
      "inputs": [
        {
          "internalType": "address",
          "name": "_nonRewardPool",
          "type": "address"
        }
      ],
      "stateMutability": "nonpayable",
      "type": "constructor"
    },
    {
      "inputs": [],
      "name": "collect",
      "outputs": [
        {
          "internalType": "uint256",
          "name": "collected0",
          "type": "uint256"
        },
        {
          "internalType": "uint256",
          "name": "collected1",
          "type": "uint256"
        }
      ],
      "stateMutability": "nonpayable",
      "type": "function"
    },
    {
      "inputs": [
        {
          "internalType": "uint256",
          "name": "amount0",
          "type": "uint256"
        },
        {
          "internalType": "uint256",
          "name": "amount1",
          "type": "uint256"
        }
      ],
      "name": "deposit",
      "outputs": [
        {
          "internalType": "uint256",
          "name": "mintedAmount",
          "type": "uint256"
        }
      ],
      "stateMutability": "nonpayable",
      "type": "function"
    },
    {
      "inputs": [
        {
          "internalType": "address",
          "name": "user",
          "type": "address"
        }
      ],
      "name": "getBal",
      "outputs": [
        {
          "internalType": "uint256",
          "name": "",
          "type": "uint256"
        }
      ],
      "stateMutability": "view",
      "type": "function"
    },
    {
      "inputs": [
        {
          "internalType": "uint256",
          "name": "amount",
          "type": "uint256"
        },
        {
          "internalType": "uint256",
          "name": "minReceivedAmount0",
          "type": "uint256"
        },
        {
          "internalType": "uint256",
          "name": "minReceivedAmount1",
          "type": "uint256"
        }
      ],
      "name": "withdraw",
      "outputs": [
        {
          "internalType": "uint256",
          "name": "unstakedAmount0",
          "type": "uint256"
        },
        {
          "internalType": "uint256",
          "name": "unstakedAmount1",
          "type": "uint256"
        }
      ],
      "stateMutability": "nonpayable",
      "type": "function"
    }
  ],
  "bytecode": "0x608060405234801561001057600080fd5b506040516108793803806108798339818101604052602081101561003357600080fd5b5051600080546001600160a01b0319166001600160a01b03808416919091179182905560408051630dfe168160e01b815290519290911691630dfe168191600480820192602092909190829003018186803b15801561009157600080fd5b505afa1580156100a5573d6000803e3d6000fd5b505050506040513d60208110156100bb57600080fd5b5051600180546001600160a01b0319166001600160a01b0392831617908190556040805163095ea7b360e01b8152848416600482015260001960248201529051919092169163095ea7b39160448083019260209291908290030181600087803b15801561012757600080fd5b505af115801561013b573d6000803e3d6000fd5b505050506040513d602081101561015157600080fd5b50506000546040805163d21220a760e01b815290516001600160a01b039092169163d21220a791600480820192602092909190829003018186803b15801561019857600080fd5b505afa1580156101ac573d6000803e3d6000fd5b505050506040513d60208110156101c257600080fd5b5051600280546001600160a01b0319166001600160a01b0392831617908190556040805163095ea7b360e01b8152848416600482015260001960248201529051919092169163095ea7b39160448083019260209291908290030181600087803b15801561022e57600080fd5b505af1158015610242573d6000803e3d6000fd5b505050506040513d602081101561025857600080fd5b50505061060f8061026a6000396000f3fe608060405234801561001057600080fd5b506004361061004c5760003560e01c80632fa7808514610051578063a41fe49f14610089578063e2bbb158146100cb578063e5225381146100ee575b600080fd5b6100776004803603602081101561006757600080fd5b50356001600160a01b03166100f6565b60408051918252519081900360200190f35b6100b26004803603606081101561009f57600080fd5b5080359060208101359060400135610111565b6040805192835260208301919091528051918290030190f35b610077600480360360408110156100e157600080fd5b50803590602001356102c0565b6100b261055b565b6001600160a01b031660009081526003602052604090205490565b600080546040805163c473541d60e01b8152600481018790526024810186905260448101859052815184936001600160a01b03169263c473541d926064808201939182900301818787803b15801561016857600080fd5b505af115801561017c573d6000803e3d6000fd5b505050506040513d604081101561019257600080fd5b50805160209182015133600081815260038552604080822080548c90039055600154815163a9059cbb60e01b815260048101949094526024840186905290519497509295506001600160a01b039092169363a9059cbb9360448084019492939192918390030190829087803b15801561020a57600080fd5b505af115801561021e573d6000803e3d6000fd5b505050506040513d602081101561023457600080fd5b50506002546040805163a9059cbb60e01b81523360048201526024810184905290516001600160a01b039092169163a9059cbb916044808201926020929091908290030181600087803b15801561028a57600080fd5b505af115801561029e573d6000803e3d6000fd5b505050506040513d60208110156102b457600080fd5b50919590945092505050565b60008054604080516301dc49c160e51b815260048101869052602481018590528151849384936001600160a01b0390911692633b8938209260448083019392829003018186803b15801561031357600080fd5b505afa158015610327573d6000803e3d6000fd5b505050506040513d604081101561033d57600080fd5b50805160209091015190925090506064606386020482101580156103675750606460638502048110155b6103af576040805162461bcd60e51b8152602060048201526014602482015273507269636520736c69707061676520636865636b60601b604482015290519081900360640190fd5b600154604080516323b872dd60e01b81523360048201523060248201526044810185905290516001600160a01b03909216916323b872dd916064808201926020929091908290030181600087803b15801561040957600080fd5b505af115801561041d573d6000803e3d6000fd5b505050506040513d602081101561043357600080fd5b5050600254604080516323b872dd60e01b81523360048201523060248201526044810184905290516001600160a01b03909216916323b872dd916064808201926020929091908290030181600087803b15801561048f57600080fd5b505af11580156104a3573d6000803e3d6000fd5b505050506040513d60208110156104b957600080fd5b5050600080546040805163c98b198160e01b8152600481018690526024810185905290516001600160a01b039092169263c98b1981926044808401936020939083900390910190829087803b15801561051157600080fd5b505af1158015610525573d6000803e3d6000fd5b505050506040513d602081101561053b57600080fd5b505133600090815260036020526040902080548201905595945050505050565b6000805460408051631a8b2a7360e11b8152815184936001600160a01b03169263351654e6926004808201939182900301818787803b15801561059d57600080fd5b505af11580156105b1573d6000803e3d6000fd5b505050506040513d60408110156105c757600080fd5b5080516020909101519093909250905056fea2646970667358221220859a5c09309aaf703a5e3ce7c82409c9c3537465d05f613ba979aa19302a5cb664736f6c63430007060033",
  "linkReferences": {},
  "deployedLinkReferences": {}
}