{
  "_format": "hh-sol-artifact-1",
  "contractName": "MockRevenueController",
  "sourceName": "contracts/test/MockRevenueController.sol",
  "abi": [
    {
      "stateMutability": "payable",
      "type": "fallback"
    },
    {
      "inputs": [
        {
          "internalType": "address",
          "name": "terminal",
          "type": "address"
        },
        {
          "internalType": "address",
          "name": "token",
          "type": "address"
        }
      ],
      "name": "withdrawFees",
      "outputs": [],
      "stateMutability": "nonpayable",
      "type": "function"
    },
    {
      "stateMutability": "payable",
      "type": "receive"
    }
  ],
  "bytecode": "0x608060405234801561001057600080fd5b50610101806100206000396000f3fe608060405260043610601f5760003560e01c8063f255527814602f57602a565b36602a57600080fd5b005b600080fd5b348015603a57600080fd5b50602860048036036040811015604f57600080fd5b506001600160a01b0381358116916020013516816001600160a01b031663164e68de826040518263ffffffff1660e01b815260040180826001600160a01b03168152602001915050600060405180830381600087803b15801560b057600080fd5b505af115801560c3573d6000803e3d6000fd5b50505050505056fea2646970667358221220b2d8070d13ddd222c819f7abf85179a1fc1a759952a482826e107710b8383da864736f6c63430007060033",
  "linkReferences": {},
  "deployedLinkReferences": {}
}