{
  "_format": "hh-sol-artifact-1",
  "contractName": "UniswapLibrary",
  "sourceName": "contracts/libraries/UniswapLibrary.sol",
  "abi": [
    {
      "inputs": [
        {
          "internalType": "uint256",
          "name": "amount0",
          "type": "uint256"
        },
        {
          "internalType": "uint256",
          "name": "amount1",
          "type": "uint256"
        },
        {
          "internalType": "uint160",
          "name": "priceLower",
          "type": "uint160"
        },
        {
          "internalType": "uint160",
          "name": "priceUpper",
          "type": "uint160"
        },
        {
          "internalType": "address",
          "name": "pool",
          "type": "address"
        }
      ],
      "name": "calculatePoolMintedAmounts",
      "outputs": [
        {
          "internalType": "uint256",
          "name": "amount0Minted",
          "type": "uint256"
        },
        {
          "internalType": "uint256",
          "name": "amount1Minted",
          "type": "uint256"
        }
      ],
      "stateMutability": "view",
      "type": "function"
    },
    {
      "inputs": [
        {
          "internalType": "uint128",
          "name": "liquidity",
          "type": "uint128"
        },
        {
          "internalType": "uint160",
          "name": "priceLower",
          "type": "uint160"
        },
        {
          "internalType": "uint160",
          "name": "priceUpper",
          "type": "uint160"
        },
        {
          "internalType": "address",
          "name": "pool",
          "type": "address"
        }
      ],
      "name": "getAmountsForLiquidity",
      "outputs": [
        {
          "internalType": "uint256",
          "name": "amount0",
          "type": "uint256"
        },
        {
          "internalType": "uint256",
          "name": "amount1",
          "type": "uint256"
        }
      ],
      "stateMutability": "view",
      "type": "function"
    },
    {
      "inputs": [
        {
          "internalType": "contract IERC20",
          "name": "token0",
          "type": "IERC20"
        },
        {
          "internalType": "uint8",
          "name": "token0Decimals",
          "type": "uint8"
        },
        {
          "internalType": "uint256",
          "name": "token0DecimalMultiplier",
          "type": "uint256"
        },
        {
          "internalType": "uint256",
          "name": "rewardAmountRemaining",
          "type": "uint256"
        }
      ],
      "name": "getBufferToken0Balance",
      "outputs": [
        {
          "internalType": "uint256",
          "name": "amount0",
          "type": "uint256"
        }
      ],
      "stateMutability": "view",
      "type": "function"
    },
    {
      "inputs": [
        {
          "internalType": "contract IERC20",
          "name": "token1",
          "type": "IERC20"
        },
        {
          "internalType": "uint8",
          "name": "token1Decimals",
          "type": "uint8"
        },
        {
          "internalType": "uint256",
          "name": "token1DecimalMultiplier",
          "type": "uint256"
        },
        {
          "internalType": "uint256",
          "name": "rewardAmountRemaining",
          "type": "uint256"
        }
      ],
      "name": "getBufferToken1Balance",
      "outputs": [
        {
          "internalType": "uint256",
          "name": "amount1",
          "type": "uint256"
        }
      ],
      "stateMutability": "view",
      "type": "function"
    },
    {
      "inputs": [
        {
          "components": [
            {
              "internalType": "address",
              "name": "token0",
              "type": "address"
            },
            {
              "internalType": "address",
              "name": "token1",
              "type": "address"
            },
            {
              "internalType": "uint256",
              "name": "token0DecimalMultiplier",
              "type": "uint256"
            },
            {
              "internalType": "uint256",
              "name": "token1DecimalMultiplier",
              "type": "uint256"
            },
            {
              "internalType": "uint8",
              "name": "token0Decimals",
              "type": "uint8"
            },
            {
              "internalType": "uint8",
              "name": "token1Decimals",
              "type": "uint8"
            },
            {
              "internalType": "uint256",
              "name": "rewardAmountRemainingToken0",
              "type": "uint256"
            },
            {
              "internalType": "uint256",
              "name": "rewardAmountRemainingToken1",
              "type": "uint256"
            }
          ],
          "internalType": "struct UniswapLibrary.TokenDetails",
          "name": "tokenDetails",
          "type": "tuple"
        }
      ],
      "name": "getBufferTokenBalance",
      "outputs": [
        {
          "internalType": "uint256",
          "name": "amount0",
          "type": "uint256"
        },
        {
          "internalType": "uint256",
          "name": "amount1",
          "type": "uint256"
        }
      ],
      "stateMutability": "view",
      "type": "function"
    },
    {
      "inputs": [
        {
          "internalType": "uint160",
          "name": "priceLower",
          "type": "uint160"
        },
        {
          "internalType": "uint160",
          "name": "priceUpper",
          "type": "uint160"
        },
        {
          "internalType": "uint256",
          "name": "amount0",
          "type": "uint256"
        }
      ],
      "name": "getLiquidityForAmount0",
      "outputs": [
        {
          "internalType": "uint128",
          "name": "liquidity",
          "type": "uint128"
        }
      ],
      "stateMutability": "pure",
      "type": "function"
    },
    {
      "inputs": [
        {
          "internalType": "uint160",
          "name": "priceLower",
          "type": "uint160"
        },
        {
          "internalType": "uint160",
          "name": "priceUpper",
          "type": "uint160"
        },
        {
          "internalType": "uint256",
          "name": "amount1",
          "type": "uint256"
        }
      ],
      "name": "getLiquidityForAmount1",
      "outputs": [
        {
          "internalType": "uint128",
          "name": "liquidity",
          "type": "uint128"
        }
      ],
      "stateMutability": "pure",
      "type": "function"
    },
    {
      "inputs": [
        {
          "internalType": "uint256",
          "name": "amount0",
          "type": "uint256"
        },
        {
          "internalType": "uint256",
          "name": "amount1",
          "type": "uint256"
        },
        {
          "internalType": "uint160",
          "name": "priceLower",
          "type": "uint160"
        },
        {
          "internalType": "uint160",
          "name": "priceUpper",
          "type": "uint160"
        },
        {
          "internalType": "address",
          "name": "pool",
          "type": "address"
        }
      ],
      "name": "getLiquidityForAmounts",
      "outputs": [
        {
          "internalType": "uint128",
          "name": "liquidity",
          "type": "uint128"
        }
      ],
      "stateMutability": "view",
      "type": "function"
    },
    {
      "inputs": [
        {
          "internalType": "address",
          "name": "_pool",
          "type": "address"
        }
      ],
      "name": "getPoolLiquidity",
      "outputs": [
        {
          "internalType": "uint128",
          "name": "",
          "type": "uint128"
        }
      ],
      "stateMutability": "view",
      "type": "function"
    },
    {
      "inputs": [
        {
          "internalType": "address",
          "name": "_pool",
          "type": "address"
        }
      ],
      "name": "getPoolPrice",
      "outputs": [
        {
          "internalType": "uint160",
          "name": "",
          "type": "uint160"
        }
      ],
      "stateMutability": "view",
      "type": "function"
    },
    {
      "inputs": [
        {
          "internalType": "address",
          "name": "_pool",
          "type": "address"
        },
        {
          "internalType": "uint8",
          "name": "token0Decimals",
          "type": "uint8"
        },
        {
          "internalType": "uint8",
          "name": "token1Decimals",
          "type": "uint8"
        }
      ],
      "name": "getPoolPriceWithDecimals",
      "outputs": [
        {
          "internalType": "uint256",
          "name": "price",
          "type": "uint256"
        }
      ],
      "stateMutability": "view",
      "type": "function"
    },
    {
      "inputs": [
        {
          "internalType": "address",
          "name": "positionManager",
          "type": "address"
        },
        {
          "internalType": "uint256",
          "name": "tokenId",
          "type": "uint256"
        }
      ],
      "name": "getPositionLiquidity",
      "outputs": [
        {
          "internalType": "uint128",
          "name": "liquidity",
          "type": "uint128"
        }
      ],
      "stateMutability": "view",
      "type": "function"
    },
    {
      "inputs": [
        {
          "internalType": "int24",
          "name": "tick",
          "type": "int24"
        }
      ],
      "name": "getSqrtRatio",
      "outputs": [
        {
          "internalType": "uint160",
          "name": "",
          "type": "uint160"
        }
      ],
      "stateMutability": "pure",
      "type": "function"
    },
    {
      "inputs": [
        {
          "internalType": "uint160",
          "name": "price",
          "type": "uint160"
        }
      ],
      "name": "getTickFromPrice",
      "outputs": [
        {
          "internalType": "int24",
          "name": "",
          "type": "int24"
        }
      ],
      "stateMutability": "pure",
      "type": "function"
    },
    {
      "inputs": [
        {
          "internalType": "uint256",
          "name": "amount",
          "type": "uint256"
        },
        {
          "internalType": "uint8",
          "name": "token0Decimals",
          "type": "uint8"
        },
        {
          "internalType": "uint256",
          "name": "token0DecimalMultiplier",
          "type": "uint256"
        }
      ],
      "name": "getToken0AmountInNativeDecimals",
      "outputs": [
        {
          "internalType": "uint256",
          "name": "",
          "type": "uint256"
        }
      ],
      "stateMutability": "pure",
      "type": "function"
    },
    {
      "inputs": [
        {
          "internalType": "uint256",
          "name": "amount",
          "type": "uint256"
        },
        {
          "internalType": "uint8",
          "name": "token0Decimals",
          "type": "uint8"
        },
        {
          "internalType": "uint256",
          "name": "token0DecimalMultiplier",
          "type": "uint256"
        }
      ],
      "name": "getToken0AmountInWei",
      "outputs": [
        {
          "internalType": "uint256",
          "name": "",
          "type": "uint256"
        }
      ],
      "stateMutability": "pure",
      "type": "function"
    },
    {
      "inputs": [
        {
          "internalType": "uint256",
          "name": "amount",
          "type": "uint256"
        },
        {
          "internalType": "uint8",
          "name": "token1Decimals",
          "type": "uint8"
        },
        {
          "internalType": "uint256",
          "name": "token1DecimalMultiplier",
          "type": "uint256"
        }
      ],
      "name": "getToken1AmountInNativeDecimals",
      "outputs": [
        {
          "internalType": "uint256",
          "name": "",
          "type": "uint256"
        }
      ],
      "stateMutability": "pure",
      "type": "function"
    },
    {
      "inputs": [
        {
          "internalType": "uint256",
          "name": "amount",
          "type": "uint256"
        },
        {
          "internalType": "uint8",
          "name": "token1Decimals",
          "type": "uint8"
        },
        {
          "internalType": "uint256",
          "name": "token1DecimalMultiplier",
          "type": "uint256"
        }
      ],
      "name": "getToken1AmountInWei",
      "outputs": [
        {
          "internalType": "uint256",
          "name": "",
          "type": "uint256"
        }
      ],
      "stateMutability": "pure",
      "type": "function"
    },
    {
      "inputs": [
        {
          "internalType": "uint256",
          "name": "amount0",
          "type": "uint256"
        },
        {
          "internalType": "uint256",
          "name": "amount1",
          "type": "uint256"
        }
      ],
      "name": "subAbs",
      "outputs": [
        {
          "internalType": "uint256",
          "name": "",
          "type": "uint256"
        }
      ],
      "stateMutability": "pure",
      "type": "function"
    },
    {
      "inputs": [
        {
          "internalType": "uint256",
          "name": "amount0",
          "type": "uint256"
        },
        {
          "internalType": "uint256",
          "name": "amount1",
          "type": "uint256"
        }
      ],
      "name": "subZero",
      "outputs": [
        {
          "internalType": "uint256",
          "name": "",
          "type": "uint256"
        }
      ],
      "stateMutability": "pure",
      "type": "function"
    }
  ],
  "bytecode": "0x612eb8610026600b82828239805160001a60731461001957fe5b30600052607381538281f3fe730000000000000000000000000000000000000000301460806040526004361061018e5760003560e01c806351f063a9116100e357806393e84a2d1161009157806393e84a2d146103aa578063986c958d146102635780639c29ea58146103ca578063bdb5d331146103dd578063d47f6bf3146103f0578063ddc34f5214610410578063f021bad5146103ca5761018e565b806351f063a9146102f55780635be89546146101935780635c07c7881461031557806367df6e8914610335578063711563d41461034857806373dc62a81461036857806387aa64f71461038a5761018e565b80631c1e6646116101405780631c1e6646146102635780631cb314fa146102765780631f2be02e1461028957806321ebbe681461029c57806326532df8146102af578063349839ec146102c25780634d5692d7146102e25761018e565b806303b4aeeb14610193578063058421ca146101bc5780630794cc64146101dc57806308c0f795146101fc5780630a6de2c91461020f5780630bf018ae146102225780630fa43e0a14610242575b600080fd5b6101a66101a1366004612988565b610423565b6040516101b39190612dca565b60405180910390f35b6101cf6101ca36600461254a565b610448565b6040516101b39190612aaa565b6101ef6101ea366004612490565b61045b565b6040516101b39190612db6565b6101ef61020a36600461276e565b6104ee565b6101cf61021d366004612474565b610503565b81801561022e57600080fd5b506101a661023d366004612847565b61058b565b61025561025036600461292a565b6106d2565b6040516101b3929190612dd3565b6101a6610271366004612988565b610701565b610255610284366004612566565b610719565b6101ef61029736600461292a565b610769565b6102556102aa366004612653565b61078a565b6101a66102bd366004612803565b6107ae565b8180156102ce57600080fd5b506102556102dd3660046128e1565b6107d2565b6101ef6102f0366004612474565b6108db565b81801561030157600080fd5b50610255610310366004612601565b610952565b81801561032157600080fd5b506102556103303660046125d4565b6109fb565b6101ef61034336600461276e565b610ae5565b81801561035457600080fd5b506102556103633660046128a3565b610af2565b81801561037457600080fd5b50610388610383366004612582565b610bc2565b005b61039d610398366004612474565b610cd6565b6040516101b39190612af3565b8180156103b657600080fd5b506101a66103c53660046128e1565b610ce1565b6101a66103d8366004612505565b610f2b565b6101a66103eb366004612803565b610fc5565b8180156103fc57600080fd5b506101a661040b3660046128e1565b610fde565b6101a661041e3660046124bb565b611201565b6000601260ff8416101561043e5761043b8483611299565b93505b50825b9392505050565b600061045382611300565b90505b919050565b60405163133f757160e31b81526000906001600160a01b038416906399fbab889061048a908590600401612dca565b6101806040518083038186803b1580156104a357600080fd5b505afa1580156104b7573d6000803e3d6000fd5b505050506040513d601f19601f820116820180604052508101906104db91906129ae565b50929d9c50505050505050505050505050565b60006104fb848484611628565b949350505050565b6000808290506000816001600160a01b0316633850c7bd6040518163ffffffff1660e01b815260040160e06040518083038186803b15801561054457600080fd5b505afa158015610558573d6000803e3d6000fd5b505050506040513d601f19601f8201168201806040525081019061057c91906126d9565b50949998505050505050505050565b6000836001600160a01b0316638831645660405180610160016040528086600001516001600160a01b0316815260200186602001516001600160a01b03168152602001856000015162ffffff1681526020016105ea8660400151610cd6565b60020b81526020016105ff8660600151610cd6565b60020b8152602081018a90526040810189905260600161062a6106238b6064611299565b8b9061166a565b815260200161064461063d8a6064611299565b8a9061166a565b815230602082015242604091820152516001600160e01b031960e084901b1681526106729190600401612d08565b608060405180830381600087803b15801561068c57600080fd5b505af11580156106a0573d6000803e3d6000fd5b505050506040513d601f19601f820116820180604052508101906106c491906127c6565b509198975050505050505050565b60008060006106e48888888888610769565b90506106f28187878761078a565b90999098509650505050505050565b6000601260ff8416101561043e5761043b84836116c7565b60008060008360000151905060008460200151905061074682866080015187604001518860c00151610f2b565b61075e828760a0015188606001518960e00151610f2b565b935093505050915091565b600061078061077783610503565b85858989611720565b9695505050505050565b6000806107a161079984610503565b8686896117d8565b9097909650945050505050565b6000818310156107bf5760006107c9565b6107c9838361166a565b90505b92915050565b6000806000806107f28888886040015189606001518a61010001516106d2565b909250905061080c610805896064611299565b899061166a565b82108061082c5750610829610822886064611299565b889061166a565b81105b156108c957600061084d898989604001518a606001518b6101000151610769565b6001600160801b0316905060006108688861010001516108db565b6001600160801b031690506000811561088a576108858383611874565b61088d565b60005b90506108bb8160405180608001604052808e81526020018d8152602001888152602001878152508a8c6119be565b90975095506108d092505050565b8793508692505b505094509492505050565b600080829050806001600160a01b0316631a6865026040518163ffffffff1660e01b815260040160206040518083038186803b15801561091a57600080fd5b505afa15801561092e573d6000803e3d6000fd5b505050506040513d601f19601f8201168201806040525081019061044191906125b8565b604080516080810182528381523060208201526001600160801b038087168284015285166060820152905163fc6f786560e01b815260009182916001600160a01b0385169163fc6f7865916109aa9190600401612bda565b6040805180830381600087803b1580156109c357600080fd5b505af11580156109d7573d6000803e3d6000fd5b505050506040513d601f19601f820116820180604052508101906107a19190612824565b60008060008360a001519050600080610a23878760400151886060015189610100015161078a565b91509150826001600160a01b0316630c49ccbe6040518060a00160405280896080015181526020018a6001600160801b03168152602001858152602001848152602001428152506040518263ffffffff1660e01b8152600401610a869190612c1d565b6040805180830381600087803b158015610a9f57600080fd5b505af1158015610ab3573d6000803e3d6000fd5b505050506040513d601f19601f82011682018060405250810190610ad79190612824565b909890975095505050505050565b60006104fb848484611ba8565b600080836001600160a01b031663219f5d176040518060c00160405280868152602001898152602001888152602001610b3861062360648c61129990919063ffffffff16565b8152602001610b4b61063d8a6064611299565b8152602001428152506040518263ffffffff1660e01b8152600401610b709190612cc4565b606060405180830381600087803b158015610b8a57600080fd5b505af1158015610b9e573d6000803e3d6000fd5b505050506040513d601f19601f82011682018060405250810190610ad791906126a3565b600080610bce84610719565b91509150610be58285608001518660400151610423565b9150610bfa818560a001518660600151610423565b9050600080610c0b848487896107d2565b91509150610c1886610719565b8094508195505050610c338487608001518860400151610423565b9350610c48838760a001518860600151610423565b925083821115610c56578391505b82811115610c615750815b600080610c7e848489604001518a606001518b61010001516106d2565b91509150816000141580610c9157508015155b610cb65760405162461bcd60e51b8152600401610cad90612b55565b60405180910390fd5b610cca82828960a001518a60800151610af2565b50505050505050505050565b600061045382611c06565b600080610cfc84610100015184608001518560a00151611201565b9050610d1781610d118764e8d4a510006116c7565b90611299565b94506000610d3784602001518560a0015186606001518760e00151610f2b565b905086811015610d595760405162461bcd60e51b8152600401610cad90612b86565b610d6c878560a001518660600151610423565b9650610d818685608001518660400151610423565b60e086015160208601518651885160405163f7729d4360e01b8152949a506000946001600160a01b039094169363f7729d4393610ddc93909290918e9073fffd8963efd1fc6a506488495d951d5263988d2590600401612abe565b602060405180830381600087803b158015610df657600080fd5b505af1158015610e0a573d6000803e3d6000fd5b505050506040513d601f19601f82011682018060405250810190610e2e91906127ae565b905086811015610e3c578096505b60c08087015160408051610100810182526020808a01516001600160a01b0390811683528a518116918301919091528a5162ffffff168284015230606083015242608083015260a082018c90529381018c905273fffd8963efd1fc6a506488495d951d5263988d2560e08201529051631b67c43360e31b8152929091169163db3e219891610ecc91600401612c5b565b602060405180830381600087803b158015610ee657600080fd5b505af1158015610efa573d6000803e3d6000fd5b505050506040513d601f19601f82011682018060405250810190610f1e91906127ae565b5096979650505050505050565b6000610fbc610fb5866001600160a01b03166370a08231306040518263ffffffff1660e01b8152600401610f5f9190612aaa565b60206040518083038186803b158015610f7757600080fd5b505afa158015610f8b573d6000803e3d6000fd5b505050506040513d601f19601f82011682018060405250810190610faf91906127ae565b846107ae565b8585610701565b95945050505050565b6000818310156107bf57610fd9828461166a565b6107c9565b600080610ff984610100015184608001518560a00151611201565b905061100e64e8d4a51000610d1187846116c7565b9450600061102e8460000151856080015186604001518760c00151610f2b565b9050868110156110505760405162461bcd60e51b8152600401610cad90612b01565b6110638785608001518660400151610423565b9650611078868560a001518660600151610423565b60e086015185516020870151885160405163f7729d4360e01b8152949a506000946001600160a01b039094169363f7729d43936110c493909290918e906401000276a490600401612abe565b602060405180830381600087803b1580156110de57600080fd5b505af11580156110f2573d6000803e3d6000fd5b505050506040513d601f19601f8201168201806040525081019061111691906127ae565b905086811015611124578096505b60c080870151604080516101008101825288516001600160a01b0390811682526020808b01518216908301528a5162ffffff168284015230606083015242608083015260a082018c90529381018c90526401000276a460e08201529051631b67c43360e31b8152929091169163db3e2198916111a291600401612c5b565b602060405180830381600087803b1580156111bc57600080fd5b505af11580156111d0573d6000803e3d6000fd5b505050506040513d601f19601f820116820180604052508101906111f491906127ae565b5095979650505050505050565b60008061120d85610503565b905060008360ff168560ff1610156112275784840361122b565b8385035b90508360ff168560ff16101561126b5760c061126460ff600c84900316600a0a61125e6001600160a01b038616806116c7565b906116c7565b901c610780565b60c061128d60ff600c840116600a0a61125e6001600160a01b038616806116c7565b901c9695505050505050565b60008082116112ef576040805162461bcd60e51b815260206004820152601a60248201527f536166654d6174683a206469766973696f6e206279207a65726f000000000000604482015290519081900360640190fd5b8183816112f857fe5b049392505050565b60008060008360020b12611317578260020b61131f565b8260020b6000035b9050620d89e881111561135d576040805162461bcd60e51b81526020600482015260016024820152601560fa1b604482015290519081900360640190fd5b60006001821661137157600160801b611383565b6ffffcb933bd6fad37aa2d162d1a5940015b6001600160881b0316905060028216156113ad576ffff97272373d413259a46990580e213a0260801c5b60048216156113cc576ffff2e50f5f656932ef12357cf3c7fdcc0260801c5b60088216156113eb576fffe5caca7e10e4e61c3624eaa0941cd00260801c5b601082161561140a576fffcb9843d60f6159c9db58835c9266440260801c5b6020821615611429576fff973b41fa98c081472e6896dfb254c00260801c5b6040821615611448576fff2ea16466c96a3843ec78b326b528610260801c5b6080821615611467576ffe5dee046a99a2a811c461f1969c30530260801c5b610100821615611487576ffcbe86c7900a88aedcffc83b479aa3a40260801c5b6102008216156114a7576ff987a7253ac413176f2b074cf7815e540260801c5b6104008216156114c7576ff3392b0822b70005940c7a398e4b70f30260801c5b6108008216156114e7576fe7159475a2c29b7443b29c7fa6e889d90260801c5b611000821615611507576fd097f3bdfd2022b8845ad8f792aa58250260801c5b612000821615611527576fa9f746462d870fdf8a65dc1f90e061e50260801c5b614000821615611547576f70d869a156d2a1b890bb3df62baf32f70260801c5b618000821615611567576f31be135f97d08fd981231505542fcfa60260801c5b62010000821615611588576f09aa508b5b7a84e1c677de54f3e99bc90260801c5b620200008216156115a8576e5d6af8dedb81196699c329225ee6040260801c5b620400008216156115c7576d2216e584f5fa1ea926041bedfe980260801c5b620800008216156115e4576b048a170391f7dc42444e8fa20260801c5b60008460020b13156115ff5780600019816115fb57fe5b0490505b640100000000810615611613576001611616565b60005b60ff16602082901c0192505050919050565b6000826001600160a01b0316846001600160a01b03161115611648579192915b6104fb61166583600160601b8787036001600160a01b0316611f05565b611fb4565b6000828211156116c1576040805162461bcd60e51b815260206004820152601e60248201527f536166654d6174683a207375627472616374696f6e206f766572666c6f770000604482015290519081900360640190fd5b50900390565b6000826116d6575060006107cc565b828202828482816116e357fe5b04146107c95760405162461bcd60e51b8152600401808060200182810382526021815260200180612e626021913960400191505060405180910390fd5b6000836001600160a01b0316856001600160a01b03161115611740579293925b846001600160a01b0316866001600160a01b03161161176b57611764858585611ba8565b9050610fbc565b836001600160a01b0316866001600160a01b031610156117cd576000611792878686611ba8565b905060006117a1878986611628565b9050806001600160801b0316826001600160801b0316106117c257806117c4565b815b92505050610fbc565b610780858584611628565b600080836001600160a01b0316856001600160a01b031611156117f9579293925b846001600160a01b0316866001600160a01b0316116118245761181d858585611fca565b915061186b565b836001600160a01b0316866001600160a01b0316101561185d57611849868585611fca565b9150611856858785612033565b905061186b565b611868858585612033565b90505b94509492505050565b60008161188057600080fd5b60006001600160c01b0384116118a55782604085901b8161189d57fe5b0490506119aa565b60c084811c64010000000081106118be576020918201911c5b6201000081106118d0576010918201911c5b61010081106118e1576008918201911c5b601081106118f1576004918201911c5b60048110611901576002918201911c5b60028110611910576001820191505b60bf820360018603901c6001018260ff0387901b8161192b57fe5b0492506001600160801b0383111561194257600080fd5b608085901c83026001600160801b038616840260c088901c604089901b8281101561196e576001820391505b608084901b92900382811015611985576001820391505b829003608084901c821461199557fe5b88818161199e57fe5b04870196505050505050505b6001600160801b038111156107c957600080fd5b60008060008060006119de86610100015188608001518960a00151611201565b9050611a626040518060800160405280611a058b600001518b608001518c60400151610701565b8152602001611a218b602001518b60a001518c60600151610701565b8152602001611a3d8b604001518b608001518c60400151610701565b8152602001611a598b606001518b60a001518c60600151610701565b90528a83612076565b909350915082611a8257876000015188602001519450945050505061186b565b506000611a9a611a93846032611299565b8490612138565b9050600080611aa889610719565b915091508315611b065782821015611abe578192505b6000611acc84878b8d610fde565b9050611aec611ae4878c608001518d60400151610423565b8c519061166a565b60208c0151909850611afe9082612138565b965050611b9a565b6000611b208961010001518b608001518c60a00151611201565b9050611b3564e8d4a51000610d1186846116c7565b935083821015611b43578193505b6000611b6385611b5c64e8d4a51000610d118b876116c7565b8c8e610ce1565b9050611b83611b7b888d608001518e60400151610423565b8d5190612138565b60208d0151909950611b95908261166a565b975050505b505050505094509492505050565b6000826001600160a01b0316846001600160a01b03161115611bc8579192915b6000611beb856001600160a01b0316856001600160a01b0316600160601b611f05565b9050610fbc61166584838888036001600160a01b0316611f05565b60006401000276a36001600160a01b03831610801590611c42575073fffd8963efd1fc6a506488495d951d5263988d266001600160a01b038316105b611c77576040805162461bcd60e51b81526020600482015260016024820152602960f91b604482015290519081900360640190fd5b640100000000600160c01b03602083901b166001600160801b03811160071b81811c67ffffffffffffffff811160061b90811c63ffffffff811160051b90811c61ffff811160041b90811c60ff8111600390811b91821c600f811160021b90811c918211600190811b92831c97908811961790941790921717909117171760808110611d0b57607f810383901c9150611d15565b80607f0383901b91505b908002607f81811c60ff83811c9190911c800280831c81831c1c800280841c81841c1c800280851c81851c1c800280861c81861c1c800280871c81871c1c800280881c81881c1c800280891c81891c1c8002808a1c818a1c1c8002808b1c818b1c1c8002808c1c818c1c1c8002808d1c818d1c1c8002808e1c9c81901c9c909c1c80029c8d901c9e9d607f198f0160401b60c09190911c6001603f1b161760c19b909b1c6001603e1b169a909a1760c29990991c6001603d1b169890981760c39790971c6001603c1b169690961760c49590951c6001603b1b169490941760c59390931c6001603a1b169290921760c69190911c600160391b161760c79190911c600160381b161760c89190911c6680000000000000161760c99190911c6640000000000000161760ca9190911c6620000000000000161760cb9190911c6610000000000000161760cc9190911c6608000000000000161760cd9190911c66040000000000001617693627a301d71055774c8581026f028f6481ab7f045a5af012a19d003aa9198101608090811d906fdb2df09e81959a81455e260799a0632f8301901d600281810b9083900b14611ef657886001600160a01b0316611eda82611300565b6001600160a01b03161115611eef5781611ef1565b805b611ef8565b815b9998505050505050505050565b6000808060001985870986860292508281109083900303905080611f3b5760008411611f3057600080fd5b508290049050610441565b808411611f4757600080fd5b6000848688096000868103871696879004966002600389028118808a02820302808a02820302808a02820302808a02820302808a02820302808a02909103029181900381900460010186841190950394909402919094039290920491909117919091029150509392505050565b806001600160801b038116811461045657600080fd5b6000826001600160a01b0316846001600160a01b03161115611fea579192915b836001600160a01b0316612023606060ff16846001600160801b0316901b8686036001600160a01b0316866001600160a01b0316611f05565b8161202a57fe5b04949350505050565b6000826001600160a01b0316846001600160a01b03161115612053579192915b6104fb826001600160801b03168585036001600160a01b0316600160601b611f05565b600080600061208a8464e8d4a51000612192565b905060006120d287606001516120cc6120a7898b602001516121c9565b6120cc6120b8878d604001516121c9565b6120cc6120c5898e612231565b8e516121c9565b90612138565b905060006120e98860000151896060015184612268565b9050600061210089602001518a6040015185612268565b90508082101561211257818103612116565b8082035b95508082101561212757600061212a565b60015b945050505050935093915050565b6000828201838110156107c9576040805162461bcd60e51b815260206004820152601b60248201527f536166654d6174683a206164646974696f6e206f766572666c6f770000000000604482015290519081900360640190fd5b60008161219e57600080fd5b60006121aa8484611874565b905060016001607f1b036001600160801b03821611156107c957600080fd5b6000816121d8575060006107cc565b600083600f0b12156121e957600080fd5b600f83900b6001600160801b038316810260401c90608084901c026001600160c01b0381111561221857600080fd5b60401b811981111561222957600080fd5b019392505050565b6000600f83810b9083900b0260401d60016001607f1b0319811280159061225f575060016001607f1b038113155b6107c957600080fd5b600080821161227657600080fd5b6000806000198587098686029250828110908390030390508061229e57508290049050610441565b838110611f4757600080fd5b803561045681612e05565b805161045681612e05565b805161045681612e1d565b60006101208083850312156122de578182fd5b6122e781612de1565b9150506122f38261243f565b815261230160208301612455565b6020820152612312604083016122aa565b6040820152612323606083016122aa565b60608201526080820135608082015261233e60a083016122aa565b60a082015261234f60c083016122aa565b60c082015261236060e083016122aa565b60e08201526101006123738184016122aa565b9082015292915050565b6000610100808385031215612390578182fd5b6040519081019067ffffffffffffffff821181831017156123ad57fe5b816040528092506123bd846122aa565b81526123cb602085016122aa565b602082015260408401356040820152606084013560608201526123f060808501612469565b608082015261240160a08501612469565b60a082015260c084013560c082015260e084013560e0820152505092915050565b805161045681612e2c565b805161ffff8116811461045657600080fd5b803561045681612e41565b805161045681612e41565b803563ffffffff8116811461045657600080fd5b803561045681612e52565b600060208284031215612485578081fd5b81356107c981612e05565b600080604083850312156124a2578081fd5b82356124ad81612e05565b946020939093013593505050565b6000806000606084860312156124cf578081fd5b83356124da81612e05565b925060208401356124ea81612e52565b915060408401356124fa81612e52565b809150509250925092565b6000806000806080858703121561251a578081fd5b843561252581612e05565b9350602085013561253581612e52565b93969395505050506040820135916060013590565b60006020828403121561255b578081fd5b81356107c981612e1d565b60006101008284031215612578578081fd5b6107c9838361237d565b6000806102208385031215612595578182fd5b61259f848461237d565b91506125af8461010085016122cb565b90509250929050565b6000602082840312156125c9578081fd5b81516107c981612e2c565b60008061014083850312156125e7578182fd5b82356125f281612e2c565b91506125af84602085016122cb565b60008060008060808587031215612616578182fd5b843561262181612e2c565b9350602085013561263181612e2c565b925060408501359150606085013561264881612e05565b939692955090935050565b60008060008060808587031215612668578182fd5b843561267381612e2c565b9350602085013561268381612e05565b9250604085013561269381612e05565b9150606085013561264881612e05565b6000806000606084860312156126b7578081fd5b83516126c281612e2c565b602085015160409095015190969495509392505050565b600080600080600080600060e0888a0312156126f3578485fd5b87516126fe81612e05565b602089015190975061270f81612e1d565b955061271d6040890161242d565b945061272b6060890161242d565b93506127396080890161242d565b925060a088015161274981612e52565b60c0890151909250801515811461275e578182fd5b8091505092959891949750929550565b600080600060608486031215612782578081fd5b833561278d81612e05565b9250602084013561279d81612e05565b929592945050506040919091013590565b6000602082840312156127bf578081fd5b5051919050565b600080600080608085870312156127db578182fd5b8451935060208501516127ed81612e2c565b6040860151606090960151949790965092505050565b60008060408385031215612815578182fd5b50508035926020909101359150565b60008060408385031215612836578182fd5b505080516020909101519092909150565b6000806000806000610280868803121561285f578283fd5b8535945060208601359350604086013561287881612e05565b9250612887876060880161237d565b91506128978761016088016122cb565b90509295509295909350565b600080600080608085870312156128b8578182fd5b843593506020850135925060408501356128d181612e05565b9396929550929360600135925050565b60008060008061026085870312156128f7578182fd5b843593506020850135925061290f86604087016122cb565b915061291f86610160870161237d565b905092959194509250565b600080600080600060a08688031215612941578283fd5b8535945060208601359350604086013561295a81612e05565b9250606086013561296a81612e05565b9150608086013561297a81612e05565b809150509295509295909350565b60008060006060848603121561299c578081fd5b83359250602084013561279d81612e52565b6000806000806000806000806000806000806101808d8f0312156129d0578586fd5b8c516bffffffffffffffffffffffff811681146129eb578687fd5b9b506129f960208e016122b5565b9a50612a0760408e016122b5565b9950612a1560608e016122b5565b9850612a2360808e0161244a565b9750612a3160a08e016122c0565b9650612a3f60c08e016122c0565b9550612a4d60e08e01612422565b94506101008d015193506101208d01519250612a6c6101408e01612422565b9150612a7b6101608e01612422565b90509295989b509295989b509295989b565b6001600160a01b03169052565b60020b9052565b62ffffff169052565b6001600160a01b0391909116815260200190565b6001600160a01b039586168152938516602085015262ffffff9290921660408401526060830152909116608082015260a00190565b60029190910b815260200190565b60208082526034908201527f5377617020746f6b656e203020666f7220746f6b656e20313a206e6f7420656e6040820152736f75676820746f6b656e20302062616c616e636560601b606082015260800190565b6020808252601790820152760526562616c616e636520616d6f756e747320617265203604c1b604082015260600190565b60208082526034908201527f5377617020746f6b656e203120666f7220746f6b656e20303a206e6f7420656e6040820152736f75676820746f6b656e20312062616c616e636560601b606082015260800190565b815181526020808301516001600160a01b0316908201526040808301516001600160801b0390811691830191909152606092830151169181019190915260800190565b815181526020808301516001600160801b03169082015260408083015190820152606080830151908201526080918201519181019190915260a00190565b81516001600160a01b03908116825260208084015182169083015260408084015162ffffff16908301526060808401518216908301526080808401519083015260a0838101519083015260c0808401519083015260e09283015116918101919091526101000190565b600060c082019050825182526020830151602083015260408301516040830152606083015160608301526080830151608083015260a083015160a083015292915050565b600061016082019050612d1c828451612a8d565b6020830151612d2e6020840182612a8d565b506040830151612d416040840182612aa1565b506060830151612d546060840182612a9a565b506080830151612d676080840182612a9a565b5060a083015160a083015260c083015160c083015260e083015160e083015261010080840151818401525061012080840151612da582850182612a8d565b505061014092830151919092015290565b6001600160801b0391909116815260200190565b90815260200190565b918252602082015260400190565b60405181810167ffffffffffffffff81118282101715612dfd57fe5b604052919050565b6001600160a01b0381168114612e1a57600080fd5b50565b8060020b8114612e1a57600080fd5b6001600160801b0381168114612e1a57600080fd5b62ffffff81168114612e1a57600080fd5b60ff81168114612e1a57600080fdfe536166654d6174683a206d756c7469706c69636174696f6e206f766572666c6f77a2646970667358221220fe01751ec4628022beb23511506def84ed961a5e2afef47de241d1894b3b040564736f6c63430007060033",
  "linkReferences": {},
  "deployedLinkReferences": {}
}