{
  "_format": "hh-sol-artifact-1",
  "contractName": "MockxTokenManager",
  "sourceName": "contracts/test/MockxTokenManager.sol",
  "abi": [
    {
      "anonymous": false,
      "inputs": [
        {
          "indexed": true,
          "internalType": "address",
          "name": "previousOwner",
          "type": "address"
        },
        {
          "indexed": true,
          "internalType": "address",
          "name": "newOwner",
          "type": "address"
        }
      ],
      "name": "OwnershipTransferred",
      "type": "event"
    },
    {
      "inputs": [
        {
          "internalType": "address",
          "name": "manager",
          "type": "address"
        },
        {
          "internalType": "address",
          "name": "fund",
          "type": "address"
        }
      ],
      "name": "addManager",
      "outputs": [],
      "stateMutability": "nonpayable",
      "type": "function"
    },
    {
      "inputs": [],
      "name": "initialize",
      "outputs": [],
      "stateMutability": "nonpayable",
      "type": "function"
    },
    {
      "inputs": [
        {
          "internalType": "address",
          "name": "manager",
          "type": "address"
        },
        {
          "internalType": "address",
          "name": "fund",
          "type": "address"
        }
      ],
      "name": "isManager",
      "outputs": [
        {
          "internalType": "bool",
          "name": "",
          "type": "bool"
        }
      ],
      "stateMutability": "view",
      "type": "function"
    },
    {
      "inputs": [
        {
          "internalType": "address",
          "name": "caller",
          "type": "address"
        }
      ],
      "name": "isRevenueController",
      "outputs": [
        {
          "internalType": "bool",
          "name": "",
          "type": "bool"
        }
      ],
      "stateMutability": "view",
      "type": "function"
    },
    {
      "inputs": [],
      "name": "owner",
      "outputs": [
        {
          "internalType": "address",
          "name": "",
          "type": "address"
        }
      ],
      "stateMutability": "view",
      "type": "function"
    },
    {
      "inputs": [
        {
          "internalType": "address",
          "name": "manager",
          "type": "address"
        },
        {
          "internalType": "address",
          "name": "fund",
          "type": "address"
        }
      ],
      "name": "removeManager",
      "outputs": [],
      "stateMutability": "nonpayable",
      "type": "function"
    },
    {
      "inputs": [],
      "name": "renounceOwnership",
      "outputs": [],
      "stateMutability": "nonpayable",
      "type": "function"
    },
    {
      "inputs": [
        {
          "internalType": "address",
          "name": "controller",
          "type": "address"
        }
      ],
      "name": "setRevenueController",
      "outputs": [],
      "stateMutability": "nonpayable",
      "type": "function"
    },
    {
      "inputs": [
        {
          "internalType": "address",
          "name": "newOwner",
          "type": "address"
        }
      ],
      "name": "transferOwnership",
      "outputs": [],
      "stateMutability": "nonpayable",
      "type": "function"
    }
  ],
  "bytecode": "0x608060405234801561001057600080fd5b5061092a806100206000396000f3fe608060405234801561001057600080fd5b50600436106100835760003560e01c80632ef0e1ca14610088578063715018a6146100ca5780638129fc1c146100d45780638513c619146100dc5780638da5cb5b1461010a5780638ef7359f1461012e578063f2fde38b14610154578063f85771b21461017a578063fa86fa24146101a8575b600080fd5b6100b66004803603604081101561009e57600080fd5b506001600160a01b03813581169160200135166101ce565b604080519115158252519081900360200190f35b6100d26101fc565b005b6100d2610296565b6100d2600480360360408110156100f257600080fd5b506001600160a01b0381358116916020013516610348565b61011261040c565b604080516001600160a01b039092168252519081900360200190f35b6100b66004803603602081101561014457600080fd5b50356001600160a01b031661041b565b6100d26004803603602081101561016a57600080fd5b50356001600160a01b031661042f565b6100d26004803603604081101561019057600080fd5b506001600160a01b0381358116916020013516610520565b6100d2600480360360208110156101be57600080fd5b50356001600160a01b0316610617565b6001600160a01b03918216600090815260656020908152604080832093909416825291909152205460ff1690565b61020461069b565b6001600160a01b031661021561040c565b6001600160a01b03161461025e576040805162461bcd60e51b815260206004820181905260248201526000805160206108b5833981519152604482015290519081900360640190fd5b6033546040516000916001600160a01b0316906000805160206108d5833981519152908390a3603380546001600160a01b0319169055565b600054610100900460ff16806102af57506102af61069f565b806102bd575060005460ff16155b6102f85760405162461bcd60e51b815260040180806020018281038252602e815260200180610887602e913960400191505060405180910390fd5b600054610100900460ff16158015610323576000805460ff1961ff0019909116610100171660011790555b61032b6106b0565b610333610750565b8015610345576000805461ff00191690555b50565b61035061069b565b6001600160a01b031661036161040c565b6001600160a01b0316146103aa576040805162461bcd60e51b815260206004820181905260248201526000805160206108b5833981519152604482015290519081900360640190fd5b6001600160a01b0380831660009081526065602090815260408083209385168352929052205460ff16610408576001600160a01b038083166000908152606560209081526040808320938516835292905220805460ff191660011790555b5050565b6033546001600160a01b031690565b6066546001600160a01b0391821691161490565b61043761069b565b6001600160a01b031661044861040c565b6001600160a01b031614610491576040805162461bcd60e51b815260206004820181905260248201526000805160206108b5833981519152604482015290519081900360640190fd5b6001600160a01b0381166104d65760405162461bcd60e51b81526004018080602001828103825260268152602001806108616026913960400191505060405180910390fd5b6033546040516001600160a01b038084169216906000805160206108d583398151915290600090a3603380546001600160a01b0319166001600160a01b0392909216919091179055565b61052861069b565b6001600160a01b031661053961040c565b6001600160a01b031614610582576040805162461bcd60e51b815260206004820181905260248201526000805160206108b5833981519152604482015290519081900360640190fd5b6001600160a01b0380831660009081526065602090815260408083209385168352929052205460ff166105e65760405162461bcd60e51b815260040180806020018281038252602381526020018061083e6023913960400191505060405180910390fd5b6001600160a01b0391821660009081526065602090815260408083209390941682529190915220805460ff19169055565b61061f61069b565b6001600160a01b031661063061040c565b6001600160a01b031614610679576040805162461bcd60e51b815260206004820181905260248201526000805160206108b5833981519152604482015290519081900360640190fd5b606680546001600160a01b0319166001600160a01b0392909216919091179055565b3390565b60006106aa30610837565b15905090565b600054610100900460ff16806106c957506106c961069f565b806106d7575060005460ff16155b6107125760405162461bcd60e51b815260040180806020018281038252602e815260200180610887602e913960400191505060405180910390fd5b600054610100900460ff16158015610333576000805460ff1961ff0019909116610100171660011790558015610345576000805461ff001916905550565b600054610100900460ff1680610769575061076961069f565b80610777575060005460ff16155b6107b25760405162461bcd60e51b815260040180806020018281038252602e815260200180610887602e913960400191505060405180910390fd5b600054610100900460ff161580156107dd576000805460ff1961ff0019909116610100171660011790555b60006107e761069b565b603380546001600160a01b0319166001600160a01b038316908117909155604051919250906000906000805160206108d5833981519152908290a3508015610345576000805461ff001916905550565b3b15159056fe41646472657373206973206e6f74206d616e61676572206f6620746869732066756e644f776e61626c653a206e6577206f776e657220697320746865207a65726f2061646472657373496e697469616c697a61626c653a20636f6e747261637420697320616c726561647920696e697469616c697a65644f776e61626c653a2063616c6c6572206973206e6f7420746865206f776e65728be0079c531659141344cd1fd0a4f28419497f9722a3daafe3b4186f6b6457e0a2646970667358221220f35d73f4dab510a44cfcf4dfcb581d7f0e8717a2a8b27664ad31f2520a73508964736f6c63430007060033",
  "linkReferences": {},
  "deployedLinkReferences": {}
}