{
  "_format": "hh-sol-artifact-1",
  "contractName": "LMTerminal",
  "sourceName": "contracts/LMTerminal.sol",
  "abi": [
    {
      "inputs": [],
      "stateMutability": "nonpayable",
      "type": "constructor"
    },
    {
      "anonymous": false,
      "inputs": [
        {
          "indexed": true,
          "internalType": "address",
          "name": "clrInstance",
          "type": "address"
        },
        {
          "indexed": true,
          "internalType": "address",
          "name": "token0",
          "type": "address"
        },
        {
          "indexed": true,
          "internalType": "address",
          "name": "token1",
          "type": "address"
        },
        {
          "indexed": false,
          "internalType": "uint24",
          "name": "fee",
          "type": "uint24"
        },
        {
          "indexed": false,
          "internalType": "int24",
          "name": "lowerTick",
          "type": "int24"
        },
        {
          "indexed": false,
          "internalType": "int24",
          "name": "upperTick",
          "type": "int24"
        }
      ],
      "name": "DeployedIncentivizedPool",
      "type": "event"
    },
    {
      "anonymous": false,
      "inputs": [
        {
          "indexed": true,
          "internalType": "address",
          "name": "poolInstance",
          "type": "address"
        },
        {
          "indexed": true,
          "internalType": "address",
          "name": "token0",
          "type": "address"
        },
        {
          "indexed": true,
          "internalType": "address",
          "name": "token1",
          "type": "address"
        },
        {
          "indexed": false,
          "internalType": "uint24",
          "name": "fee",
          "type": "uint24"
        },
        {
          "indexed": false,
          "internalType": "int24",
          "name": "lowerTick",
          "type": "int24"
        },
        {
          "indexed": false,
          "internalType": "int24",
          "name": "upperTick",
          "type": "int24"
        }
      ],
      "name": "DeployedNonIncentivizedPool",
      "type": "event"
    },
    {
      "anonymous": false,
      "inputs": [
        {
          "indexed": true,
          "internalType": "address",
          "name": "pool",
          "type": "address"
        },
        {
          "indexed": true,
          "internalType": "address",
          "name": "token0",
          "type": "address"
        },
        {
          "indexed": true,
          "internalType": "address",
          "name": "token1",
          "type": "address"
        },
        {
          "indexed": false,
          "internalType": "uint24",
          "name": "fee",
          "type": "uint24"
        }
      ],
      "name": "DeployedUniV3Pool",
      "type": "event"
    },
    {
      "anonymous": false,
      "inputs": [
        {
          "indexed": false,
          "internalType": "uint256",
          "name": "amount",
          "type": "uint256"
        }
      ],
      "name": "EthFeeWithdraw",
      "type": "event"
    },
    {
      "anonymous": false,
      "inputs": [
        {
          "indexed": true,
          "internalType": "address",
          "name": "clrInstance",
          "type": "address"
        },
        {
          "indexed": false,
          "internalType": "address[]",
          "name": "rewardTokens",
          "type": "address[]"
        },
        {
          "indexed": false,
          "internalType": "uint256[]",
          "name": "totalRewardAmounts",
          "type": "uint256[]"
        },
        {
          "indexed": false,
          "internalType": "uint256",
          "name": "rewardsDuration",
          "type": "uint256"
        }
      ],
      "name": "InitiatedRewardsProgram",
      "type": "event"
    },
    {
      "anonymous": false,
      "inputs": [
        {
          "indexed": true,
          "internalType": "address",
          "name": "previousOwner",
          "type": "address"
        },
        {
          "indexed": true,
          "internalType": "address",
          "name": "newOwner",
          "type": "address"
        }
      ],
      "name": "OwnershipTransferred",
      "type": "event"
    },
    {
      "anonymous": false,
      "inputs": [
        {
          "indexed": true,
          "internalType": "address",
          "name": "token",
          "type": "address"
        },
        {
          "indexed": false,
          "internalType": "uint256",
          "name": "amount",
          "type": "uint256"
        }
      ],
      "name": "TokenFeeWithdraw",
      "type": "event"
    },
    {
      "inputs": [],
      "name": "clrDeployer",
      "outputs": [
        {
          "internalType": "contract CLRDeployer",
          "name": "",
          "type": "address"
        }
      ],
      "stateMutability": "view",
      "type": "function"
    },
    {
      "inputs": [
        {
          "internalType": "address",
          "name": "",
          "type": "address"
        }
      ],
      "name": "customDeploymentFee",
      "outputs": [
        {
          "internalType": "uint256",
          "name": "",
          "type": "uint256"
        }
      ],
      "stateMutability": "view",
      "type": "function"
    },
    {
      "inputs": [
        {
          "internalType": "address",
          "name": "",
          "type": "address"
        }
      ],
      "name": "customDeploymentFeeEnabled",
      "outputs": [
        {
          "internalType": "bool",
          "name": "",
          "type": "bool"
        }
      ],
      "stateMutability": "view",
      "type": "function"
    },
    {
      "inputs": [
        {
          "internalType": "string",
          "name": "symbol",
          "type": "string"
        },
        {
          "components": [
            {
              "internalType": "int24",
              "name": "lowerTick",
              "type": "int24"
            },
            {
              "internalType": "int24",
              "name": "upperTick",
              "type": "int24"
            }
          ],
          "internalType": "struct LMTerminal.PositionTicks",
          "name": "ticks",
          "type": "tuple"
        },
        {
          "components": [
            {
              "internalType": "address[]",
              "name": "rewardTokens",
              "type": "address[]"
            },
            {
              "internalType": "uint256",
              "name": "vestingPeriod",
              "type": "uint256"
            }
          ],
          "internalType": "struct LMTerminal.RewardsProgram",
          "name": "rewardsProgram",
          "type": "tuple"
        },
        {
          "components": [
            {
              "internalType": "uint24",
              "name": "fee",
              "type": "uint24"
            },
            {
              "internalType": "address",
              "name": "token0",
              "type": "address"
            },
            {
              "internalType": "address",
              "name": "token1",
              "type": "address"
            },
            {
              "internalType": "uint256",
              "name": "amount0",
              "type": "uint256"
            },
            {
              "internalType": "uint256",
              "name": "amount1",
              "type": "uint256"
            }
          ],
          "internalType": "struct LMTerminal.PoolDetails",
          "name": "pool",
          "type": "tuple"
        }
      ],
      "name": "deployIncentivizedPool",
      "outputs": [
        {
          "internalType": "address",
          "name": "clrPoolAddress",
          "type": "address"
        }
      ],
      "stateMutability": "payable",
      "type": "function"
    },
    {
      "inputs": [
        {
          "internalType": "string",
          "name": "symbol",
          "type": "string"
        },
        {
          "components": [
            {
              "internalType": "int24",
              "name": "lowerTick",
              "type": "int24"
            },
            {
              "internalType": "int24",
              "name": "upperTick",
              "type": "int24"
            }
          ],
          "internalType": "struct LMTerminal.PositionTicks",
          "name": "ticks",
          "type": "tuple"
        },
        {
          "components": [
            {
              "internalType": "uint24",
              "name": "fee",
              "type": "uint24"
            },
            {
              "internalType": "address",
              "name": "token0",
              "type": "address"
            },
            {
              "internalType": "address",
              "name": "token1",
              "type": "address"
            },
            {
              "internalType": "uint256",
              "name": "amount0",
              "type": "uint256"
            },
            {
              "internalType": "uint256",
              "name": "amount1",
              "type": "uint256"
            }
          ],
          "internalType": "struct LMTerminal.PoolDetails",
          "name": "pool",
          "type": "tuple"
        }
      ],
      "name": "deployNonIncentivizedPool",
      "outputs": [
        {
          "internalType": "address",
          "name": "nonRewardPoolAddress",
          "type": "address"
        }
      ],
      "stateMutability": "payable",
      "type": "function"
    },
    {
      "inputs": [
        {
          "internalType": "address",
          "name": "token0",
          "type": "address"
        },
        {
          "internalType": "address",
          "name": "token1",
          "type": "address"
        },
        {
          "internalType": "uint24",
          "name": "fee",
          "type": "uint24"
        },
        {
          "internalType": "uint160",
          "name": "initPrice",
          "type": "uint160"
        }
      ],
      "name": "deployUniswapPool",
      "outputs": [
        {
          "internalType": "address",
          "name": "pool",
          "type": "address"
        }
      ],
      "stateMutability": "nonpayable",
      "type": "function"
    },
    {
      "inputs": [
        {
          "internalType": "uint256",
          "name": "",
          "type": "uint256"
        }
      ],
      "name": "deployedCLRPools",
      "outputs": [
        {
          "internalType": "contract ICLR",
          "name": "",
          "type": "address"
        }
      ],
      "stateMutability": "view",
      "type": "function"
    },
    {
      "inputs": [],
      "name": "deploymentFee",
      "outputs": [
        {
          "internalType": "uint256",
          "name": "",
          "type": "uint256"
        }
      ],
      "stateMutability": "view",
      "type": "function"
    },
    {
      "inputs": [
        {
          "internalType": "address",
          "name": "deployer",
          "type": "address"
        }
      ],
      "name": "disableCustomDeploymentFee",
      "outputs": [],
      "stateMutability": "nonpayable",
      "type": "function"
    },
    {
      "inputs": [
        {
          "internalType": "address",
          "name": "deployer",
          "type": "address"
        },
        {
          "internalType": "uint256",
          "name": "feeAmount",
          "type": "uint256"
        }
      ],
      "name": "enableCustomDeploymentFee",
      "outputs": [],
      "stateMutability": "nonpayable",
      "type": "function"
    },
    {
      "inputs": [
        {
          "internalType": "address",
          "name": "token0",
          "type": "address"
        },
        {
          "internalType": "address",
          "name": "token1",
          "type": "address"
        },
        {
          "internalType": "uint24",
          "name": "fee",
          "type": "uint24"
        }
      ],
      "name": "getPool",
      "outputs": [
        {
          "internalType": "address",
          "name": "pool",
          "type": "address"
        }
      ],
      "stateMutability": "view",
      "type": "function"
    },
    {
      "inputs": [
        {
          "internalType": "address",
          "name": "_xTokenManager",
          "type": "address"
        },
        {
          "internalType": "address",
          "name": "_rewardEscrow",
          "type": "address"
        },
        {
          "internalType": "address",
          "name": "_proxyAdmin",
          "type": "address"
        },
        {
          "internalType": "address",
          "name": "_clrDeployer",
          "type": "address"
        },
        {
          "internalType": "address",
          "name": "_nonRewardPoolDeployer",
          "type": "address"
        },
        {
          "internalType": "address",
          "name": "_uniswapFactory",
          "type": "address"
        },
        {
          "components": [
            {
              "internalType": "address",
              "name": "router",
              "type": "address"
            },
            {
              "internalType": "address",
              "name": "quoter",
              "type": "address"
            },
            {
              "internalType": "address",
              "name": "positionManager",
              "type": "address"
            }
          ],
          "internalType": "struct ICLR.UniswapContracts",
          "name": "_uniContracts",
          "type": "tuple"
        },
        {
          "internalType": "uint256",
          "name": "_deploymentFee",
          "type": "uint256"
        },
        {
          "internalType": "uint256",
          "name": "_rewardFee",
          "type": "uint256"
        },
        {
          "internalType": "uint256",
          "name": "_tradeFee",
          "type": "uint256"
        }
      ],
      "name": "initialize",
      "outputs": [],
      "stateMutability": "nonpayable",
      "type": "function"
    },
    {
      "inputs": [
        {
          "internalType": "contract ICLR",
          "name": "clrPool",
          "type": "address"
        },
        {
          "internalType": "uint256[]",
          "name": "totalRewardAmounts",
          "type": "uint256[]"
        },
        {
          "internalType": "uint256",
          "name": "rewardsDuration",
          "type": "uint256"
        }
      ],
      "name": "initiateNewRewardsProgram",
      "outputs": [],
      "stateMutability": "nonpayable",
      "type": "function"
    },
    {
      "inputs": [
        {
          "internalType": "contract ICLR",
          "name": "clrPool",
          "type": "address"
        },
        {
          "internalType": "uint256[]",
          "name": "totalRewardAmounts",
          "type": "uint256[]"
        },
        {
          "internalType": "uint256",
          "name": "rewardsDuration",
          "type": "uint256"
        }
      ],
      "name": "initiateRewardsProgram",
      "outputs": [],
      "stateMutability": "nonpayable",
      "type": "function"
    },
    {
      "inputs": [],
      "name": "nonRewardPoolDeployer",
      "outputs": [
        {
          "internalType": "contract NonRewardPoolDeployer",
          "name": "",
          "type": "address"
        }
      ],
      "stateMutability": "view",
      "type": "function"
    },
    {
      "inputs": [],
      "name": "owner",
      "outputs": [
        {
          "internalType": "address",
          "name": "",
          "type": "address"
        }
      ],
      "stateMutability": "view",
      "type": "function"
    },
    {
      "inputs": [],
      "name": "positionManager",
      "outputs": [
        {
          "internalType": "contract INonfungiblePositionManager",
          "name": "",
          "type": "address"
        }
      ],
      "stateMutability": "view",
      "type": "function"
    },
    {
      "inputs": [],
      "name": "proxyAdmin",
      "outputs": [
        {
          "internalType": "address",
          "name": "",
          "type": "address"
        }
      ],
      "stateMutability": "view",
      "type": "function"
    },
    {
      "inputs": [],
      "name": "renounceOwnership",
      "outputs": [],
      "stateMutability": "nonpayable",
      "type": "function"
    },
    {
      "inputs": [],
      "name": "rewardEscrow",
      "outputs": [
        {
          "internalType": "contract IRewardEscrow",
          "name": "",
          "type": "address"
        }
      ],
      "stateMutability": "view",
      "type": "function"
    },
    {
      "inputs": [],
      "name": "rewardFee",
      "outputs": [
        {
          "internalType": "uint256",
          "name": "",
          "type": "uint256"
        }
      ],
      "stateMutability": "view",
      "type": "function"
    },
    {
      "inputs": [
        {
          "internalType": "address",
          "name": "newDeployer",
          "type": "address"
        }
      ],
      "name": "setCLRDeployer",
      "outputs": [],
      "stateMutability": "nonpayable",
      "type": "function"
    },
    {
      "inputs": [
        {
          "internalType": "address",
          "name": "newDeployer",
          "type": "address"
        }
      ],
      "name": "setNonRewardPoolDeployer",
      "outputs": [],
      "stateMutability": "nonpayable",
      "type": "function"
    },
    {
      "inputs": [],
      "name": "tradeFee",
      "outputs": [
        {
          "internalType": "uint256",
          "name": "",
          "type": "uint256"
        }
      ],
      "stateMutability": "view",
      "type": "function"
    },
    {
      "inputs": [
        {
          "internalType": "address",
          "name": "newOwner",
          "type": "address"
        }
      ],
      "name": "transferOwnership",
      "outputs": [],
      "stateMutability": "nonpayable",
      "type": "function"
    },
    {
      "inputs": [],
      "name": "uniContracts",
      "outputs": [
        {
          "internalType": "address",
          "name": "router",
          "type": "address"
        },
        {
          "internalType": "address",
          "name": "quoter",
          "type": "address"
        },
        {
          "internalType": "address",
          "name": "positionManager",
          "type": "address"
        }
      ],
      "stateMutability": "view",
      "type": "function"
    },
    {
      "inputs": [],
      "name": "uniswapFactory",
      "outputs": [
        {
          "internalType": "contract IUniswapV3Factory",
          "name": "",
          "type": "address"
        }
      ],
      "stateMutability": "view",
      "type": "function"
    },
    {
      "inputs": [
        {
          "internalType": "contract IERC20",
          "name": "token",
          "type": "address"
        }
      ],
      "name": "withdrawFees",
      "outputs": [],
      "stateMutability": "nonpayable",
      "type": "function"
    },
    {
      "inputs": [],
      "name": "xTokenManager",
      "outputs": [
        {
          "internalType": "contract IxTokenManager",
          "name": "",
          "type": "address"
        }
      ],
      "stateMutability": "view",
      "type": "function"
    },
    {
      "stateMutability": "payable",
      "type": "receive"
    }
  ],
  "bytecode": "0x60806040523480156200001157600080fd5b50600054610100900460ff16806200002e57506200002e620000c0565b806200003d575060005460ff16155b6200007a5760405162461bcd60e51b815260040180806020018281038252602e815260200180620038d2602e913960400191505060405180910390fd5b600054610100900460ff16158015620000a6576000805460ff1961ff0019909116610100171660011790555b8015620000b9576000805461ff00191690555b50620000e4565b6000620000d830620000de60201b62001d751760201c565b15905090565b3b151590565b6137de80620000f46000396000f3fe6080604052600436106101865760003560e01c80638b424267116100d7578063bcd1870311610085578063bcd18703146103dc578063d6d6a6fe146103fc578063d84036461461041c578063d9e119af1461043c578063df22dc2914610451578063f2cff57f14610471578063f2fde38b14610486578063fd936f6e146104a65761018d565b80638b4242671461034d5780638b7158cd146103625780638bdb2afa146103755780638da5cb5b1461038a57806398e600971461039f578063a430be6c146103b4578063ba1cd7d7146103c95761018d565b80632ebf027a116101345780632ebf027a1461028c5780633e47158c146102ac57806366e0a0c1146102c1578063688f30d5146102e1578063715018a6146102f657806374ebd9161461030b578063791b98bc146103385761018d565b8063052088bd14610192578063164e68de146101c85780631698ee82146101ea57806319789e1a1461020a5780631a85f6021461022a57806324bcdfbd1461024a5780632ebef2751461026c5761018d565b3661018d57005b600080fd5b34801561019e57600080fd5b506101b26101ad366004612eae565b6104ca565b6040516101bf9190613008565b60405180910390f35b3480156101d457600080fd5b506101e86101e33660046129b7565b6104f4565b005b3480156101f657600080fd5b506101b2610205366004612b00565b6106ce565b34801561021657600080fd5b506101e8610225366004612c87565b61075d565b34801561023657600080fd5b506101e86102453660046129b7565b610964565b34801561025657600080fd5b5061025f6109e7565b6040516101bf9190613612565b34801561027857600080fd5b506101e86102873660046129b7565b6109ed565b34801561029857600080fd5b506101b26102a7366004612b46565b610a71565b3480156102b857600080fd5b506101b2610b78565b3480156102cd57600080fd5b506101e86102dc3660046129b7565b610b87565b3480156102ed57600080fd5b506101b2610c0b565b34801561030257600080fd5b506101e8610c1a565b34801561031757600080fd5b5061032b6103263660046129b7565b610cb4565b6040516101bf9190613129565b34801561034457600080fd5b506101b2610cc9565b34801561035957600080fd5b5061025f610cd8565b6101b2610370366004612d33565b610cde565b34801561038157600080fd5b506101b26111be565b34801561039657600080fd5b506101b26111cd565b3480156103ab57600080fd5b506101b26111dc565b3480156103c057600080fd5b506101b26111eb565b6101b26103d7366004612d88565b6111fa565b3480156103e857600080fd5b506101e86103f73660046129ef565b61190c565b34801561040857600080fd5b5061025f6104173660046129b7565b611a70565b34801561042857600080fd5b506101e8610437366004612b9f565b611a82565b34801561044857600080fd5b506101b2611b36565b34801561045d57600080fd5b506101e861046c366004612c87565b611b45565b34801561047d57600080fd5b5061025f611c61565b34801561049257600080fd5b506101e86104a13660046129b7565b611c67565b3480156104b257600080fd5b506104bb611d58565b6040516101bf93929190613036565b606681815481106104da57600080fd5b6000918252602090912001546001600160a01b0316905081565b606d54604051638ef7359f60e01b81526001600160a01b0390911690638ef7359f90610524903390600401613008565b60206040518083038186803b15801561053c57600080fd5b505afa158015610550573d6000803e3d6000fd5b505050506040513d601f19601f820116820180604052508101906105749190612c67565b6105995760405162461bcd60e51b815260040161059090613388565b60405180910390fd5b6040516370a0823160e01b81526000906001600160a01b038316906370a08231906105c8903090600401613008565b60206040518083038186803b1580156105e057600080fd5b505afa1580156105f4573d6000803e3d6000fd5b505050506040513d601f19601f820116820180604052508101906106189190612ec6565b90508015610676576106346001600160a01b0383163383611d7f565b816001600160a01b03167f45572a8824370b0cf99f446e19f19f51d6854d5048dc46f6876efa9bd862cbcb8260405161066d9190613612565b60405180910390a25b47156106ca5760006106884733611dd1565b905080156106c8577fcfede7544ff02c92c5cbc20c7b9b7cc610a9ba11f1b76dfb7b5d9a6e49c03ff5476040516106bf9190613612565b60405180910390a15b505b5050565b606f54604051630b4c774160e11b81526000916001600160a01b031690631698ee829061070390879087908790600401613059565b60206040518083038186803b15801561071b57600080fd5b505afa15801561072f573d6000803e3d6000fd5b505050506040513d601f19601f8201168201806040525081019061075391906129d3565b90505b9392505050565b6001600160a01b03831660009081526074602052604090205460ff166107955760405162461bcd60e51b815260040161059090613435565b826001600160a01b031663ebe2b12b6040518163ffffffff1660e01b815260040160206040518083038186803b1580156107ce57600080fd5b505afa1580156107e2573d6000803e3d6000fd5b505050506040513d601f19601f820116820180604052508101906108069190612ec6565b156108235760405162461bcd60e51b815260040161059090613551565b826001600160a01b03166326867ae46040518163ffffffff1660e01b815260040160206040518083038186803b15801561085c57600080fd5b505afa158015610870573d6000803e3d6000fd5b505050506040513d601f19601f820116820180604052508101906108949190612c67565b156108fc57606554604051634fb0f34760e11b81526001600160a01b0390911690639f61e68e906108c9908690600401613008565b600060405180830381600087803b1580156108e357600080fd5b505af11580156108f7573d6000803e3d6000fd5b505050505b60405163cc1a378f60e01b81526001600160a01b0384169063cc1a378f90610928908490600401613612565b600060405180830381600087803b15801561094257600080fd5b505af1158015610956573d6000803e3d6000fd5b505050506106c88383611e36565b61096c6121b5565b6001600160a01b031661097d6111cd565b6001600160a01b0316146109c6576040805162461bcd60e51b81526020600482018190526024820152600080516020613709833981519152604482015290519081900360640190fd5b6001600160a01b03166000908152606b60205260409020805460ff19169055565b60695481565b6109f56121b5565b6001600160a01b0316610a066111cd565b6001600160a01b031614610a4f576040805162461bcd60e51b81526020600482018190526024820152600080516020613709833981519152604482015290519081900360640190fd5b607580546001600160a01b0319166001600160a01b0392909216919091179055565b6000836001600160a01b0316856001600160a01b03161115610a91579293925b6070546040516309f56ab160e11b81526001600160a01b03909116906313ead56290610ac7908890889088908890600401613081565b602060405180830381600087803b158015610ae157600080fd5b505af1158015610af5573d6000803e3d6000fd5b505050506040513d601f19601f82011682018060405250810190610b1991906129d3565b9050836001600160a01b0316856001600160a01b0316826001600160a01b03167f519e07d9c10a0e3fd6c2030611f12809c6af1db32ade2fecac9a672225532ce086604051610b6891906135e1565b60405180910390a4949350505050565b606e546001600160a01b031681565b610b8f6121b5565b6001600160a01b0316610ba06111cd565b6001600160a01b031614610be9576040805162461bcd60e51b81526020600482018190526024820152600080516020613709833981519152604482015290519081900360640190fd5b606c80546001600160a01b0319166001600160a01b0392909216919091179055565b6075546001600160a01b031681565b610c226121b5565b6001600160a01b0316610c336111cd565b6001600160a01b031614610c7c576040805162461bcd60e51b81526020600482018190526024820152600080516020613709833981519152604482015290519081900360640190fd5b6033546040516000916001600160a01b031690600080516020613729833981519152908390a3603380546001600160a01b0319169055565b606b6020526000908152604090205460ff1681565b6070546001600160a01b031681565b60685481565b336000908152606b6020526040812054819060ff16610cff57606754610d10565b336000908152606a60205260409020545b9050803414610d315760405162461bcd60e51b815260040161059090613592565b607554606e54604051630ddbef4d60e21b81526000926001600160a01b039081169263376fbd3492610d699290911690600401613008565b602060405180830381600087803b158015610d8357600080fd5b505af1158015610d97573d6000803e3d6000fd5b505050506040513d601f19601f82011682018060405250810190610dbb91906129d3565b905083604001516001600160a01b031684602001516001600160a01b03161115610e0f576040840180516020860180516001600160a01b039081169093529116905260808401805160608601805190925290525b6000610e288560200151866040015187600001516106ce565b9050816001600160a01b0316630fbfc48f888860000151896020015189600001516069548b602001518c60400151308a6040518060600160405280607160000160009054906101000a90046001600160a01b03166001600160a01b03168152602001607160010160009054906101000a90046001600160a01b03166001600160a01b03168152602001607160020160009054906101000a90046001600160a01b03166001600160a01b03168152506040518b63ffffffff1660e01b8152600401610efb9a99989796959493929190613134565b600060405180830381600087803b158015610f1557600080fd5b505af1158015610f29573d6000803e3d6000fd5b50505050600080836001600160a01b0316633b893820886060015189608001516040518363ffffffff1660e01b8152600401610f66929190613632565b604080518083038186803b158015610f7d57600080fd5b505afa158015610f91573d6000803e3d6000fd5b505050506040513d601f19601f82011682018060405250810190610fb59190612ede565b60208901519193509150610fd3906001600160a01b031685846121b9565b6040870151610fec906001600160a01b031685836121b9565b6020870151611006906001600160a01b03163330856122cc565b6040870151611020906001600160a01b03163330846122cc565b604051631d98886760e11b81526001600160a01b03851690633b3110ce9061105090859085903390600401613640565b600060405180830381600087803b15801561106a57600080fd5b505af115801561107e573d6000803e3d6000fd5b505060405163f2fde38b60e01b81526001600160a01b038716925063f2fde38b91506110ae903390600401613008565b600060405180830381600087803b1580156110c857600080fd5b505af11580156110dc573d6000803e3d6000fd5b5050606e54604051633de30b1160e01b81526001600160a01b039091169250633de30b119150611112908790339060040161301c565b600060405180830381600087803b15801561112c57600080fd5b505af1158015611140573d6000803e3d6000fd5b5050505086604001516001600160a01b031687602001516001600160a01b0316856001600160a01b03167f98bd0085ca1df64f8034808782a47ad0a404f7cb67926b531393efc023c9a8db8a600001518c600001518d602001516040516111a9939291906135f1565b60405180910390a45091979650505050505050565b606f546001600160a01b031681565b6033546001600160a01b031690565b606c546001600160a01b031681565b6065546001600160a01b031681565b336000908152606b6020526040812054819060ff1661121b5760675461122c565b336000908152606a60205260409020545b905080341461124d5760405162461bcd60e51b81526004016105909061345b565b606c54606e5460405163432c3c2f60e01b81526000926001600160a01b039081169263432c3c2f926112859290911690600401613008565b602060405180830381600087803b15801561129f57600080fd5b505af11580156112b3573d6000803e3d6000fd5b505050506040513d601f19601f820116820180604052508101906112d791906129d3565b606c54606e54604051630e9a982160e41b81529293506000926001600160a01b039283169263e9a982109261131192911690600401613008565b602060405180830381600087803b15801561132b57600080fd5b505af115801561133f573d6000803e3d6000fd5b505050506040513d601f19601f8201168201806040525081019061136391906129d3565b604051635c108a4360e01b81529091506001600160a01b03821690635c108a4390611397908b9086906000906004016134a3565b600060405180830381600087803b1580156113b157600080fd5b505af11580156113c5573d6000803e3d6000fd5b5050505084604001516001600160a01b031685602001516001600160a01b0316111561141b576040850180516020870180516001600160a01b039081169093529116905260808501805160608701805190925290525b60008087602001511161142f576000611432565b60015b9050600061144d8760200151886040015189600001516106ce565b9050600060405180606001604052808a600001518152602001606560009054906101000a90046001600160a01b03166001600160a01b031681526020018415158152509050846001600160a01b0316633e3ae0318c8c600001518d602001518c600001516069548e602001518f604001518c308c60718d6040518d63ffffffff1660e01b81526004016114eb9c9b9a999897969594939291906131ca565b600060405180830381600087803b15801561150557600080fd5b505af1158015611519573d6000803e3d6000fd5b50505050600080866001600160a01b0316633b8938208b606001518c608001516040518363ffffffff1660e01b8152600401611556929190613632565b604080518083038186803b15801561156d57600080fd5b505afa158015611581573d6000803e3d6000fd5b505050506040513d601f19601f820116820180604052508101906115a59190612ede565b60208c015191935091506115c3906001600160a01b031688846121b9565b60408a01516115dc906001600160a01b031688836121b9565b60208a01516115f6906001600160a01b03163330856122cc565b60408a0151611610906001600160a01b03163330846122cc565b604051631d98886760e11b81526001600160a01b03881690633b3110ce9061164090859085903390600401613640565b600060405180830381600087803b15801561165a57600080fd5b505af115801561166e573d6000803e3d6000fd5b50505050505082156116e35760655460208a0151604051632dd6904960e11b81526001600160a01b0390921691635bad2092916116b0918991906004016130b1565b600060405180830381600087803b1580156116ca57600080fd5b505af11580156116de573d6000803e3d6000fd5b505050505b60405163f2fde38b60e01b81526001600160a01b0386169063f2fde38b9061170f903390600401613008565b600060405180830381600087803b15801561172957600080fd5b505af115801561173d573d6000803e3d6000fd5b5050606e54604051633de30b1160e01b81526001600160a01b039091169250633de30b119150611773908890339060040161301c565b600060405180830381600087803b15801561178d57600080fd5b505af11580156117a1573d6000803e3d6000fd5b5050606e54604051633de30b1160e01b81526001600160a01b039091169250633de30b1191506117d7908790339060040161301c565b600060405180830381600087803b1580156117f157600080fd5b505af1158015611805573d6000803e3d6000fd5b505050506066859080600181540180825580915050600190039060005260206000200160009091909190916101000a8154816001600160a01b0302191690836001600160a01b03160217905550600160746000876001600160a01b03166001600160a01b0316815260200190815260200160002060006101000a81548160ff02191690831515021790555087604001516001600160a01b031688602001516001600160a01b0316866001600160a01b03167fe09579a2e0d14b26e473e66077035a249d8c8d69795226def2855ab23bff78898b600001518e600001518f602001516040516118f5939291906135f1565b60405180910390a450929998505050505050505050565b600054610100900460ff1680611925575061192561232c565b80611933575060005460ff16155b61196e5760405162461bcd60e51b815260040180806020018281038252602e8152602001806136db602e913960400191505060405180910390fd5b600054610100900460ff16158015611999576000805460ff1961ff0019909116610100171660011790555b6119a161233d565b606d80546001600160a01b03199081166001600160a01b038e8116919091179092556065805482168d8416179055606e805482168c8416179055606c805482168b84161790556075805482168a841617905560408701516070805483169184169182179055606f805483168a85161790558751607180548416918516919091179055602088015160728054841691909416179092556073805490911690911790556067849055606883905560698290558015611a63576000805461ff00191690555b5050505050505050505050565b606a6020526000908152604090205481565b611a8a6121b5565b6001600160a01b0316611a9b6111cd565b6001600160a01b031614611ae4576040805162461bcd60e51b81526020600482018190526024820152600080516020613709833981519152604482015290519081900360640190fd5b6067548110611b055760405162461bcd60e51b815260040161059090613336565b6001600160a01b039091166000908152606b60209081526040808320805460ff19166001179055606a909152902055565b606d546001600160a01b031681565b826001600160a01b031663ebe2b12b6040518163ffffffff1660e01b815260040160206040518083038186803b158015611b7e57600080fd5b505afa158015611b92573d6000803e3d6000fd5b505050506040513d601f19601f82011682018060405250810190611bb69190612ec6565b611bd25760405162461bcd60e51b81526004016105909061327c565b826001600160a01b031663ebe2b12b6040518163ffffffff1660e01b815260040160206040518083038186803b158015611c0b57600080fd5b505afa158015611c1f573d6000803e3d6000fd5b505050506040513d601f19601f82011682018060405250810190611c439190612ec6565b42116108fc5760405162461bcd60e51b8152600401610590906132d9565b60675481565b611c6f6121b5565b6001600160a01b0316611c806111cd565b6001600160a01b031614611cc9576040805162461bcd60e51b81526020600482018190526024820152600080516020613709833981519152604482015290519081900360640190fd5b6001600160a01b038116611d0e5760405162461bcd60e51b81526004018080602001828103825260268152602001806136b56026913960400191505060405180910390fd5b6033546040516001600160a01b0380841692169060008051602061372983398151915290600090a3603380546001600160a01b0319166001600160a01b0392909216919091179055565b6071546072546073546001600160a01b0392831692918216911683565b803b15155b919050565b604080516001600160a01b038416602482015260448082018490528251808303909101815260649091019091526020810180516001600160e01b031663a9059cbb60e01b1790526106c89084906123ef565b6000816001600160a01b031683604051611dea90613005565b60006040518083038185875af1925050503d8060008114611e27576040519150601f19603f3d011682016040523d82523d6000602084013e611e2c565b606091505b5090949350505050565b6000826001600160a01b031663c4f59f9b6040518163ffffffff1660e01b815260040160006040518083038186803b158015611e7157600080fd5b505afa158015611e85573d6000803e3d6000fd5b505050506040513d6000823e601f3d908101601f19168201604052611ead9190810190612bca565b90508051825114611ed05760405162461bcd60e51b8152600401610590906133cb565b6000836001600160a01b0316638da5cb5b6040518163ffffffff1660e01b815260040160206040518083038186803b158015611f0b57600080fd5b505afa158015611f1f573d6000803e3d6000fd5b505050506040513d601f19601f82011682018060405250810190611f4391906129d3565b90506000846001600160a01b031663481c6a756040518163ffffffff1660e01b815260040160206040518083038186803b158015611f8057600080fd5b505afa158015611f94573d6000803e3d6000fd5b505050506040513d601f19601f82011682018060405250810190611fb891906129d3565b9050336001600160a01b0383161480611fd95750336001600160a01b038216145b611ff55760405162461bcd60e51b8152600401610590906134fb565b60005b83518110156120f857600084828151811061200f57fe5b60200260200101519050600061204360685488858151811061202d57fe5b60200260200101516124a090919063ffffffff16565b9050600087848151811061205357fe5b602090810291909101015190506120756001600160a01b0384163330856122cc565b61208a6001600160a01b038416338b846122cc565b604051631e2d9fa560e21b81526001600160a01b038a16906378b67e94906120b8908490879060040161361b565b600060405180830381600087803b1580156120d257600080fd5b505af11580156120e6573d6000803e3d6000fd5b50505050505050806001019050611ff8565b50846001600160a01b03167fa38cb4a152f8c33a9b270fdbb25826d93b8f4f2bbad5c6d033f27e9304bd626a8486886001600160a01b031663386a95256040518163ffffffff1660e01b815260040160206040518083038186803b15801561215f57600080fd5b505afa158015612173573d6000803e3d6000fd5b505050506040513d601f19601f820116820180604052508101906121979190612ec6565b6040516121a6939291906130ca565b60405180910390a25050505050565b3390565b80158061223f575060408051636eb1769f60e11b81523060048201526001600160a01b03848116602483015291519185169163dd62ed3e91604480820192602092909190829003018186803b15801561221157600080fd5b505afa158015612225573d6000803e3d6000fd5b505050506040513d602081101561223b57600080fd5b5051155b61227a5760405162461bcd60e51b81526004018080602001828103825260368152602001806137736036913960400191505060405180910390fd5b604080516001600160a01b038416602482015260448082018490528251808303909101815260649091019091526020810180516001600160e01b031663095ea7b360e01b1790526106c89084906123ef565b604080516001600160a01b0380861660248301528416604482015260648082018490528251808303909101815260849091019091526020810180516001600160e01b03166323b872dd60e01b1790526123269085906123ef565b50505050565b600061233730611d75565b15905090565b600054610100900460ff1680612356575061235661232c565b80612364575060005460ff16155b61239f5760405162461bcd60e51b815260040180806020018281038252602e8152602001806136db602e913960400191505060405180910390fd5b600054610100900460ff161580156123ca576000805460ff1961ff0019909116610100171660011790555b6123d2612507565b6123da6125a7565b80156123ec576000805461ff00191690555b50565b6000612444826040518060400160405280602081526020017f5361666545524332303a206c6f772d6c6576656c2063616c6c206661696c6564815250856001600160a01b031661268e9092919063ffffffff16565b8051909150156106c85780806020019051602081101561246357600080fd5b50516106c85760405162461bcd60e51b815260040180806020018281038252602a815260200180613749602a913960400191505060405180910390fd5b60008082116124f6576040805162461bcd60e51b815260206004820152601a60248201527f536166654d6174683a206469766973696f6e206279207a65726f000000000000604482015290519081900360640190fd5b8183816124ff57fe5b049392505050565b600054610100900460ff1680612520575061252061232c565b8061252e575060005460ff16155b6125695760405162461bcd60e51b815260040180806020018281038252602e8152602001806136db602e913960400191505060405180910390fd5b600054610100900460ff161580156123da576000805460ff1961ff00199091166101001716600117905580156123ec576000805461ff001916905550565b600054610100900460ff16806125c057506125c061232c565b806125ce575060005460ff16155b6126095760405162461bcd60e51b815260040180806020018281038252602e8152602001806136db602e913960400191505060405180910390fd5b600054610100900460ff16158015612634576000805460ff1961ff0019909116610100171660011790555b600061263e6121b5565b603380546001600160a01b0319166001600160a01b03831690811790915560405191925090600090600080516020613729833981519152908290a35080156123ec576000805461ff001916905550565b60606107538484600085856126a285611d75565b6126f3576040805162461bcd60e51b815260206004820152601d60248201527f416464726573733a2063616c6c20746f206e6f6e2d636f6e7472616374000000604482015290519081900360640190fd5b600080866001600160a01b031685876040518082805190602001908083835b602083106127315780518252601f199092019160209182019101612712565b6001836020036101000a03801982511681845116808217855250505050505090500191505060006040518083038185875af1925050503d8060008114612793576040519150601f19603f3d011682016040523d82523d6000602084013e612798565b606091505b50915091506127a88282866127b3565b979650505050505050565b606083156127c2575081610756565b8251156127d25782518084602001fd5b8160405162461bcd60e51b81526004018080602001828103825283818151815260200191508051906020019080838360005b8381101561281c578181015183820152602001612804565b50505050905090810190601f1680156128495780820380516001836020036101000a031916815260200191505b509250505060405180910390fd5b8035600281900b8114611d7a57600080fd5b600082601f830112612879578081fd5b81356001600160401b0381111561288c57fe5b61289f601f8201601f191660200161365f565b8181528460208386010111156128b3578283fd5b816020850160208301379081016020019190915292915050565b600060a082840312156128de578081fd5b60405160a081018181106001600160401b03821117156128fa57fe5b604052905080612909836129a4565b815260208301356129198161369f565b6020820152604083013561292c8161369f565b8060408301525060608301356060820152608083013560808201525092915050565b60006040828403121561295f578081fd5b604051604081018181106001600160401b038211171561297b57fe5b60405290508061298a83612857565b815261299860208401612857565b60208201525092915050565b803562ffffff81168114611d7a57600080fd5b6000602082840312156129c8578081fd5b81356107568161369f565b6000602082840312156129e4578081fd5b81516107568161369f565b6000806000806000806000806000808a8c03610180811215612a0f578687fd5b8b35612a1a8161369f565b9a5060208c0135612a2a8161369f565b995060408c0135612a3a8161369f565b985060608c0135612a4a8161369f565b975060808c0135612a5a8161369f565b965060a08c0135612a6a8161369f565b9550606060bf1982011215612a7d578485fd5b50604051606081018181106001600160401b0382111715612a9a57fe5b60405260c08c0135612aab8161369f565b815260e08c0135612abb8161369f565b60208201526101008c0135612acf8161369f565b6040820152999c989b5096999598949793965093946101208101359450610140810135936101609091013592509050565b600080600060608486031215612b14578081fd5b8335612b1f8161369f565b92506020840135612b2f8161369f565b9150612b3d604085016129a4565b90509250925092565b60008060008060808587031215612b5b578182fd5b8435612b668161369f565b93506020850135612b768161369f565b9250612b84604086016129a4565b91506060850135612b948161369f565b939692955090935050565b60008060408385031215612bb1578182fd5b8235612bbc8161369f565b946020939093013593505050565b60006020808385031215612bdc578182fd5b82516001600160401b03811115612bf1578283fd5b8301601f81018513612c01578283fd5b8051612c14612c0f82613682565b61365f565b8181528381019083850185840285018601891015612c30578687fd5b8694505b83851015612c5b578051612c478161369f565b835260019490940193918501918501612c34565b50979650505050505050565b600060208284031215612c78578081fd5b81518015158114610756578182fd5b600080600060608486031215612c9b578081fd5b8335612ca68161369f565b92506020848101356001600160401b03811115612cc1578283fd5b8501601f81018713612cd1578283fd5b8035612cdf612c0f82613682565b81815283810190838501858402850186018b1015612cfb578687fd5b8694505b83851015612d1d578035835260019490940193918501918501612cff565b5096999698505050506040949094013593505050565b60008060006101008486031215612d48578081fd5b83356001600160401b03811115612d5d578182fd5b612d6986828701612869565b935050612d79856020860161294e565b9150612b3d85606086016128cd565b6000806000806101208587031215612d9e578182fd5b84356001600160401b0380821115612db4578384fd5b612dc088838901612869565b955060209150612dd28883890161294e565b9450606087013581811115612de5578485fd5b87016040818a031215612df6578485fd5b604051604081018181108482111715612e0b57fe5b604052813583811115612e1c578687fd5b82019250601f83018a13612e2e578586fd5b8235612e3c612c0f82613682565b81815285810190858701878402870188018e1015612e5857898afd5b8996505b83871015612e83578035612e6f8161369f565b835260019690960195918701918701612e5c565b50835250509083013592810192909252509150612ea386608087016128cd565b905092959194509250565b600060208284031215612ebf578081fd5b5035919050565b600060208284031215612ed7578081fd5b5051919050565b60008060408385031215612ef0578182fd5b505080516020909101519092909150565b6001600160a01b03169052565b6000815180845260208085019450808401835b83811015612f465781516001600160a01b031687529582019590820190600101612f21565b509495945050505050565b60008151808452815b81811015612f7657602081850181015186830182015201612f5a565b81811115612f875782602083870101525b50601f01601f19169290920160200192915050565b6000815160608452612fb16060850182612f0e565b6020848101516001600160a01b031690860152604093840151151593909401929092525090919050565b80546001600160a01b03908116835260018201548116602084015260029091015416604090910152565b90565b6001600160a01b0391909116815260200190565b6001600160a01b0392831681529116602082015260400190565b6001600160a01b0393841681529183166020830152909116604082015260600190565b6001600160a01b03938416815291909216602082015262ffffff909116604082015260600190565b6001600160a01b039485168152928416602084015262ffffff919091166040830152909116606082015260800190565b6001600160a01b03929092168252602082015260400190565b6000606082526130dd6060830186612f0e565b828103602084810191909152855180835286820192820190845b81811015613113578451835293830193918301916001016130f7565b5050809350505050826040830152949350505050565b901515815260200190565b60006101808083526131488184018e612f51565b9150508a60020b60208301528960020b604083015262ffffff8916606083015287608083015260018060a01b0380881660a084015280871660c084015280861660e0840152808516610100840152808451166101208401528060208501511661014084015280604085015116610160840152509b9a5050505050505050505050565b60006101c082526131df6101c083018f612f51565b60028e810b60208501528d900b604084015262ffffff8c166060840152608083018b90526001600160a01b038a1660a084015261321f60c084018a612f01565b61322c60e0840189612f01565b61323a610100840188612f01565b613248610120840187612f01565b613256610140840186612fdb565b8281036101a08401526132698185612f9c565b9f9e505050505050505050505050505050565b6020808252603e908201527f46697273742070726f6772616d206d75737420626520696e697469616c697a6560408201527f64207573696e6720696e6974696174655265776172647350726f6772616d0000606082015260800190565b6020808252603a908201527f50726576696f75732070726f6772616d206d7573742066696e6973682062656660408201527f6f726520696e697469616c697a696e672061206e6577206f6e65000000000000606082015260800190565b60208082526032908201527f437573746f6d206665652073686f756c64206265206c657373207468616e20666040820152716c6174206465706c6f796d656e742066656560701b606082015260800190565b60208082526023908201527f43616c6c61626c65206f6e6c7920627920526576656e756520436f6e74726f6c6040820152623632b960e91b606082015260800190565b60208082526044908201527f546f74616c2072657761726420616d6f756e747320636f756e742073686f756c60408201527f64206265207468652073616d652061732072657761726420746f6b656e7320636060820152631bdd5b9d60e21b608082015260a00190565b6020808252600c908201526b139bdd0810d314881c1bdbdb60a21b604082015260600190565b60208082526028908201527f4e65656420746f2073656e642045544820666f7220434c5220706f6f6c2064656040820152671c1b1bde5b595b9d60c21b606082015260800190565b600060808252600e60808301526d29ba30b5b2b221a6292a37b5b2b760911b60a083015260c060208301526134db60c0830186612f51565b6001600160a01b0394909416604083015250901515606090910152919050565b60208082526036908201527f4f6e6c79206f776e6572206f72206d616e616765722063616e20696e6974696160408201527574652074686520726577617264732070726f6772616d60501b606082015260800190565b60208082526021908201527f5265776172642070726f6772616d20686173206265656e20696e6974696174656040820152601960fa1b606082015260800190565b6020808252602f908201527f4e65656420746f2073656e642045544820666f72206e6f6e207265776172642060408201526e1c1bdbdb0819195c1b1bde5b595b9d608a1b606082015260800190565b62ffffff91909116815260200190565b62ffffff939093168352600291820b6020840152900b604082015260600190565b90815260200190565b9182526001600160a01b0316602082015260400190565b918252602082015260400190565b92835260208301919091526001600160a01b0316604082015260600190565b6040518181016001600160401b038111828210171561367a57fe5b604052919050565b60006001600160401b0382111561369557fe5b5060209081020190565b6001600160a01b03811681146123ec57600080fdfe4f776e61626c653a206e6577206f776e657220697320746865207a65726f2061646472657373496e697469616c697a61626c653a20636f6e747261637420697320616c726561647920696e697469616c697a65644f776e61626c653a2063616c6c6572206973206e6f7420746865206f776e65728be0079c531659141344cd1fd0a4f28419497f9722a3daafe3b4186f6b6457e05361666545524332303a204552433230206f7065726174696f6e20646964206e6f7420737563636565645361666545524332303a20617070726f76652066726f6d206e6f6e2d7a65726f20746f206e6f6e2d7a65726f20616c6c6f77616e6365a2646970667358221220714adf563683bc287cc78fc2e2ef6829da8d48aedd46baf6bff64ca7d777d47864736f6c63430007060033496e697469616c697a61626c653a20636f6e747261637420697320616c726561647920696e697469616c697a6564",
  "linkReferences": {},
  "deployedLinkReferences": {}
}