{
  "_format": "hh-sol-artifact-1",
  "contractName": "CLRDeployer",
  "sourceName": "contracts/CLRDeployer.sol",
  "abi": [
    {
      "inputs": [
        {
          "internalType": "address",
          "name": "_clrImplementation",
          "type": "address"
        },
        {
          "internalType": "address",
          "name": "_sclrTokenImplementation",
          "type": "address"
        }
      ],
      "stateMutability": "nonpayable",
      "type": "constructor"
    },
    {
      "anonymous": false,
      "inputs": [
        {
          "indexed": true,
          "internalType": "address",
          "name": "clrImplementation",
          "type": "address"
        }
      ],
      "name": "CLRImplementationSet",
      "type": "event"
    },
    {
      "anonymous": false,
      "inputs": [
        {
          "indexed": true,
          "internalType": "address",
          "name": "sCLRTokenImplementation",
          "type": "address"
        }
      ],
      "name": "CLRTokenImplementationSet",
      "type": "event"
    },
    {
      "anonymous": false,
      "inputs": [
        {
          "indexed": true,
          "internalType": "address",
          "name": "previousOwner",
          "type": "address"
        },
        {
          "indexed": true,
          "internalType": "address",
          "name": "newOwner",
          "type": "address"
        }
      ],
      "name": "OwnershipTransferred",
      "type": "event"
    },
    {
      "inputs": [],
      "name": "clrImplementation",
      "outputs": [
        {
          "internalType": "address",
          "name": "",
          "type": "address"
        }
      ],
      "stateMutability": "view",
      "type": "function"
    },
    {
      "inputs": [
        {
          "internalType": "address",
          "name": "_proxyAdmin",
          "type": "address"
        }
      ],
      "name": "deployCLRPool",
      "outputs": [
        {
          "internalType": "address",
          "name": "pool",
          "type": "address"
        }
      ],
      "stateMutability": "nonpayable",
      "type": "function"
    },
    {
      "inputs": [
        {
          "internalType": "address",
          "name": "_proxyAdmin",
          "type": "address"
        }
      ],
      "name": "deploySCLRToken",
      "outputs": [
        {
          "internalType": "address",
          "name": "token",
          "type": "address"
        }
      ],
      "stateMutability": "nonpayable",
      "type": "function"
    },
    {
      "inputs": [],
      "name": "owner",
      "outputs": [
        {
          "internalType": "address",
          "name": "",
          "type": "address"
        }
      ],
      "stateMutability": "view",
      "type": "function"
    },
    {
      "inputs": [],
      "name": "renounceOwnership",
      "outputs": [],
      "stateMutability": "nonpayable",
      "type": "function"
    },
    {
      "inputs": [],
      "name": "sCLRTokenImplementation",
      "outputs": [
        {
          "internalType": "address",
          "name": "",
          "type": "address"
        }
      ],
      "stateMutability": "view",
      "type": "function"
    },
    {
      "inputs": [
        {
          "internalType": "address",
          "name": "_clrImplementation",
          "type": "address"
        }
      ],
      "name": "setCLRImplementation",
      "outputs": [],
      "stateMutability": "nonpayable",
      "type": "function"
    },
    {
      "inputs": [
        {
          "internalType": "address",
          "name": "_sCLRTokenImplementation",
          "type": "address"
        }
      ],
      "name": "setsCLRTokenImplementation",
      "outputs": [],
      "stateMutability": "nonpayable",
      "type": "function"
    },
    {
      "inputs": [
        {
          "internalType": "address",
          "name": "newOwner",
          "type": "address"
        }
      ],
      "name": "transferOwnership",
      "outputs": [],
      "stateMutability": "nonpayable",
      "type": "function"
    }
  ],
  "bytecode": "0x608060405234801561001057600080fd5b506040516123033803806123038339818101604052604081101561003357600080fd5b5080516020909101516000610046610122565b600080546001600160a01b0319166001600160a01b0383169081178255604051929350917f8be0079c531659141344cd1fd0a4f28419497f9722a3daafe3b4186f6b6457e0908290a350600180546001600160a01b038085166001600160a01b0319928316811790935560028054918516919092161790556040517fe02da45e627adefba2fa7a10d306a6a1f3a5f1700b4ef8be0a4a87846810744390600090a26040516001600160a01b038216907f81b1c2a410f5dc1fc2cbfa33a5ccb539d3fea02ddcbbb5211b6449a9132fc94a90600090a25050610126565b3390565b6121ce806101356000396000f3fe608060405234801561001057600080fd5b50600436106100835760003560e01c80633c256f5914610088578063432c3c2f146100ac57806352817ce4146100d2578063715018a6146100da5780638da5cb5b146100e4578063bd1b562c146100ec578063d972666714610112578063e9a9821014610138578063f2fde38b1461015e575b600080fd5b610090610184565b604080516001600160a01b039092168252519081900360200190f35b610090600480360360208110156100c257600080fd5b50356001600160a01b0316610193565b610090610201565b6100e2610210565b005b6100906102bd565b6100e26004803603602081101561010257600080fd5b50356001600160a01b03166102cc565b6100e26004803603602081101561012857600080fd5b50356001600160a01b0316610379565b6100906004803603602081101561014e57600080fd5b50356001600160a01b0316610426565b6100e26004803603602081101561017457600080fd5b50356001600160a01b031661044d565b6001546001600160a01b031681565b600080600160009054906101000a90046001600160a01b031683306040516101ba90610555565b6001600160a01b03938416815291831660208301529091166040808301919091525190819003606001906000f0801580156101f9573d6000803e3d6000fd5b509392505050565b6002546001600160a01b031681565b610218610551565b6001600160a01b03166102296102bd565b6001600160a01b031614610273576040805162461bcd60e51b8152602060048201819052602482015260008051602062002179833981519152604482015290519081900360640190fd5b600080546040516001600160a01b03909116907f8be0079c531659141344cd1fd0a4f28419497f9722a3daafe3b4186f6b6457e0908390a3600080546001600160a01b0319169055565b6000546001600160a01b031690565b6102d4610551565b6001600160a01b03166102e56102bd565b6001600160a01b03161461032f576040805162461bcd60e51b8152602060048201819052602482015260008051602062002179833981519152604482015290519081900360640190fd5b600180546001600160a01b0319166001600160a01b0383169081179091556040517fe02da45e627adefba2fa7a10d306a6a1f3a5f1700b4ef8be0a4a87846810744390600090a250565b610381610551565b6001600160a01b03166103926102bd565b6001600160a01b0316146103dc576040805162461bcd60e51b8152602060048201819052602482015260008051602062002179833981519152604482015290519081900360640190fd5b600280546001600160a01b0319166001600160a01b0383169081179091556040517f81b1c2a410f5dc1fc2cbfa33a5ccb539d3fea02ddcbbb5211b6449a9132fc94a90600090a250565b600080600260009054906101000a90046001600160a01b031683306040516101ba90610563565b610455610551565b6001600160a01b03166104666102bd565b6001600160a01b0316146104b0576040805162461bcd60e51b8152602060048201819052602482015260008051602062002179833981519152604482015290519081900360640190fd5b6001600160a01b0381166104f65760405162461bcd60e51b8152600401808060200182810382526026815260200180620021536026913960400191505060405180910390fd5b600080546040516001600160a01b03808516939216917f8be0079c531659141344cd1fd0a4f28419497f9722a3daafe3b4186f6b6457e091a3600080546001600160a01b0319166001600160a01b0392909216919091179055565b3390565b610dea806200057283390190565b610df7806200135c8339019056fe60806040523480156200001157600080fd5b5060405162000dea38038062000dea833981810160405260608110156200003757600080fd5b5080516020808301516040938401518451928301909452600082529192908390839082816200006682620000b9565b80511562000087576200008582826200013060201b620004fa1760201c565b505b50620000909050565b6200009b826200015f565b50620000a5915050565b620000b08162000183565b50505062000364565b620000cf81620001a760201b620005261760201c565b6200010c5760405162461bcd60e51b815260040180806020018281038252603681526020018062000d8e6036913960400191505060405180910390fd5b7f360894a13ba1a3210667c828492db98dca3e2076cc3735a920a3ca505d382bbc55565b606062000158838360405180606001604052806027815260200162000d6760279139620001ad565b9392505050565b7fb53127684a568b3173ae13b9f8a6016e243e63b6e8ee1178d6a717850b5d610355565b7f3d08d612cd86aed0e9677508733085e4cbe15d53bdc770ec5b581bb4e0a721ca55565b3b151590565b6060620001ba84620001a7565b620001f75760405162461bcd60e51b815260040180806020018281038252602681526020018062000dc46026913960400191505060405180910390fd5b600080856001600160a01b0316856040518082805190602001908083835b60208310620002365780518252601f19909201916020918201910162000215565b6001836020036101000a038019825116818451168082178552505050505050905001915050600060405180830381855af49150503d806000811462000298576040519150601f19603f3d011682016040523d82523d6000602084013e6200029d565b606091505b509092509050620002b0828286620002ba565b9695505050505050565b60608315620002cb57508162000158565b825115620002dc5782518084602001fd5b8160405162461bcd60e51b81526004018080602001828103825283818151815260200191508051906020019080838360005b83811015620003285781810151838201526020016200030e565b50505050905090810190601f168015620003565780820380516001836020036101000a031916815260200191505b509250505060405180910390fd5b6109f380620003746000396000f3fe60806040526004361061004e5760003560e01c80633659cfe6146100655780634f1ef286146100985780635c60da1b146101185780638f28397014610149578063f851a4401461017c5761005d565b3661005d5761005b610191565b005b61005b610191565b34801561007157600080fd5b5061005b6004803603602081101561008857600080fd5b50356001600160a01b03166101ab565b61005b600480360360408110156100ae57600080fd5b6001600160a01b0382351691908101906040810160208201356401000000008111156100d957600080fd5b8201836020820111156100eb57600080fd5b8035906020019184600183028401116401000000008311171561010d57600080fd5b5090925090506102a0565b34801561012457600080fd5b5061012d6103d8565b604080516001600160a01b039092168252519081900360200190f35b34801561015557600080fd5b5061005b6004803603602081101561016c57600080fd5b50356001600160a01b0316610415565b34801561018857600080fd5b5061012d6104cf565b61019961052c565b6101a96101a461058c565b6105b1565b565b6101b36105d5565b6001600160a01b0316336001600160a01b0316141561029557806001600160a01b03166101de6105fa565b6001600160a01b0316633c256f596040518163ffffffff1660e01b815260040160206040518083038186803b15801561021657600080fd5b505afa15801561022a573d6000803e3d6000fd5b505050506040513d602081101561024057600080fd5b50516001600160a01b0316146102875760405162461bcd60e51b815260040180806020018281038252602d81526020018061094f602d913960400191505060405180910390fd5b6102908161061f565b61029d565b61029d610191565b50565b6102a86105d5565b6001600160a01b0316336001600160a01b031614156103cb57826001600160a01b03166102d36105fa565b6001600160a01b0316633c256f596040518163ffffffff1660e01b815260040160206040518083038186803b15801561030b57600080fd5b505afa15801561031f573d6000803e3d6000fd5b505050506040513d602081101561033557600080fd5b50516001600160a01b03161461037c5760405162461bcd60e51b815260040180806020018281038252602d81526020018061094f602d913960400191505060405180910390fd5b6103858361061f565b6103c58383838080601f0160208091040260200160405190810160405280939291908181526020018383808284376000920191909152506104fa92505050565b506103d3565b6103d3610191565b505050565b60006103e26105d5565b6001600160a01b0316336001600160a01b0316141561040a5761040361058c565b9050610412565b610412610191565b90565b61041d6105d5565b6001600160a01b0316336001600160a01b03161415610295576001600160a01b03811661047b5760405162461bcd60e51b815260040180806020018281038252603a815260200180610892603a913960400191505060405180910390fd5b7f7e644d79422f17c01e4894b5f4f588d331ebfa28653d42ae832dc59e38c9798f6104a46105d5565b604080516001600160a01b03928316815291841660208301528051918290030190a16102908161065f565b60006104d96105d5565b6001600160a01b0316336001600160a01b0316141561040a576104036105d5565b606061051f83836040518060600160405280602781526020016108cc60279139610683565b9392505050565b3b151590565b6105346105d5565b6001600160a01b0316336001600160a01b031614156105845760405162461bcd60e51b815260040180806020018281038252604281526020018061097c6042913960600191505060405180910390fd5b6101a96101a9565b7f360894a13ba1a3210667c828492db98dca3e2076cc3735a920a3ca505d382bbc5490565b3660008037600080366000845af43d6000803e8080156105d0573d6000f35b3d6000fd5b7fb53127684a568b3173ae13b9f8a6016e243e63b6e8ee1178d6a717850b5d61035490565b7f3d08d612cd86aed0e9677508733085e4cbe15d53bdc770ec5b581bb4e0a721ca5490565b61062881610785565b6040516001600160a01b038216907fbc7cd75a20ee27fd9adebab32041f755214dbc6bffa90cc0225b39da2e5c2d3b90600090a250565b7fb53127684a568b3173ae13b9f8a6016e243e63b6e8ee1178d6a717850b5d610355565b606061068e84610526565b6106c95760405162461bcd60e51b81526004018080602001828103825260268152602001806109296026913960400191505060405180910390fd5b600080856001600160a01b0316856040518082805190602001908083835b602083106107065780518252601f1990920191602091820191016106e7565b6001836020036101000a038019825116818451168082178552505050505050905001915050600060405180830381855af49150503d8060008114610766576040519150601f19603f3d011682016040523d82523d6000602084013e61076b565b606091505b509150915061077b8282866107ed565b9695505050505050565b61078e81610526565b6107c95760405162461bcd60e51b81526004018080602001828103825260368152602001806108f36036913960400191505060405180910390fd5b7f360894a13ba1a3210667c828492db98dca3e2076cc3735a920a3ca505d382bbc55565b606083156107fc57508161051f565b82511561080c5782518084602001fd5b8160405162461bcd60e51b81526004018080602001828103825283818151815260200191508051906020019080838360005b8381101561085657818101518382015260200161083e565b50505050905090810190601f1680156108835780820380516001836020036101000a031916815260200191505b509250505060405180910390fdfe5472616e73706172656e745570677261646561626c6550726f78793a206e65772061646d696e20697320746865207a65726f2061646472657373416464726573733a206c6f772d6c6576656c2064656c65676174652063616c6c206661696c65645570677261646561626c6550726f78793a206e657720696d706c656d656e746174696f6e206973206e6f74206120636f6e7472616374416464726573733a2064656c65676174652063616c6c20746f206e6f6e2d636f6e747261637443616e206f6e6c79207570677261646520746f206c617465737420434c5220696d706c656d656e746174696f6e5472616e73706172656e745570677261646561626c6550726f78793a2061646d696e2063616e6e6f742066616c6c6261636b20746f2070726f787920746172676574a26469706673582212205ee6447bde80fdabd76015d4140cf13211895b6ff42fd2c7b5aa0b3d8ce46d9164736f6c63430007060033416464726573733a206c6f772d6c6576656c2064656c65676174652063616c6c206661696c65645570677261646561626c6550726f78793a206e657720696d706c656d656e746174696f6e206973206e6f74206120636f6e7472616374416464726573733a2064656c65676174652063616c6c20746f206e6f6e2d636f6e747261637460806040523480156200001157600080fd5b5060405162000df738038062000df7833981810160405260608110156200003757600080fd5b5080516020808301516040938401518451928301909452600082529192908390839082816200006682620000b9565b80511562000087576200008582826200013060201b620004fa1760201c565b505b50620000909050565b6200009b826200015f565b50620000a5915050565b620000b08162000183565b50505062000364565b620000cf81620001a760201b620005261760201c565b6200010c5760405162461bcd60e51b815260040180806020018281038252603681526020018062000d9b6036913960400191505060405180910390fd5b7f360894a13ba1a3210667c828492db98dca3e2076cc3735a920a3ca505d382bbc55565b606062000158838360405180606001604052806027815260200162000d7460279139620001ad565b9392505050565b7fb53127684a568b3173ae13b9f8a6016e243e63b6e8ee1178d6a717850b5d610355565b7f3d08d612cd86aed0e9677508733085e4cbe15d53bdc770ec5b581bb4e0a721ca55565b3b151590565b6060620001ba84620001a7565b620001f75760405162461bcd60e51b815260040180806020018281038252602681526020018062000dd16026913960400191505060405180910390fd5b600080856001600160a01b0316856040518082805190602001908083835b60208310620002365780518252601f19909201916020918201910162000215565b6001836020036101000a038019825116818451168082178552505050505050905001915050600060405180830381855af49150503d806000811462000298576040519150601f19603f3d011682016040523d82523d6000602084013e6200029d565b606091505b509092509050620002b0828286620002ba565b9695505050505050565b60608315620002cb57508162000158565b825115620002dc5782518084602001fd5b8160405162461bcd60e51b81526004018080602001828103825283818151815260200191508051906020019080838360005b83811015620003285781810151838201526020016200030e565b50505050905090810190601f168015620003565780820380516001836020036101000a031916815260200191505b509250505060405180910390fd5b610a0080620003746000396000f3fe60806040526004361061004e5760003560e01c80633659cfe6146100655780634f1ef286146100985780635c60da1b146101185780638f28397014610149578063f851a4401461017c5761005d565b3661005d5761005b610191565b005b61005b610191565b34801561007157600080fd5b5061005b6004803603602081101561008857600080fd5b50356001600160a01b03166101ab565b61005b600480360360408110156100ae57600080fd5b6001600160a01b0382351691908101906040810160208201356401000000008111156100d957600080fd5b8201836020820111156100eb57600080fd5b8035906020019184600183028401116401000000008311171561010d57600080fd5b5090925090506102a0565b34801561012457600080fd5b5061012d6103d8565b604080516001600160a01b039092168252519081900360200190f35b34801561015557600080fd5b5061005b6004803603602081101561016c57600080fd5b50356001600160a01b0316610415565b34801561018857600080fd5b5061012d6104cf565b61019961052c565b6101a96101a461058c565b6105b1565b565b6101b36105d5565b6001600160a01b0316336001600160a01b0316141561029557806001600160a01b03166101de6105fa565b6001600160a01b03166352817ce46040518163ffffffff1660e01b815260040160206040518083038186803b15801561021657600080fd5b505afa15801561022a573d6000803e3d6000fd5b505050506040513d602081101561024057600080fd5b50516001600160a01b0316146102875760405162461bcd60e51b815260040180806020018281038252603a815260200180610892603a913960400191505060405180910390fd5b6102908161061f565b61029d565b61029d610191565b50565b6102a86105d5565b6001600160a01b0316336001600160a01b031614156103cb57826001600160a01b03166102d36105fa565b6001600160a01b03166352817ce46040518163ffffffff1660e01b815260040160206040518083038186803b15801561030b57600080fd5b505afa15801561031f573d6000803e3d6000fd5b505050506040513d602081101561033557600080fd5b50516001600160a01b03161461037c5760405162461bcd60e51b815260040180806020018281038252603a815260200180610892603a913960400191505060405180910390fd5b6103858361061f565b6103c58383838080601f0160208091040260200160405190810160405280939291908181526020018383808284376000920191909152506104fa92505050565b506103d3565b6103d3610191565b505050565b60006103e26105d5565b6001600160a01b0316336001600160a01b0316141561040a5761040361058c565b9050610412565b610412610191565b90565b61041d6105d5565b6001600160a01b0316336001600160a01b03161415610295576001600160a01b03811661047b5760405162461bcd60e51b815260040180806020018281038252603a8152602001806108cc603a913960400191505060405180910390fd5b7f7e644d79422f17c01e4894b5f4f588d331ebfa28653d42ae832dc59e38c9798f6104a46105d5565b604080516001600160a01b03928316815291841660208301528051918290030190a16102908161065f565b60006104d96105d5565b6001600160a01b0316336001600160a01b0316141561040a576104036105d5565b606061051f838360405180606001604052806027815260200161090660279139610683565b9392505050565b3b151590565b6105346105d5565b6001600160a01b0316336001600160a01b031614156105845760405162461bcd60e51b81526004018080602001828103825260428152602001806109896042913960600191505060405180910390fd5b6101a96101a9565b7f360894a13ba1a3210667c828492db98dca3e2076cc3735a920a3ca505d382bbc5490565b3660008037600080366000845af43d6000803e8080156105d0573d6000f35b3d6000fd5b7fb53127684a568b3173ae13b9f8a6016e243e63b6e8ee1178d6a717850b5d61035490565b7f3d08d612cd86aed0e9677508733085e4cbe15d53bdc770ec5b581bb4e0a721ca5490565b61062881610785565b6040516001600160a01b038216907fbc7cd75a20ee27fd9adebab32041f755214dbc6bffa90cc0225b39da2e5c2d3b90600090a250565b7fb53127684a568b3173ae13b9f8a6016e243e63b6e8ee1178d6a717850b5d610355565b606061068e84610526565b6106c95760405162461bcd60e51b81526004018080602001828103825260268152602001806109636026913960400191505060405180910390fd5b600080856001600160a01b0316856040518082805190602001908083835b602083106107065780518252601f1990920191602091820191016106e7565b6001836020036101000a038019825116818451168082178552505050505050905001915050600060405180830381855af49150503d8060008114610766576040519150601f19603f3d011682016040523d82523d6000602084013e61076b565b606091505b509150915061077b8282866107ed565b9695505050505050565b61078e81610526565b6107c95760405162461bcd60e51b815260040180806020018281038252603681526020018061092d6036913960400191505060405180910390fd5b7f360894a13ba1a3210667c828492db98dca3e2076cc3735a920a3ca505d382bbc55565b606083156107fc57508161051f565b82511561080c5782518084602001fd5b8160405162461bcd60e51b81526004018080602001828103825283818151815260200191508051906020019080838360005b8381101561085657818101518382015260200161083e565b50505050905090810190601f1680156108835780820380516001836020036101000a031916815260200191505b509250505060405180910390fdfe43616e206f6e6c79207570677261646520746f206c6174657374205374616b656420434c5220746f6b656e20696d706c656d656e746174696f6e5472616e73706172656e745570677261646561626c6550726f78793a206e65772061646d696e20697320746865207a65726f2061646472657373416464726573733a206c6f772d6c6576656c2064656c65676174652063616c6c206661696c65645570677261646561626c6550726f78793a206e657720696d706c656d656e746174696f6e206973206e6f74206120636f6e7472616374416464726573733a2064656c65676174652063616c6c20746f206e6f6e2d636f6e74726163745472616e73706172656e745570677261646561626c6550726f78793a2061646d696e2063616e6e6f742066616c6c6261636b20746f2070726f787920746172676574a2646970667358221220202a25e9b90f9c6b84017a2005b6dd64224476457402b56efa3a2eec5a46ff4d64736f6c63430007060033416464726573733a206c6f772d6c6576656c2064656c65676174652063616c6c206661696c65645570677261646561626c6550726f78793a206e657720696d706c656d656e746174696f6e206973206e6f74206120636f6e7472616374416464726573733a2064656c65676174652063616c6c20746f206e6f6e2d636f6e74726163744f776e61626c653a206e6577206f776e657220697320746865207a65726f20616464726573734f776e61626c653a2063616c6c6572206973206e6f7420746865206f776e6572a26469706673582212201bc3f4f6755ba6929b611ccca09f0f35c085af638a8ea01510eec6aa7459d28864736f6c63430007060033",
  "linkReferences": {},
  "deployedLinkReferences": {}
}