{
  "_format": "hh-sol-artifact-1",
  "contractName": "CLR",
  "sourceName": "contracts/CLR.sol",
  "abi": [
    {
      "anonymous": false,
      "inputs": [
        {
          "indexed": true,
          "internalType": "address",
          "name": "owner",
          "type": "address"
        },
        {
          "indexed": true,
          "internalType": "address",
          "name": "spender",
          "type": "address"
        },
        {
          "indexed": false,
          "internalType": "uint256",
          "name": "value",
          "type": "uint256"
        }
      ],
      "name": "Approval",
      "type": "event"
    },
    {
      "anonymous": false,
      "inputs": [
        {
          "indexed": true,
          "internalType": "address",
          "name": "user",
          "type": "address"
        },
        {
          "indexed": false,
          "internalType": "uint256",
          "name": "amount0",
          "type": "uint256"
        },
        {
          "indexed": false,
          "internalType": "uint256",
          "name": "amount1",
          "type": "uint256"
        }
      ],
      "name": "Deposit",
      "type": "event"
    },
    {
      "anonymous": false,
      "inputs": [
        {
          "indexed": false,
          "internalType": "uint256",
          "name": "token0Fee",
          "type": "uint256"
        },
        {
          "indexed": false,
          "internalType": "uint256",
          "name": "token1Fee",
          "type": "uint256"
        }
      ],
      "name": "FeeCollected",
      "type": "event"
    },
    {
      "anonymous": false,
      "inputs": [
        {
          "indexed": true,
          "internalType": "address",
          "name": "manager",
          "type": "address"
        }
      ],
      "name": "ManagerSet",
      "type": "event"
    },
    {
      "anonymous": false,
      "inputs": [
        {
          "indexed": true,
          "internalType": "address",
          "name": "previousOwner",
          "type": "address"
        },
        {
          "indexed": true,
          "internalType": "address",
          "name": "newOwner",
          "type": "address"
        }
      ],
      "name": "OwnershipTransferred",
      "type": "event"
    },
    {
      "anonymous": false,
      "inputs": [
        {
          "indexed": false,
          "internalType": "address",
          "name": "account",
          "type": "address"
        }
      ],
      "name": "Paused",
      "type": "event"
    },
    {
      "anonymous": false,
      "inputs": [],
      "name": "Reinvest",
      "type": "event"
    },
    {
      "anonymous": false,
      "inputs": [
        {
          "indexed": false,
          "internalType": "uint256",
          "name": "reward",
          "type": "uint256"
        }
      ],
      "name": "RewardAdded",
      "type": "event"
    },
    {
      "anonymous": false,
      "inputs": [
        {
          "indexed": true,
          "internalType": "address",
          "name": "user",
          "type": "address"
        },
        {
          "indexed": true,
          "internalType": "address",
          "name": "token",
          "type": "address"
        },
        {
          "indexed": false,
          "internalType": "uint256",
          "name": "rewardAmount",
          "type": "uint256"
        }
      ],
      "name": "RewardClaimed",
      "type": "event"
    },
    {
      "anonymous": false,
      "inputs": [
        {
          "indexed": false,
          "internalType": "uint256",
          "name": "newDuration",
          "type": "uint256"
        }
      ],
      "name": "RewardsDurationUpdated",
      "type": "event"
    },
    {
      "anonymous": false,
      "inputs": [
        {
          "indexed": true,
          "internalType": "address",
          "name": "user",
          "type": "address"
        },
        {
          "indexed": false,
          "internalType": "uint256",
          "name": "amount",
          "type": "uint256"
        }
      ],
      "name": "Staked",
      "type": "event"
    },
    {
      "anonymous": false,
      "inputs": [
        {
          "indexed": true,
          "internalType": "address",
          "name": "from",
          "type": "address"
        },
        {
          "indexed": true,
          "internalType": "address",
          "name": "to",
          "type": "address"
        },
        {
          "indexed": false,
          "internalType": "uint256",
          "name": "value",
          "type": "uint256"
        }
      ],
      "name": "Transfer",
      "type": "event"
    },
    {
      "anonymous": false,
      "inputs": [
        {
          "indexed": false,
          "internalType": "address",
          "name": "account",
          "type": "address"
        }
      ],
      "name": "Unpaused",
      "type": "event"
    },
    {
      "anonymous": false,
      "inputs": [
        {
          "indexed": true,
          "internalType": "address",
          "name": "user",
          "type": "address"
        },
        {
          "indexed": false,
          "internalType": "uint256",
          "name": "amount0",
          "type": "uint256"
        },
        {
          "indexed": false,
          "internalType": "uint256",
          "name": "amount1",
          "type": "uint256"
        }
      ],
      "name": "Withdraw",
      "type": "event"
    },
    {
      "anonymous": false,
      "inputs": [
        {
          "indexed": true,
          "internalType": "address",
          "name": "user",
          "type": "address"
        },
        {
          "indexed": false,
          "internalType": "uint256",
          "name": "amount",
          "type": "uint256"
        }
      ],
      "name": "Withdrawn",
      "type": "event"
    },
    {
      "inputs": [
        {
          "internalType": "address",
          "name": "_manager",
          "type": "address"
        }
      ],
      "name": "addManager",
      "outputs": [],
      "stateMutability": "nonpayable",
      "type": "function"
    },
    {
      "inputs": [
        {
          "internalType": "uint256",
          "name": "amount0",
          "type": "uint256"
        },
        {
          "internalType": "uint256",
          "name": "amount1",
          "type": "uint256"
        }
      ],
      "name": "adminStake",
      "outputs": [],
      "stateMutability": "nonpayable",
      "type": "function"
    },
    {
      "inputs": [
        {
          "internalType": "uint256",
          "name": "amount",
          "type": "uint256"
        },
        {
          "internalType": "bool",
          "name": "_0for1",
          "type": "bool"
        }
      ],
      "name": "adminSwap",
      "outputs": [],
      "stateMutability": "nonpayable",
      "type": "function"
    },
    {
      "inputs": [
        {
          "internalType": "address",
          "name": "owner",
          "type": "address"
        },
        {
          "internalType": "address",
          "name": "spender",
          "type": "address"
        }
      ],
      "name": "allowance",
      "outputs": [
        {
          "internalType": "uint256",
          "name": "",
          "type": "uint256"
        }
      ],
      "stateMutability": "view",
      "type": "function"
    },
    {
      "inputs": [
        {
          "internalType": "address",
          "name": "spender",
          "type": "address"
        },
        {
          "internalType": "uint256",
          "name": "amount",
          "type": "uint256"
        }
      ],
      "name": "approve",
      "outputs": [
        {
          "internalType": "bool",
          "name": "",
          "type": "bool"
        }
      ],
      "stateMutability": "nonpayable",
      "type": "function"
    },
    {
      "inputs": [
        {
          "internalType": "address",
          "name": "account",
          "type": "address"
        }
      ],
      "name": "balanceOf",
      "outputs": [
        {
          "internalType": "uint256",
          "name": "",
          "type": "uint256"
        }
      ],
      "stateMutability": "view",
      "type": "function"
    },
    {
      "inputs": [
        {
          "internalType": "uint8",
          "name": "inputAsset",
          "type": "uint8"
        },
        {
          "internalType": "uint256",
          "name": "amount",
          "type": "uint256"
        }
      ],
      "name": "calculateAmountsMintedSingleToken",
      "outputs": [
        {
          "internalType": "uint256",
          "name": "amount0Minted",
          "type": "uint256"
        },
        {
          "internalType": "uint256",
          "name": "amount1Minted",
          "type": "uint256"
        }
      ],
      "stateMutability": "view",
      "type": "function"
    },
    {
      "inputs": [
        {
          "internalType": "uint256",
          "name": "amount0",
          "type": "uint256"
        },
        {
          "internalType": "uint256",
          "name": "amount1",
          "type": "uint256"
        }
      ],
      "name": "calculateMintAmount",
      "outputs": [
        {
          "internalType": "uint256",
          "name": "mintAmount",
          "type": "uint256"
        }
      ],
      "stateMutability": "view",
      "type": "function"
    },
    {
      "inputs": [
        {
          "internalType": "uint256",
          "name": "amount0",
          "type": "uint256"
        },
        {
          "internalType": "uint256",
          "name": "amount1",
          "type": "uint256"
        }
      ],
      "name": "calculatePoolMintedAmounts",
      "outputs": [
        {
          "internalType": "uint256",
          "name": "amount0Minted",
          "type": "uint256"
        },
        {
          "internalType": "uint256",
          "name": "amount1Minted",
          "type": "uint256"
        }
      ],
      "stateMutability": "view",
      "type": "function"
    },
    {
      "inputs": [
        {
          "internalType": "uint256",
          "name": "stakedBalance",
          "type": "uint256"
        }
      ],
      "name": "calculateWithdrawAmounts",
      "outputs": [
        {
          "internalType": "uint256",
          "name": "amount0",
          "type": "uint256"
        },
        {
          "internalType": "uint256",
          "name": "amount1",
          "type": "uint256"
        }
      ],
      "stateMutability": "view",
      "type": "function"
    },
    {
      "inputs": [],
      "name": "claimReward",
      "outputs": [],
      "stateMutability": "nonpayable",
      "type": "function"
    },
    {
      "inputs": [],
      "name": "collect",
      "outputs": [
        {
          "internalType": "uint256",
          "name": "collected0",
          "type": "uint256"
        },
        {
          "internalType": "uint256",
          "name": "collected1",
          "type": "uint256"
        }
      ],
      "stateMutability": "nonpayable",
      "type": "function"
    },
    {
      "inputs": [],
      "name": "collectAndReinvest",
      "outputs": [],
      "stateMutability": "nonpayable",
      "type": "function"
    },
    {
      "inputs": [],
      "name": "decimals",
      "outputs": [
        {
          "internalType": "uint8",
          "name": "",
          "type": "uint8"
        }
      ],
      "stateMutability": "view",
      "type": "function"
    },
    {
      "inputs": [
        {
          "internalType": "address",
          "name": "spender",
          "type": "address"
        },
        {
          "internalType": "uint256",
          "name": "subtractedValue",
          "type": "uint256"
        }
      ],
      "name": "decreaseAllowance",
      "outputs": [
        {
          "internalType": "bool",
          "name": "",
          "type": "bool"
        }
      ],
      "stateMutability": "nonpayable",
      "type": "function"
    },
    {
      "inputs": [
        {
          "internalType": "uint256",
          "name": "amount0",
          "type": "uint256"
        },
        {
          "internalType": "uint256",
          "name": "amount1",
          "type": "uint256"
        }
      ],
      "name": "deposit",
      "outputs": [],
      "stateMutability": "nonpayable",
      "type": "function"
    },
    {
      "inputs": [
        {
          "internalType": "address",
          "name": "account",
          "type": "address"
        },
        {
          "internalType": "address",
          "name": "token",
          "type": "address"
        }
      ],
      "name": "earned",
      "outputs": [
        {
          "internalType": "uint256",
          "name": "",
          "type": "uint256"
        }
      ],
      "stateMutability": "view",
      "type": "function"
    },
    {
      "inputs": [
        {
          "internalType": "uint128",
          "name": "liquidity",
          "type": "uint128"
        }
      ],
      "name": "getAmountsForLiquidity",
      "outputs": [
        {
          "internalType": "uint256",
          "name": "amount0",
          "type": "uint256"
        },
        {
          "internalType": "uint256",
          "name": "amount1",
          "type": "uint256"
        }
      ],
      "stateMutability": "view",
      "type": "function"
    },
    {
      "inputs": [],
      "name": "getBufferToken0Balance",
      "outputs": [
        {
          "internalType": "uint256",
          "name": "amount0",
          "type": "uint256"
        }
      ],
      "stateMutability": "view",
      "type": "function"
    },
    {
      "inputs": [],
      "name": "getBufferToken1Balance",
      "outputs": [
        {
          "internalType": "uint256",
          "name": "amount1",
          "type": "uint256"
        }
      ],
      "stateMutability": "view",
      "type": "function"
    },
    {
      "inputs": [],
      "name": "getBufferTokenBalance",
      "outputs": [
        {
          "internalType": "uint256",
          "name": "amount0",
          "type": "uint256"
        },
        {
          "internalType": "uint256",
          "name": "amount1",
          "type": "uint256"
        }
      ],
      "stateMutability": "view",
      "type": "function"
    },
    {
      "inputs": [
        {
          "internalType": "uint256",
          "name": "amount0",
          "type": "uint256"
        },
        {
          "internalType": "uint256",
          "name": "amount1",
          "type": "uint256"
        }
      ],
      "name": "getLiquidityForAmounts",
      "outputs": [
        {
          "internalType": "uint128",
          "name": "liquidity",
          "type": "uint128"
        }
      ],
      "stateMutability": "view",
      "type": "function"
    },
    {
      "inputs": [],
      "name": "getPositionLiquidity",
      "outputs": [
        {
          "internalType": "uint128",
          "name": "liquidity",
          "type": "uint128"
        }
      ],
      "stateMutability": "view",
      "type": "function"
    },
    {
      "inputs": [
        {
          "internalType": "address",
          "name": "token",
          "type": "address"
        }
      ],
      "name": "getRewardForDuration",
      "outputs": [
        {
          "internalType": "uint256",
          "name": "",
          "type": "uint256"
        }
      ],
      "stateMutability": "view",
      "type": "function"
    },
    {
      "inputs": [],
      "name": "getRewardTokens",
      "outputs": [
        {
          "internalType": "address[]",
          "name": "tokens",
          "type": "address[]"
        }
      ],
      "stateMutability": "view",
      "type": "function"
    },
    {
      "inputs": [],
      "name": "getRewardTokensCount",
      "outputs": [
        {
          "internalType": "uint256",
          "name": "",
          "type": "uint256"
        }
      ],
      "stateMutability": "view",
      "type": "function"
    },
    {
      "inputs": [],
      "name": "getStakedTokenBalance",
      "outputs": [
        {
          "internalType": "uint256",
          "name": "amount0",
          "type": "uint256"
        },
        {
          "internalType": "uint256",
          "name": "amount1",
          "type": "uint256"
        }
      ],
      "stateMutability": "view",
      "type": "function"
    },
    {
      "inputs": [],
      "name": "getTicks",
      "outputs": [
        {
          "internalType": "int24",
          "name": "tick0",
          "type": "int24"
        },
        {
          "internalType": "int24",
          "name": "tick1",
          "type": "int24"
        }
      ],
      "stateMutability": "view",
      "type": "function"
    },
    {
      "inputs": [],
      "name": "getVersion",
      "outputs": [
        {
          "internalType": "string",
          "name": "version",
          "type": "string"
        }
      ],
      "stateMutability": "pure",
      "type": "function"
    },
    {
      "inputs": [
        {
          "internalType": "address",
          "name": "spender",
          "type": "address"
        },
        {
          "internalType": "uint256",
          "name": "addedValue",
          "type": "uint256"
        }
      ],
      "name": "increaseAllowance",
      "outputs": [
        {
          "internalType": "bool",
          "name": "",
          "type": "bool"
        }
      ],
      "stateMutability": "nonpayable",
      "type": "function"
    },
    {
      "inputs": [
        {
          "internalType": "string",
          "name": "_symbol",
          "type": "string"
        },
        {
          "internalType": "int24",
          "name": "_tickLower",
          "type": "int24"
        },
        {
          "internalType": "int24",
          "name": "_tickUpper",
          "type": "int24"
        },
        {
          "internalType": "uint24",
          "name": "_poolFee",
          "type": "uint24"
        },
        {
          "internalType": "uint256",
          "name": "_tradeFee",
          "type": "uint256"
        },
        {
          "internalType": "address",
          "name": "_token0",
          "type": "address"
        },
        {
          "internalType": "address",
          "name": "_token1",
          "type": "address"
        },
        {
          "internalType": "address",
          "name": "_stakedToken",
          "type": "address"
        },
        {
          "internalType": "address",
          "name": "_terminal",
          "type": "address"
        },
        {
          "internalType": "address",
          "name": "_uniswapPool",
          "type": "address"
        },
        {
          "components": [
            {
              "internalType": "address",
              "name": "router",
              "type": "address"
            },
            {
              "internalType": "address",
              "name": "quoter",
              "type": "address"
            },
            {
              "internalType": "address",
              "name": "positionManager",
              "type": "address"
            }
          ],
          "internalType": "struct CLR.UniswapContracts",
          "name": "contracts",
          "type": "tuple"
        },
        {
          "components": [
            {
              "internalType": "address[]",
              "name": "rewardTokens",
              "type": "address[]"
            },
            {
              "internalType": "address",
              "name": "rewardEscrow",
              "type": "address"
            },
            {
              "internalType": "bool",
              "name": "rewardsAreEscrowed",
              "type": "bool"
            }
          ],
          "internalType": "struct CLR.StakingDetails",
          "name": "stakingParams",
          "type": "tuple"
        }
      ],
      "name": "initialize",
      "outputs": [],
      "stateMutability": "nonpayable",
      "type": "function"
    },
    {
      "inputs": [
        {
          "internalType": "uint256",
          "name": "rewardAmount",
          "type": "uint256"
        },
        {
          "internalType": "address",
          "name": "token",
          "type": "address"
        }
      ],
      "name": "initializeReward",
      "outputs": [],
      "stateMutability": "nonpayable",
      "type": "function"
    },
    {
      "inputs": [],
      "name": "lastTimeRewardApplicable",
      "outputs": [
        {
          "internalType": "uint256",
          "name": "",
          "type": "uint256"
        }
      ],
      "stateMutability": "view",
      "type": "function"
    },
    {
      "inputs": [
        {
          "internalType": "address",
          "name": "",
          "type": "address"
        }
      ],
      "name": "lastUpdateTime",
      "outputs": [
        {
          "internalType": "uint256",
          "name": "",
          "type": "uint256"
        }
      ],
      "stateMutability": "view",
      "type": "function"
    },
    {
      "inputs": [],
      "name": "manager",
      "outputs": [
        {
          "internalType": "address",
          "name": "",
          "type": "address"
        }
      ],
      "stateMutability": "view",
      "type": "function"
    },
    {
      "inputs": [
        {
          "internalType": "uint256",
          "name": "amount0",
          "type": "uint256"
        },
        {
          "internalType": "uint256",
          "name": "amount1",
          "type": "uint256"
        },
        {
          "internalType": "address",
          "name": "sender",
          "type": "address"
        }
      ],
      "name": "mintInitial",
      "outputs": [],
      "stateMutability": "nonpayable",
      "type": "function"
    },
    {
      "inputs": [],
      "name": "name",
      "outputs": [
        {
          "internalType": "string",
          "name": "",
          "type": "string"
        }
      ],
      "stateMutability": "view",
      "type": "function"
    },
    {
      "inputs": [],
      "name": "owner",
      "outputs": [
        {
          "internalType": "address",
          "name": "",
          "type": "address"
        }
      ],
      "stateMutability": "view",
      "type": "function"
    },
    {
      "inputs": [],
      "name": "pauseContract",
      "outputs": [
        {
          "internalType": "bool",
          "name": "",
          "type": "bool"
        }
      ],
      "stateMutability": "nonpayable",
      "type": "function"
    },
    {
      "inputs": [],
      "name": "paused",
      "outputs": [
        {
          "internalType": "bool",
          "name": "",
          "type": "bool"
        }
      ],
      "stateMutability": "view",
      "type": "function"
    },
    {
      "inputs": [],
      "name": "periodFinish",
      "outputs": [
        {
          "internalType": "uint256",
          "name": "",
          "type": "uint256"
        }
      ],
      "stateMutability": "view",
      "type": "function"
    },
    {
      "inputs": [],
      "name": "poolFee",
      "outputs": [
        {
          "internalType": "uint24",
          "name": "",
          "type": "uint24"
        }
      ],
      "stateMutability": "view",
      "type": "function"
    },
    {
      "inputs": [],
      "name": "reinvest",
      "outputs": [],
      "stateMutability": "nonpayable",
      "type": "function"
    },
    {
      "inputs": [],
      "name": "renounceOwnership",
      "outputs": [],
      "stateMutability": "nonpayable",
      "type": "function"
    },
    {
      "inputs": [],
      "name": "rewardEscrow",
      "outputs": [
        {
          "internalType": "contract IRewardEscrow",
          "name": "",
          "type": "address"
        }
      ],
      "stateMutability": "view",
      "type": "function"
    },
    {
      "inputs": [
        {
          "internalType": "address",
          "name": "",
          "type": "address"
        }
      ],
      "name": "rewardInfo",
      "outputs": [
        {
          "internalType": "uint256",
          "name": "rewardRate",
          "type": "uint256"
        },
        {
          "internalType": "uint256",
          "name": "rewardPerTokenStored",
          "type": "uint256"
        },
        {
          "internalType": "uint256",
          "name": "totalRewardAmount",
          "type": "uint256"
        },
        {
          "internalType": "uint256",
          "name": "remainingRewardAmount",
          "type": "uint256"
        }
      ],
      "stateMutability": "view",
      "type": "function"
    },
    {
      "inputs": [
        {
          "internalType": "address",
          "name": "token",
          "type": "address"
        }
      ],
      "name": "rewardPerToken",
      "outputs": [
        {
          "internalType": "uint256",
          "name": "",
          "type": "uint256"
        }
      ],
      "stateMutability": "view",
      "type": "function"
    },
    {
      "inputs": [
        {
          "internalType": "uint256",
          "name": "",
          "type": "uint256"
        }
      ],
      "name": "rewardTokens",
      "outputs": [
        {
          "internalType": "address",
          "name": "",
          "type": "address"
        }
      ],
      "stateMutability": "view",
      "type": "function"
    },
    {
      "inputs": [],
      "name": "rewardsAreEscrowed",
      "outputs": [
        {
          "internalType": "bool",
          "name": "",
          "type": "bool"
        }
      ],
      "stateMutability": "view",
      "type": "function"
    },
    {
      "inputs": [],
      "name": "rewardsDuration",
      "outputs": [
        {
          "internalType": "uint256",
          "name": "",
          "type": "uint256"
        }
      ],
      "stateMutability": "view",
      "type": "function"
    },
    {
      "inputs": [
        {
          "internalType": "uint256",
          "name": "_rewardsDuration",
          "type": "uint256"
        }
      ],
      "name": "setRewardsDuration",
      "outputs": [],
      "stateMutability": "nonpayable",
      "type": "function"
    },
    {
      "inputs": [
        {
          "internalType": "address",
          "name": "account",
          "type": "address"
        }
      ],
      "name": "stakedBalanceOf",
      "outputs": [
        {
          "internalType": "uint256",
          "name": "",
          "type": "uint256"
        }
      ],
      "stateMutability": "view",
      "type": "function"
    },
    {
      "inputs": [],
      "name": "stakedToken",
      "outputs": [
        {
          "internalType": "contract IStakedCLRToken",
          "name": "",
          "type": "address"
        }
      ],
      "stateMutability": "view",
      "type": "function"
    },
    {
      "inputs": [],
      "name": "stakedTotalSupply",
      "outputs": [
        {
          "internalType": "uint256",
          "name": "",
          "type": "uint256"
        }
      ],
      "stateMutability": "view",
      "type": "function"
    },
    {
      "inputs": [],
      "name": "symbol",
      "outputs": [
        {
          "internalType": "string",
          "name": "",
          "type": "string"
        }
      ],
      "stateMutability": "view",
      "type": "function"
    },
    {
      "inputs": [],
      "name": "token0",
      "outputs": [
        {
          "internalType": "contract IERC20",
          "name": "",
          "type": "address"
        }
      ],
      "stateMutability": "view",
      "type": "function"
    },
    {
      "inputs": [],
      "name": "token0DecimalMultiplier",
      "outputs": [
        {
          "internalType": "uint256",
          "name": "",
          "type": "uint256"
        }
      ],
      "stateMutability": "view",
      "type": "function"
    },
    {
      "inputs": [],
      "name": "token0Decimals",
      "outputs": [
        {
          "internalType": "uint8",
          "name": "",
          "type": "uint8"
        }
      ],
      "stateMutability": "view",
      "type": "function"
    },
    {
      "inputs": [],
      "name": "token1",
      "outputs": [
        {
          "internalType": "contract IERC20",
          "name": "",
          "type": "address"
        }
      ],
      "stateMutability": "view",
      "type": "function"
    },
    {
      "inputs": [],
      "name": "token1DecimalMultiplier",
      "outputs": [
        {
          "internalType": "uint256",
          "name": "",
          "type": "uint256"
        }
      ],
      "stateMutability": "view",
      "type": "function"
    },
    {
      "inputs": [],
      "name": "token1Decimals",
      "outputs": [
        {
          "internalType": "uint8",
          "name": "",
          "type": "uint8"
        }
      ],
      "stateMutability": "view",
      "type": "function"
    },
    {
      "inputs": [],
      "name": "tokenId",
      "outputs": [
        {
          "internalType": "uint256",
          "name": "",
          "type": "uint256"
        }
      ],
      "stateMutability": "view",
      "type": "function"
    },
    {
      "inputs": [],
      "name": "totalSupply",
      "outputs": [
        {
          "internalType": "uint256",
          "name": "",
          "type": "uint256"
        }
      ],
      "stateMutability": "view",
      "type": "function"
    },
    {
      "inputs": [],
      "name": "tradeFee",
      "outputs": [
        {
          "internalType": "uint256",
          "name": "",
          "type": "uint256"
        }
      ],
      "stateMutability": "view",
      "type": "function"
    },
    {
      "inputs": [
        {
          "internalType": "address",
          "name": "recipient",
          "type": "address"
        },
        {
          "internalType": "uint256",
          "name": "amount",
          "type": "uint256"
        }
      ],
      "name": "transfer",
      "outputs": [
        {
          "internalType": "bool",
          "name": "",
          "type": "bool"
        }
      ],
      "stateMutability": "nonpayable",
      "type": "function"
    },
    {
      "inputs": [
        {
          "internalType": "address",
          "name": "sender",
          "type": "address"
        },
        {
          "internalType": "address",
          "name": "recipient",
          "type": "address"
        },
        {
          "internalType": "uint256",
          "name": "amount",
          "type": "uint256"
        }
      ],
      "name": "transferFrom",
      "outputs": [
        {
          "internalType": "bool",
          "name": "",
          "type": "bool"
        }
      ],
      "stateMutability": "nonpayable",
      "type": "function"
    },
    {
      "inputs": [
        {
          "internalType": "address",
          "name": "newOwner",
          "type": "address"
        }
      ],
      "name": "transferOwnership",
      "outputs": [],
      "stateMutability": "nonpayable",
      "type": "function"
    },
    {
      "inputs": [],
      "name": "uniContracts",
      "outputs": [
        {
          "internalType": "address",
          "name": "router",
          "type": "address"
        },
        {
          "internalType": "address",
          "name": "quoter",
          "type": "address"
        },
        {
          "internalType": "address",
          "name": "positionManager",
          "type": "address"
        }
      ],
      "stateMutability": "view",
      "type": "function"
    },
    {
      "inputs": [],
      "name": "uniswapPool",
      "outputs": [
        {
          "internalType": "address",
          "name": "",
          "type": "address"
        }
      ],
      "stateMutability": "view",
      "type": "function"
    },
    {
      "inputs": [],
      "name": "unpauseContract",
      "outputs": [
        {
          "internalType": "bool",
          "name": "",
          "type": "bool"
        }
      ],
      "stateMutability": "nonpayable",
      "type": "function"
    },
    {
      "inputs": [
        {
          "internalType": "uint256",
          "name": "amount",
          "type": "uint256"
        },
        {
          "internalType": "uint256",
          "name": "minReceivedAmount0",
          "type": "uint256"
        },
        {
          "internalType": "uint256",
          "name": "minReceivedAmount1",
          "type": "uint256"
        }
      ],
      "name": "withdraw",
      "outputs": [],
      "stateMutability": "nonpayable",
      "type": "function"
    },
    {
      "inputs": [
        {
          "internalType": "uint256",
          "name": "amount",
          "type": "uint256"
        },
        {
          "internalType": "uint256",
          "name": "minReceivedAmount0",
          "type": "uint256"
        },
        {
          "internalType": "uint256",
          "name": "minReceivedAmount1",
          "type": "uint256"
        }
      ],
      "name": "withdrawAndClaimReward",
      "outputs": [],
      "stateMutability": "nonpayable",
      "type": "function"
    }
  ],
  "bytecode": "0x6080604052600060cb55600060cc5534801561001a57600080fd5b50600160c9556155bb8061002f6000396000f3fe608060405234801561001057600080fd5b50600436106103a85760003560e01c806370a08231116101eb578063cbecf6b511610110578063e2bbb158116100a8578063e2bbb1581461076d578063e522538114610780578063eae9624614610788578063ebe2b12b14610790578063f122977714610798578063f2fde38b146107ab578063f85b0631146107be578063fd936f6e146107d1578063fdb5a03e146107e8576103a8565b8063cbecf6b5146106d3578063cc1a378f146106f6578063cc7a262e14610709578063d21220a714610711578063d37e9db914610719578063d5ad11ca14610721578063d9bb717014610734578063dd34d98a14610747578063dd62ed3e1461075a576103a8565b8063a457c2d711610183578063a457c2d71461065d578063a9059cbb14610670578063b31ac6e214610683578063b33712c51461068b578063b88a802f14610693578063bcd110141461069b578063bdd3d825146106ae578063c4f59f9b146106b6578063c9b44cbd146106cb576103a8565b806370a08231146105e9578063715018a6146105fc57806378b67e94146106045780637bb7bed11461061757806380faa57d1461062a5780638da5cb5b1461063257806395d89b411461063a578063a41fe49f14610642578063a430be6c14610655576103a8565b80632826b81f116102d15780633b3110ce116102695780633b3110ce146105725780633b893820146105855780633d1c387b146105985780633e3ae031146105ae578063422be88e146105c1578063439766ce146105c957806344828cc3146105d1578063481c6a75146105d95780635c975abb146105e1576103a8565b80632826b81f146104fe5780632ce9aead146105065780632d06177a146105195780632d9e88e11461052c578063313ce56714610534578063386a95251461053c57806338d221aa1461054457806339509351146105575780633af569891461056a576103a8565b80631676539111610344578063167653911461047b57806317d70f7c1461049b57806318160ddd146104a35780631d10ca69146104ab5780631de5495f146104c0578063211dc32d146104c857806323b872dd146104db57806324bcdfbd146104ee57806326867ae4146104f6576103a8565b80630509eb25146103ad57806306cce957146103d757806306fdde03146103df578063089fe6aa146103f4578063095ea7b3146104095780630b77884d146104295780630d8e6e2c1461043e5780630dfe1681146104465780631297dfd21461045b575b600080fd5b6103c06103bb366004614b57565b6107f0565b6040516103ce929190615151565b60405180910390f35b6103c061083d565b6103e7610854565b6040516103ce9190614e7b565b6103fc6108ea565b6040516103ce9190615138565b61041c6104173660046149b1565b6108f5565b6040516103ce9190614e4e565b610431610913565b6040516103ce919061525b565b6103e7610923565b61044e610943565b6040516103ce9190614db1565b61046e610469366004614bcf565b610952565b6040516103ce919061507f565b61048e61048936600461491d565b610a08565b6040516103ce9190615148565b61048e610a27565b61048e610a2d565b6104be6104b9366004614bab565b610a33565b005b6103c0610acd565b61048e6104d6366004614939565b610ae8565b61041c6104e9366004614971565b610b6e565b61048e610bf5565b61041c610bfb565b61048e610c04565b61048e61051436600461491d565b610c0a565b6104be61052736600461491d565b610c1c565b61048e610cc8565b610431610cce565b61048e610cd7565b6103c0610552366004614b03565b610cdd565b61041c6105653660046149b1565b610d95565b61046e610de3565b6104be610580366004614c13565b610e81565b6103c0610593366004614bcf565b611030565b6105a0611056565b6040516103ce929190614e67565b6104be6105bc3660046149f8565b61106c565b61048e61165f565b61041c611665565b61048e6116c2565b61044e6117fb565b61041c61180a565b61048e6105f736600461491d565b611813565b6104be61182e565b6104be610612366004614b87565b6118c8565b61044e610625366004614b57565b6118fc565b61048e611926565b61044e611934565b6103e7611943565b6104be610650366004614c4b565b6119a4565b61044e611b3f565b61041c61066b3660046149b1565b611b53565b61041c61067e3660046149b1565b611bbb565b610431611bcf565b61041c611bdf565b6104be611c36565b61048e6106a936600461491d565b611c81565b61044e611ca9565b6106be611cb8565b6040516103ce9190614e01565b61048e611d19565b6106e66106e136600461491d565b611d1f565b6040516103ce9493929190615227565b6104be610704366004614b57565b611d46565b61044e611d79565b61044e611d88565b61048e611d97565b6103c061072f366004614c92565b611ed0565b61048e610742366004614bcf565b6121ab565b6104be610755366004614bcf565b612216565b61048e610768366004614939565b612286565b6104be61077b366004614bcf565b6122b1565b6103c06124c0565b6104be6125e4565b61048e6125f8565b61048e6107a636600461491d565b6125fe565b6104be6107b936600461491d565b6126a4565b6104be6107cc366004614c4b565b612795565b6107d96127ad565b6040516103ce93929190614dde565b6104be6127ca565b60008060006107fd610a2d565b905060008061080a61083d565b90925090506108238361081d88856129be565b90612a17565b94506108338361081d88846129be565b9350505050915091565b60008061084b610552610de3565b90939092509050565b60368054604080516020601f60026000196101006001881615020190951694909404938401819004810282018101909252828152606093909290918301828280156108e05780601f106108b5576101008083540402835291602001916108e0565b820191906000526020600020905b8154815290600101906020018083116108c357829003601f168201915b5050505050905090565b60db5462ffffff1681565b6000610909610902612a7e565b8484612a82565b5060015b92915050565b60db54600160201b900460ff1681565b60408051808201909152600681526576312e302e3560d01b602082015290565b60d4546001600160a01b031681565b60d25460d35460df54604051630f95f01760e11b815260009373__$82006dba501dec65b4ad046752eee945f5$__93631f2be02e936109b193899389936001600160a01b03600160301b909204821693908216929116906004016151f9565b60206040518083038186803b1580156109c957600080fd5b505af41580156109dd573d6000803e3d6000fd5b505050506040513d601f19601f82011682018060405250810190610a019190614b1f565b9392505050565b6001600160a01b038116600090815260d160205260409020545b919050565b60d75481565b60355490565b610a3b611934565b6001600160a01b0316336001600160a01b03161480610a64575060e0546001600160a01b031633145b610a895760405162461bcd60e51b8152600401610a8090614f05565b60405180910390fd5b8015610ab257610aad610aa7610aa0846032612a17565b8490612b6e565b83612bc8565b610ac9565b610ac9610ac3610aa0846032612a17565b83612d67565b5050565b600080610ad86116c2565b610ae0611d97565b915091509091565b6001600160a01b03818116600090815260ce6020908152604080832093861683526005840182528083205460049094019091528120549091610a0191610b6890670de0b6b3a76400009061081d90610b4990610b43896125fe565b90612eb6565b6001600160a01b038916600090815260d16020526040902054906129be565b90612b6e565b6000610b7b848484612f13565b610beb84610b87612a7e565b610be685604051806060016040528060288152602001615445602891396001600160a01b038a16600090815260346020526040812090610bc5612a7e565b6001600160a01b03168152602081019190915260400160002054919061305e565b612a82565b5060019392505050565b60da5481565b60cf5460ff1681565b60d05490565b60cd6020526000908152604090205481565b610c24612a7e565b6001600160a01b0316610c35611934565b6001600160a01b031614610c7e576040805162461bcd60e51b8152602060048201819052602482015260008051602061546d833981519152604482015290519081900360640190fd5b60e080546001600160a01b0319166001600160a01b0383169081179091556040517f60a0f5b9f9e81e98216071b85826681c796256fe3d1354ecb675580fba64fa6990600090a250565b60ca5490565b60385460ff1690565b60cc5481565b60d25460d35460df5460405163043d77cd60e31b8152600093849373__$82006dba501dec65b4ad046752eee945f5$__936321ebbe6893610d3c9389936001600160a01b03600160301b909204821693908216929116906004016150e2565b604080518083038186803b158015610d5357600080fd5b505af4158015610d67573d6000803e3d6000fd5b505050506040513d601f19601f82011682018060405250810190610d8b9190614bf0565b9094909350915050565b6000610909610da2612a7e565b84610be68560346000610db3612a7e565b6001600160a01b03908116825260208083019390935260409182016000908120918c168152925290205490612b6e565b60de5460d7546040516301e5331960e21b815260009273__$82006dba501dec65b4ad046752eee945f5$__92630794cc6492610e2c926001600160a01b03169190600401614dc5565b60206040518083038186803b158015610e4457600080fd5b505af4158015610e58573d6000803e3d6000fd5b505050506040513d601f19601f82011682018060405250810190610e7c9190614b1f565b905090565b610e89611934565b6001600160a01b0316336001600160a01b03161480610eb2575060e0546001600160a01b031633145b610ece5760405162461bcd60e51b8152600401610a8090614f05565b6000831180610edd5750600082115b610ee657600080fd5b60d75415610ef357600080fd5b600080610f008585611030565b60d4549193509150610f1d906001600160a01b03163330856130f5565b60d554610f35906001600160a01b03163330846130f5565b610f3f8282613155565b60d75568056bc75e2d63100000610f5630826132ee565b610f6081856133ce565b60d6546040516340c10f1960e01b81526001600160a01b03909116906340c10f1990610f929087908590600401614dc5565b602060405180830381600087803b158015610fac57600080fd5b505af1158015610fc0573d6000803e3d6000fd5b505050506040513d601f19601f82011682018060405250810190610fe491906149dc565b50836001600160a01b03167f90890809c654f11d6e72a28fa60149770a0d11ec6c92319d6ceb2bb0a4ea1a158484604051611020929190615151565b60405180910390a2505050505050565b600080600061103f8585610952565b905061104a81610cdd565b90969095509350505050565b60d254600281810b9163010000009004900b9091565b600054610100900460ff168061108557506110856134b0565b80611093575060005460ff16155b6110ce5760405162461bcd60e51b815260040180806020018281038252602e8152602001806153f6602e913960400191505060405180910390fd5b600054610100900460ff161580156110f9576000805460ff1961ff0019909116610100171660011790555b600260c954141561113f576040805162461bcd60e51b815260206004820152601f60248201526000805160206152f8833981519152604482015290519081900360640190fd5b600260c95561114c6134c1565b611154613562565b61115c613649565b6111816040518060400160405280600381526020016221a62960e91b8152508e6136f4565b8b60d260006101000a81548162ffffff021916908360020b62ffffff1602179055508a60d260036101000a81548162ffffff021916908360020b62ffffff16021790555073__$82006dba501dec65b4ad046752eee945f5$__63058421ca8d6040518263ffffffff1660e01b81526004016111fc9190614e59565b60206040518083038186803b15801561121457600080fd5b505af4158015611228573d6000803e3d6000fd5b505050506040513d601f19601f8201168201806040525081019061124c9190614b3b565b60d280546001600160a01b0392909216600160301b026601000000000000600160d01b03199092169190911790556040516302c210e560e11b815273__$82006dba501dec65b4ad046752eee945f5$__9063058421ca906112b1908e90600401614e59565b60206040518083038186803b1580156112c957600080fd5b505af41580156112dd573d6000803e3d6000fd5b505050506040513d601f19601f820116820180604052508101906113019190614b3b565b60d380546001600160a01b03199081166001600160a01b039384161790915560d4805482168b841690811790915560d5805483168b851617905560d680549092169289169290921790556040805163313ce56760e01b8152905163313ce56791600480820192602092909190829003018186803b15801561138157600080fd5b505afa158015611395573d6000803e3d6000fd5b505050506040513d601f19601f820116820180604052508101906113b99190614c76565b60db60036101000a81548160ff021916908360ff160217905550866001600160a01b031663313ce5676040518163ffffffff1660e01b815260040160206040518083038186803b15801561140c57600080fd5b505afa158015611420573d6000803e3d6000fd5b505050506040513d601f19601f820116820180604052508101906114449190614c76565b60db805464ff000000001916600160201b60ff9384160217908190556012630100000090910490911611801590611489575060db546012600160201b90910460ff1611155b6114a55760405162461bcd60e51b8152600401610a8090614f54565b60db546114be906012906301000000900460ff16612eb6565b600a0a60d85560db546114dd90601290600160201b900460ff16612eb6565b600a0a60d95560db805462ffffff191662ffffff8c1617905560da89905560d3805463ffffffff60a01b191660e160a41b179055825160dc80546001600160a01b03199081166001600160a01b039384161791829055602086015160dd80548316918516919091179055604086015160de8054831691851691909117905560df8054821688851617905560e1805490911688841617905560d4546115889290811691166000196137cc565b60dc5460d5546115a7916001600160a01b0391821691166000196137cc565b60de5460d4546115c6916001600160a01b0391821691166000196137cc565b60de5460d5546115e5916001600160a01b0391821691166000196137cc565b815180516115fb9160ca91602090910190614626565b50602082015160cf80546040850151151560ff196001600160a01b0390941661010002610100600160a81b03199092169190911792909216919091179055600160c9558015611650576000805461ff00191690555b50505050505050505050505050565b60d95481565b600061166f611934565b6001600160a01b0316336001600160a01b03161480611698575060e0546001600160a01b031633145b6116b45760405162461bcd60e51b8152600401610a8090614f05565b6116bc6138b7565b50600190565b60d4546040516370a0823160e01b8152600091610e7c9173__$82006dba501dec65b4ad046752eee945f5$__916326532df8916001600160a01b03909116906370a0823190611715903090600401614db1565b60206040518083038186803b15801561172d57600080fd5b505afa158015611741573d6000803e3d6000fd5b505050506040513d601f19601f820116820180604052508101906117659190614b6f565b60d4546001600160a01b0316600090815260ce6020526040908190206003015490516001600160e01b031960e085901b1681526117a6929190600401615151565b60206040518083038186803b1580156117be57600080fd5b505af41580156117d2573d6000803e3d6000fd5b505050506040513d601f19601f820116820180604052508101906117f69190614b6f565b613957565b60e0546001600160a01b031681565b60975460ff1690565b6001600160a01b031660009081526033602052604090205490565b611836612a7e565b6001600160a01b0316611847611934565b6001600160a01b031614611890576040805162461bcd60e51b8152602060048201819052602482015260008051602061546d833981519152604482015290519081900360640190fd5b6065546040516000916001600160a01b03169060008051602061548d833981519152908390a3606580546001600160a01b0319169055565b60e1546001600160a01b031633146118f25760405162461bcd60e51b8152600401610a8090614fec565b610ac982826139f3565b60ca818154811061190c57600080fd5b6000918252602090912001546001600160a01b0316905081565b6000610e7c4260cb54613b04565b6065546001600160a01b031690565b60378054604080516020601f60026000196101006001881615020190951694909404938401819004810282018101909252828152606093909290918301828280156108e05780601f106108b5576101008083540402835291602001916108e0565b600083116119b157600080fd5b60006119bc33610a08565b9050808411156119de5760405162461bcd60e51b8152600401610a8090614fa1565b6000806119ea866107f0565b60d65460405163079cc67960e41b81529294509092506001600160a01b0316906379cc679090611a209033908a90600401614dc5565b602060405180830381600087803b158015611a3a57600080fd5b505af1158015611a4e573d6000803e3d6000fd5b505050506040513d601f19601f82011682018060405250810190611a7291906149dc565b50611a7d8633613b1a565b611a873087613bfc565b600080611a948484613ce6565b91509150868210158015611aa85750858110155b611ac45760405162461bcd60e51b8152600401610a8090614ece565b60d454611adb906001600160a01b03163384613d1f565b60d554611af2906001600160a01b03163383613d1f565b336001600160a01b03167ff279e6a1f5e320cca91135676d9cb6e44ca8a08c0b88342bcdb1144f6511b5688383604051611b2d929190615151565b60405180910390a25050505050505050565b60cf5461010090046001600160a01b031681565b6000610909611b60612a7e565b84610be6856040518060600160405280602581526020016155616025913960346000611b8a612a7e565b6001600160a01b03908116825260208083019390935260409182016000908120918d1681529252902054919061305e565b6000610909611bc8612a7e565b8484612f13565b60db546301000000900460ff1681565b6000611be9611934565b6001600160a01b0316336001600160a01b03161480611c12575060e0546001600160a01b031633145b611c2e5760405162461bcd60e51b8152600401610a8090614f05565b6116bc613d71565b611c3f33613df4565b60005b60ca54811015611c7e57611c7660ca8281548110611c5c57fe5b6000918252602090912001546001600160a01b0316613e34565b600101611c42565b50565b60cc546001600160a01b038216600090815260ce6020526040812054909161090d91906129be565b60df546001600160a01b031681565b606060ca8054806020026020016040519081016040528092919081815260200182805480156108e057602002820191906000526020600020905b81546001600160a01b03168152600190910190602001808311611cf2575050505050905090565b60d85481565b60ce6020526000908152604090208054600182015460028301546003909301549192909184565b60e1546001600160a01b03163314611d705760405162461bcd60e51b8152600401610a8090614fec565b611c7e81614039565b60d6546001600160a01b031681565b60d5546001600160a01b031681565b60d5546040516370a0823160e01b8152600091610e7c9173__$82006dba501dec65b4ad046752eee945f5$__916326532df8916001600160a01b03909116906370a0823190611dea903090600401614db1565b60206040518083038186803b158015611e0257600080fd5b505afa158015611e16573d6000803e3d6000fd5b505050506040513d601f19601f82011682018060405250810190611e3a9190614b6f565b60d5546001600160a01b0316600090815260ce6020526040908190206003015490516001600160e01b031960e085901b168152611e7b929190600401615151565b60206040518083038186803b158015611e9357600080fd5b505af4158015611ea7573d6000803e3d6000fd5b505050506040513d601f19601f82011682018060405250810190611ecb9190614b6f565b6140b3565b60df54604051630a6de2c960e01b81526000918291829173__$82006dba501dec65b4ad046752eee945f5$__91630a6de2c991611f1b916001600160a01b0390911690600401614db1565b60206040518083038186803b158015611f3357600080fd5b505af4158015611f47573d6000803e3d6000fd5b505050506040513d601f19601f82011682018060405250810190611f6b9190614b3b565b60d2549091506000906001600160a01b03600160301b9091048116908316101561203a5760d25460d3546040516367df6e8960e01b815273__$82006dba501dec65b4ad046752eee945f5$__926367df6e8992611fe392600160301b9092046001600160a01b03908116929116908a90600401615114565b60206040518083038186803b158015611ffb57600080fd5b505af415801561200f573d6000803e3d6000fd5b505050506040513d601f19601f820116820180604052508101906120339190614b1f565b9050612195565b60d3546001600160a01b0390811690831611156120a55760d25460d3546040516308c0f79560e01b815273__$82006dba501dec65b4ad046752eee945f5$__926308c0f79592611fe392600160301b9092046001600160a01b03908116929116908a90600401615114565b60ff86166120f55760d3546040516367df6e8960e01b815273__$82006dba501dec65b4ad046752eee945f5$__916367df6e8991611fe39186916001600160a01b03909116908a90600401615114565b60d2546040516308c0f79560e01b815273__$82006dba501dec65b4ad046752eee945f5$__916308c0f7959161214291600160301b90046001600160a01b03169086908a90600401615114565b60206040518083038186803b15801561215a57600080fd5b505af415801561216e573d6000803e3d6000fd5b505050506040513d601f19601f820116820180604052508101906121929190614b1f565b90505b61219e81610cdd565b9097909650945050505050565b6000806121b6610a2d565b9050806121cf5768056bc75e2d6310000091505061090d565b6000806121da61083d565b9150915085600014156121fc576121f58161081d87866129be565b935061220d565b61220a8261081d88866129be565b93505b50505092915050565b61221e611934565b6001600160a01b0316336001600160a01b03161480612247575060e0546001600160a01b031633145b6122635760405162461bcd60e51b8152600401610a8090614f05565b6000806122708484611030565b9150915061227e82826140ff565b505050505050565b6001600160a01b03918216600090815260346020908152604080832093909416825291909152205490565b6122b961180a565b156122fe576040805162461bcd60e51b815260206004820152601060248201526f14185d5cd8589b194e881c185d5cd95960821b604482015290519081900360640190fd5b600082118061230d5750600081115b61231657600080fd5b6000806123238484611030565b9092509050612338606461081d8660636129be565b82101580156123475750838211155b8015612362575061235e606461081d8560636129be565b8110155b801561236e5750828111155b61238a5760405162461bcd60e51b8152600401610a8090615034565b60d4549193509150829082906123ab906001600160a01b03163330856130f5565b60d5546123c3906001600160a01b03163330866130f5565b60006123cf85856121ab565b90506123db30826132ee565b6123e585856140ff565b50506123f181336133ce565b60d6546040516340c10f1960e01b81526001600160a01b03909116906340c10f19906124239033908590600401614dc5565b602060405180830381600087803b15801561243d57600080fd5b505af1158015612451573d6000803e3d6000fd5b505050506040513d601f19601f8201168201806040525081019061247591906149dc565b50336001600160a01b03167f90890809c654f11d6e72a28fa60149770a0d11ec6c92319d6ceb2bb0a4ea1a1586866040516124b1929190615151565b60405180910390a25050505050565b6000806124cb611934565b6001600160a01b0316336001600160a01b031614806124f4575060e0546001600160a01b031633145b6125105760405162461bcd60e51b8152600401610a8090614f05565b6125216001600160801b03806141a8565b60da549193509150600090612537908490612a17565b9050600061255060da5484612a1790919063ffffffff16565b60e15460d454919250612570916001600160a01b03908116911684613d1f565b60e15460d55461258d916001600160a01b03918216911683613d1f565b6125978483612eb6565b93506125a38382612eb6565b92507faf7c505ee772ec188af7067e1f73db08ab028e3d564273442b907742b9c41fa084846040516125d6929190615151565b60405180910390a150509091565b6125ec6124c0565b50506125f66127ca565b565b60cb5481565b600060d0546000141561262d57506001600160a01b038116600090815260ce6020526040902060010154610a22565b60d0546001600160a01b038316600090815260ce602090815260408083205460cd9092529091205461090d9261268292909161081d91670de0b6b3a76400009161267c91908290610b43611926565b906129be565b6001600160a01b038416600090815260ce602052604090206001015490612b6e565b6126ac612a7e565b6001600160a01b03166126bd611934565b6001600160a01b031614612706576040805162461bcd60e51b8152602060048201819052602482015260008051602061546d833981519152604482015290519081900360640190fd5b6001600160a01b03811661274b5760405162461bcd60e51b81526004018080602001828103825260268152602001806153626026913960400191505060405180910390fd5b6065546040516001600160a01b0380841692169060008051602061548d83398151915290600090a3606580546001600160a01b0319166001600160a01b0392909216919091179055565b61279d611c36565b6127a88383836119a4565b505050565b60dc5460dd5460de546001600160a01b0392831692918216911683565b6127d2611934565b6001600160a01b0316336001600160a01b031614806127fb575060e0546001600160a01b031633145b6128175760405162461bcd60e51b8152600401610a8090614f05565b60408051610100808201835260d4546001600160a01b0390811680845260d5548216602080860182905260d8548688015260d95460608088019190915260db5460ff6301000000820481166080808b0191909152600160201b830490911660a0808b0191909152600096875260ce8086528b882060039081015460c0808e0191909152978952908652968b90209096015460e0808b01919091528a5161012081018c5262ffffff909316835260d35463ffffffff600160a01b8204169584019590955260d254600160301b90048816838c01529387169282019290925260d7549181019190915260de5485169381019390935260dc5484169183019190915260dd5483169082015260df54909116918101919091529151630e7b8c5560e31b815273__$82006dba501dec65b4ad046752eee945f5$__926373dc62a89261296392909190600401615062565b60006040518083038186803b15801561297b57600080fd5b505af415801561298f573d6000803e3d6000fd5b50506040517f7262150074559fc5b98736d4076d5db467064db56ba86cf6f82a94c8c0cc44a6925060009150a1565b6000826129cd5750600061090d565b828202828482816129da57fe5b0414610a015760405162461bcd60e51b81526004018080602001828103825260218152602001806154246021913960400191505060405180910390fd5b6000808211612a6d576040805162461bcd60e51b815260206004820152601a60248201527f536166654d6174683a206469766973696f6e206279207a65726f000000000000604482015290519081900360640190fd5b818381612a7657fe5b049392505050565b3390565b6001600160a01b038316612ac75760405162461bcd60e51b81526004018080602001828103825260248152602001806155136024913960400191505060405180910390fd5b6001600160a01b038216612b0c5760405162461bcd60e51b81526004018080602001828103825260228152602001806153886022913960400191505060405180910390fd5b6001600160a01b03808416600081815260346020908152604080832094871680845294825291829020859055815185815291517f8c5be1e5ebec7d5bd14f71427d1e84f3dd0314c0f7b2291e5b200ac8c7c3b9259281900390910190a3505050565b600082820183811015610a01576040805162461bcd60e51b815260206004820152601b60248201527f536166654d6174683a206164646974696f6e206f766572666c6f770000000000604482015290519081900360640190fd5b604080516101208101825260db5462ffffff8116825260d35463ffffffff600160a01b82041660208085019190915260d2546001600160a01b03600160301b90910481168587015291821660608086019190915260d75460808087019190915260de54841660a08088019190915260dc54851660c08089019190915260dd54861660e0808a019190915260df548716610100808b01919091528a519081018b5260d454881680825260d55490981681880181905260d854828d015260d9549682019690965260ff63010000008a04811695820195909552600160201b90980490931691870191909152600094855260ce8085528886206003908101549288019290925292855291909252918590209091015490820152915163d47f6bf360e01b815273__$82006dba501dec65b4ad046752eee945f5$__9263d47f6bf392612d179287928792916004016151c6565b60206040518083038186803b158015612d2f57600080fd5b505af4158015612d43573d6000803e3d6000fd5b505050506040513d601f19601f820116820180604052508101906127a89190614b6f565b604080516101208101825260db5462ffffff8116825260d35463ffffffff600160a01b82041660208085019190915260d2546001600160a01b03600160301b90910481168587015291821660608086019190915260d75460808087019190915260de54841660a08088019190915260dc54851660c08089019190915260dd54861660e0808a019190915260df548716610100808b01919091528a519081018b5260d454881680825260d55490981681880181905260d854828d015260d9549682019690965260ff63010000008a04811695820195909552600160201b90980490931691870191909152600094855260ce808552888620600390810154928801929092529285529190925291859020909101549082015291516393e84a2d60e01b815273__$82006dba501dec65b4ad046752eee945f5$__926393e84a2d92612d179287928792916004016151c6565b600082821115612f0d576040805162461bcd60e51b815260206004820152601e60248201527f536166654d6174683a207375627472616374696f6e206f766572666c6f770000604482015290519081900360640190fd5b50900390565b6001600160a01b038316612f585760405162461bcd60e51b81526004018080602001828103825260258152602001806154ee6025913960400191505060405180910390fd5b6001600160a01b038216612f9d5760405162461bcd60e51b81526004018080602001828103825260238152602001806152d56023913960400191505060405180910390fd5b612fa88383836127a8565b612fe5816040518060600160405280602681526020016153aa602691396001600160a01b038616600090815260336020526040902054919061305e565b6001600160a01b0380851660009081526033602052604080822093909355908416815220546130149082612b6e565b6001600160a01b0380841660008181526033602090815260409182902094909455805185815290519193928716926000805160206154ad83398151915292918290030190a3505050565b600081848411156130ed5760405162461bcd60e51b81526004018080602001828103825283818151815260200191508051906020019080838360005b838110156130b257818101518382015260200161309a565b50505050905090810190601f1680156130df5780820380516001836020036101000a031916815260200191505b509250505060405180910390fd5b505050900390565b604080516001600160a01b0380861660248301528416604482015260648082018490528251808303909101815260849091019091526020810180516001600160e01b03166323b872dd60e01b17905261314f9085906141f7565b50505050565b60de5460408051610100818101835260d4546001600160a01b0390811680845260d5548216602080860182905260d8548688015260d95460608088019190915260db5460ff6301000000820481166080808b0191909152600160201b830490911660a0808b0191909152600096875260ce8086528b882060039081015460c0808e01919091529789529086528b8820015460e0808c01919091528b5161012081018d5262ffffff909416845260d35463ffffffff600160a01b8204169685019690965260d254600160301b90048916848d015294881693830193909352810185905298851690890181905260dc5485169289019290925260dd5484169088015260df549092169286019290925292516305f80c5760e11b8152909373__$82006dba501dec65b4ad046752eee945f5$__93630bf018ae9361329e9389938993929160040161515f565b60206040518083038186803b1580156132b657600080fd5b505af41580156132ca573d6000803e3d6000fd5b505050506040513d601f19601f82011682018060405250810190610a019190614b6f565b6001600160a01b038216613349576040805162461bcd60e51b815260206004820152601f60248201527f45524332303a206d696e7420746f20746865207a65726f206164647265737300604482015290519081900360640190fd5b613355600083836127a8565b6035546133629082612b6e565b6035556001600160a01b0382166000908152603360205260409020546133889082612b6e565b6001600160a01b03831660008181526033602090815260408083209490945583518581529351929391926000805160206154ad8339815191529281900390910190a35050565b600260c9541415613414576040805162461bcd60e51b815260206004820152601f60248201526000805160206152f8833981519152604482015290519081900360640190fd5b600260c95561342281613df4565b60d05461342f9083612b6e565b60d0556001600160a01b038116600090815260d160205260409020546134559083612b6e565b6001600160a01b038216600081815260d16020908152604091829020939093558051858152905191927f9e71bc8eea02a63969f509818f2dafb9254532904319f9dbda79b67bd34a5f3d92918290030190a25050600160c955565b60006134bb306142a8565b15905090565b600054610100900460ff16806134da57506134da6134b0565b806134e8575060005460ff16155b6135235760405162461bcd60e51b815260040180806020018281038252602e8152602001806153f6602e913960400191505060405180910390fd5b600054610100900460ff1615801561354e576000805460ff1961ff0019909116610100171660011790555b8015611c7e576000805461ff001916905550565b600054610100900460ff168061357b575061357b6134b0565b80613589575060005460ff16155b6135c45760405162461bcd60e51b815260040180806020018281038252602e8152602001806153f6602e913960400191505060405180910390fd5b600054610100900460ff161580156135ef576000805460ff1961ff0019909116610100171660011790555b60006135f9612a7e565b606580546001600160a01b0319166001600160a01b0383169081179091556040519192509060009060008051602061548d833981519152908290a3508015611c7e576000805461ff001916905550565b600054610100900460ff168061366257506136626134b0565b80613670575060005460ff16155b6136ab5760405162461bcd60e51b815260040180806020018281038252602e8152602001806153f6602e913960400191505060405180910390fd5b600054610100900460ff161580156136d6576000805460ff1961ff0019909116610100171660011790555b6097805460ff191690558015611c7e576000805461ff001916905550565b600054610100900460ff168061370d575061370d6134b0565b8061371b575060005460ff16155b6137565760405162461bcd60e51b815260040180806020018281038252602e8152602001806153f6602e913960400191505060405180910390fd5b600054610100900460ff16158015613781576000805460ff1961ff0019909116610100171660011790555b825161379490603690602086019061468b565b5081516137a890603790602085019061468b565b506038805460ff1916601217905580156127a8576000805461ff0019169055505050565b600061386282856001600160a01b031663dd62ed3e30876040518363ffffffff1660e01b815260040180836001600160a01b03168152602001826001600160a01b031681526020019250505060206040518083038186803b15801561383057600080fd5b505afa158015613844573d6000803e3d6000fd5b505050506040513d602081101561385a57600080fd5b505190612b6e565b604080516001600160a01b038616602482015260448082018490528251808303909101815260649091019091526020810180516001600160e01b031663095ea7b360e01b17905290915061314f9085906141f7565b6138bf61180a565b15613904576040805162461bcd60e51b815260206004820152601060248201526f14185d5cd8589b194e881c185d5cd95960821b604482015290519081900360640190fd5b6097805460ff191660011790557f62e78cea01bee320cd4e420270b5ea74000d11b0c9f74754ebdbfc544b05a25861393a612a7e565b604080516001600160a01b039092168252519081900360200190a1565b60db5460d854604051630e0f332360e11b815260009273__$82006dba501dec65b4ad046752eee945f5$__92631c1e6646926139a3928792630100000090910460ff1691600401615242565b60206040518083038186803b1580156139bb57600080fd5b505af41580156139cf573d6000803e3d6000fd5b505050506040513d601f19601f8201168201806040525081019061090d9190614b6f565b6139fd6000613df4565b6001600160a01b038116600090815260ce6020526040902060cb544210613a335760cc54613a2c908490612a17565b8155613a84565b60cb54600090613a439042612eb6565b6001600160a01b038416600090815260ce602052604081205491925090613a6b9083906129be565b60cc54909150613a7f9061081d8784612b6e565b835550505b600281018390556003810154613a9a9084612b6e565b60038201556001600160a01b038216600090815260cd60205260409020429081905560cc54613ac99190612b6e565b60cb556040805184815290517fde88a922e0d3b88b24e9623efeb464919c6bf9f66857a65e2bfcf2ce87a9433d9181900360200190a1505050565b6000818310613b135781610a01565b5090919050565b600260c9541415613b60576040805162461bcd60e51b815260206004820152601f60248201526000805160206152f8833981519152604482015290519081900360640190fd5b600260c955613b6e81613df4565b60d054613b7b9083612eb6565b60d0556001600160a01b038116600090815260d16020526040902054613ba19083612eb6565b6001600160a01b038216600081815260d16020908152604091829020939093558051858152905191927f7084f5476618d8e60b11ef0d7d3f06914655adb8793e28ff7f018d4c76d505d592918290030190a25050600160c955565b6001600160a01b038216613c415760405162461bcd60e51b81526004018080602001828103825260218152602001806154cd6021913960400191505060405180910390fd5b613c4d826000836127a8565b613c8a81604051806060016040528060228152602001615318602291396001600160a01b038516600090815260336020526040902054919061305e565b6001600160a01b038316600090815260336020526040902055603554613cb09082612eb6565b6035556040805182815290516000916001600160a01b038516916000805160206154ad8339815191529181900360200190a35050565b6000806000613cf58585610952565b9050600080613d03836142ae565b91509150613d1182826141a8565b945094505050509250929050565b604080516001600160a01b038416602482015260448082018490528251808303909101815260649091019091526020810180516001600160e01b031663a9059cbb60e01b1790526127a89084906141f7565b613d7961180a565b613dc1576040805162461bcd60e51b815260206004820152601460248201527314185d5cd8589b194e881b9bdd081c185d5cd95960621b604482015290519081900360640190fd5b6097805460ff191690557f5db9ee0a495bf2e6ff9c91a7834c1ba4fdd244a5e8aa4e537bd38aeae4b073aa61393a612a7e565b60005b60ca54811015610ac957613e2c8260ca8381548110613e1257fe5b6000918252602090912001546001600160a01b03166143bc565b600101613df7565b6000613e403383610ae8565b90508015610ac9576001600160a01b038216600090815260ce6020526040902060030154811115613ece576001600160a01b038216600090815260ce6020526040902060030154613e92908290612eb6565b6001600160a01b038316600081815260ce6020818152604080842033855260058101835290842095909555929091529052600301549050613ef6565b6001600160a01b038216600090815260ce602090815260408083203384526005019091528120555b60cf5460ff1615613fa35760cf54613f20906001600160a01b038481169161010090041683613d1f565b60cf5460408051626fcbd160e91b81526001600160a01b0385811660048301523360248301523060448301526064820185905291516101009093049091169163df97a2009160848082019260009290919082900301818387803b158015613f8657600080fd5b505af1158015613f9a573d6000803e3d6000fd5b50505050613fb7565b613fb76001600160a01b0383163383613d1f565b6001600160a01b038216600090815260ce6020526040902060030154613fdd9082612eb6565b6001600160a01b038316600081815260ce60209081526040918290206003019390935580518481529051919233927f0aa4d283470c904c551d18bb894d37e17674920f3261a7f854be501e25f421b79281900390910190a35050565b600081116140785760405162461bcd60e51b815260040180806020018281038252602881526020018061533a6028913960400191505060405180910390fd5b60cc8190556040805182815290517ffb46ca5a5e06d4540d6387b930a7c978bce0db5f449ec6b3f5d07c6e1d44f2d39181900360200190a150565b60db5460d95460405163986c958d60e01b815260009273__$82006dba501dec65b4ad046752eee945f5$__9263986c958d926139a3928792600160201b90910460ff1691600401615242565b60de5460d754604051631c4558f560e21b8152600092839273__$82006dba501dec65b4ad046752eee945f5$__9263711563d49261414e92899289926001600160a01b031691906004016151a2565b604080518083038186803b15801561416557600080fd5b505af4158015614179573d6000803e3d6000fd5b505050506040513d601f19601f8201168201806040525081019061419d9190614bf0565b915091509250929050565b60d75460de546040516351f063a960e01b8152600092839273__$82006dba501dec65b4ad046752eee945f5$__926351f063a99261414e9289928992916001600160a01b0316906004016150b1565b600061424c826040518060400160405280602081526020017f5361666545524332303a206c6f772d6c6576656c2063616c6c206661696c6564815250856001600160a01b031661444e9092919063ffffffff16565b8051909150156127a85780806020019051602081101561426b57600080fd5b50516127a85760405162461bcd60e51b815260040180806020018281038252602a815260200180615537602a913960400191505060405180910390fd5b3b151590565b604080516101208101825260db5462ffffff16815260d35463ffffffff600160a01b820416602083015260d2546001600160a01b03600160301b909104811683850152908116606083015260d754608083015260de54811660a083015260dc54811660c083015260dd54811660e083015260df54166101008201529051630b80f8f160e31b8152600091829173__$82006dba501dec65b4ad046752eee945f5$__91635c07c78891614364918791600401615093565b604080518083038186803b15801561437b57600080fd5b505af415801561438f573d6000803e3d6000fd5b505050506040513d601f19601f820116820180604052508101906143b39190614bf0565b91509150915091565b6001600160a01b038116600090815260ce602052604090206143dd826125fe565b60018201556143ea611926565b6001600160a01b03808416600090815260cd60205260409020919091558316156127a8576144188383610ae8565b6001600160a01b038416600090815260058301602090815260408083209390935560018401546004850190915291902055505050565b606061445d8484600085614465565b949350505050565b6060824710156144a65760405162461bcd60e51b81526004018080602001828103825260268152602001806153d06026913960400191505060405180910390fd5b6144af856142a8565b614500576040805162461bcd60e51b815260206004820152601d60248201527f416464726573733a2063616c6c20746f206e6f6e2d636f6e7472616374000000604482015290519081900360640190fd5b600080866001600160a01b031685876040518082805190602001908083835b6020831061453e5780518252601f19909201916020918201910161451f565b6001836020036101000a03801982511681845116808217855250505050505090500191505060006040518083038185875af1925050503d80600081146145a0576040519150601f19603f3d011682016040523d82523d6000602084013e6145a5565b606091505b50915091506145b58282866145c0565b979650505050505050565b606083156145cf575081610a01565b8251156145df5782518084602001fd5b60405162461bcd60e51b81526020600482018181528451602484015284518593919283926044019190850190808383600083156130b257818101518382015260200161309a565b82805482825590600052602060002090810192821561467b579160200282015b8281111561467b57825182546001600160a01b0319166001600160a01b03909116178255602090920191600190910190614646565b50614687929150614707565b5090565b828054600181600116156101000203166002900490600052602060002090601f0160209004810192826146c1576000855561467b565b82601f106146da57805160ff191683800117855561467b565b8280016001018555821561467b579182015b8281111561467b5782518255916020019190600101906146ec565b5b808211156146875760008155600101614708565b8035610a228161528d565b8035610a22816152a2565b8035600281900b8114610a2257600080fd5b600082601f830112614754578081fd5b813567ffffffffffffffff81111561476857fe5b61477b601f8201601f1916602001615269565b81815284602083860101111561478f578283fd5b816020850160208301379081016020019190915292915050565b6000606082840312156147ba578081fd5b6040516060810167ffffffffffffffff82821081831117156147d857fe5b8160405282935084359150808211156147f057600080fd5b818501915085601f83011261480457600080fd5b813560208282111561481257fe5b8082029250614822818401615269565b8281528181019085830185870184018b101561483d57600080fd5b600096505b8487101561486c57803595506148578661528d565b85835260019690960195918301918301614842565b5086525061487b87820161471c565b818601525050505061488f60408401614727565b60408201525092915050565b6000606082840312156148ac578081fd5b6040516060810181811067ffffffffffffffff821117156148c957fe5b60405290508082356148da8161528d565b815260208301356148ea8161528d565b602082015260408301356148fd8161528d565b6040919091015292915050565b803562ffffff81168114610a2257600080fd5b60006020828403121561492e578081fd5b8135610a018161528d565b6000806040838503121561494b578081fd5b82356149568161528d565b915060208301356149668161528d565b809150509250929050565b600080600060608486031215614985578081fd5b83356149908161528d565b925060208401356149a08161528d565b929592945050506040919091013590565b600080604083850312156149c3578182fd5b82356149ce8161528d565b946020939093013593505050565b6000602082840312156149ed578081fd5b8151610a01816152a2565b6000806000806000806000806000806000806101c08d8f031215614a1a578788fd5b67ffffffffffffffff8d351115614a2f578788fd5b614a3c8e8e358f01614744565b9b50614a4a60208e01614732565b9a50614a5860408e01614732565b9950614a6660608e0161490a565b985060808d01359750614a7b60a08e0161471c565b9650614a8960c08e0161471c565b9550614a9760e08e0161471c565b9450614aa66101008e0161471c565b9350614ab56101208e0161471c565b9250614ac58e6101408f0161489b565b915067ffffffffffffffff6101a08e01351115614ae0578081fd5b614af18e6101a08f01358f016147a9565b90509295989b509295989b509295989b565b600060208284031215614b14578081fd5b8135610a01816152b0565b600060208284031215614b30578081fd5b8151610a01816152b0565b600060208284031215614b4c578081fd5b8151610a018161528d565b600060208284031215614b68578081fd5b5035919050565b600060208284031215614b80578081fd5b5051919050565b60008060408385031215614b99578182fd5b8235915060208301356149668161528d565b60008060408385031215614bbd578182fd5b823591506020830135614966816152a2565b60008060408385031215614be1578182fd5b50508035926020909101359150565b60008060408385031215614c02578182fd5b505080516020909101519092909150565b600080600060608486031215614c27578081fd5b83359250602084013591506040840135614c408161528d565b809150509250925092565b600080600060608486031215614c5f578081fd5b505081359360208301359350604090920135919050565b600060208284031215614c87578081fd5b8151610a01816152c5565b60008060408385031215614ca4578182fd5b82356149ce816152c5565b6001600160a01b03169052565b62ffffff815116825263ffffffff60208201511660208301526040810151614ce76040840182614caf565b506060810151614cfa6060840182614caf565b506080810151608083015260a0810151614d1760a0840182614caf565b5060c0810151614d2a60c0840182614caf565b5060e0810151614d3d60e0840182614caf565b506101008082015161314f82850182614caf565b60018060a01b0380825116835280602083015116602084015250604081015160408301526060810151606083015260ff608082015116608083015260ff60a08201511660a083015260c081015160c083015260e081015160e08301525050565b6001600160a01b0391909116815260200190565b6001600160a01b03929092168252602082015260400190565b6001600160a01b0393841681529183166020830152909116604082015260600190565b6020808252825182820181905260009190848201906040850190845b81811015614e425783516001600160a01b031683529284019291840191600101614e1d565b50909695505050505050565b901515815260200190565b60029190910b815260200190565b600292830b8152910b602082015260400190565b6000602080835283518082850152825b81811015614ea757858101830151858201604001528201614e8b565b81811115614eb85783604083870101525b50601f01601f1916929092016040019392505050565b6020808252601a908201527f4c657373207468616e20657870656374656420616d6f756e7473000000000000604082015260600190565b6020808252602f908201527f46756e6374696f6e206d61792062652063616c6c6564206f6e6c79206279206f60408201526e3bb732b91037b91036b0b730b3b2b960891b606082015260800190565b6020808252602d908201527f4f6e6c7920746f6b656e732077697468203c3d20313820646563696d616c732060408201526c185c99481cdd5c1c1bdc9d1959609a1b606082015260800190565b6020808252602b908201527f4164647265737320646f65736e2774206861766520656e6f7567682062616c6160408201526a3731b2903a3790313ab93760a91b606082015260800190565b60208082526028908201527f46756e6374696f6e206d61792062652063616c6c6564206f6e6c79207669612060408201526715195c9b5a5b985b60c21b606082015260800190565b602080825260149082015273507269636520736c69707061676520636865636b60601b604082015260600190565b61022081016150718285614d51565b610a01610100830184614cbc565b6001600160801b0391909116815260200190565b6001600160801b03831681526101408101610a016020830184614cbc565b6001600160801b03948516815292909316602083015260408201526001600160a01b03909116606082015260800190565b6001600160801b039490941684526001600160a01b039283166020850152908216604084015216606082015260800190565b6001600160a01b039384168152919092166020820152604081019190915260600190565b62ffffff91909116815260200190565b90815260200190565b918252602082015260400190565b858152602081018590526001600160a01b0384166040820152610280810161518a6060830185614d51565b615198610160830184614cbc565b9695505050505050565b93845260208401929092526001600160a01b03166040830152606082015260800190565b8481526020810184905261026081016151e26040830185614cbc565b6151f0610160830184614d51565b95945050505050565b94855260208501939093526001600160a01b0391821660408501528116606084015216608082015260a00190565b93845260208401929092526040830152606082015260800190565b92835260ff919091166020830152604082015260600190565b60ff91909116815260200190565b60405181810167ffffffffffffffff8111828210171561528557fe5b604052919050565b6001600160a01b0381168114611c7e57600080fd5b8015158114611c7e57600080fd5b6001600160801b0381168114611c7e57600080fd5b60ff81168114611c7e57600080fdfe45524332303a207472616e7366657220746f20746865207a65726f20616464726573735265656e7472616e637947756172643a207265656e7472616e742063616c6c0045524332303a206275726e20616d6f756e7420657863656564732062616c616e636552657761726473206475726174696f6e2073686f756c64206265206c6f6e676572207468616e20304f776e61626c653a206e6577206f776e657220697320746865207a65726f206164647265737345524332303a20617070726f766520746f20746865207a65726f206164647265737345524332303a207472616e7366657220616d6f756e7420657863656564732062616c616e6365416464726573733a20696e73756666696369656e742062616c616e636520666f722063616c6c496e697469616c697a61626c653a20636f6e747261637420697320616c726561647920696e697469616c697a6564536166654d6174683a206d756c7469706c69636174696f6e206f766572666c6f7745524332303a207472616e7366657220616d6f756e74206578636565647320616c6c6f77616e63654f776e61626c653a2063616c6c6572206973206e6f7420746865206f776e65728be0079c531659141344cd1fd0a4f28419497f9722a3daafe3b4186f6b6457e0ddf252ad1be2c89b69c2b068fc378daa952ba7f163c4a11628f55a4df523b3ef45524332303a206275726e2066726f6d20746865207a65726f206164647265737345524332303a207472616e736665722066726f6d20746865207a65726f206164647265737345524332303a20617070726f76652066726f6d20746865207a65726f20616464726573735361666545524332303a204552433230206f7065726174696f6e20646964206e6f74207375636365656445524332303a2064656372656173656420616c6c6f77616e63652062656c6f77207a65726fa264697066735822122056cc0e32aec44454313f8c174fcd0b91550fe332c4b504db5a8cf0d03c517a9664736f6c63430007060033",
  "linkReferences": {
    "contracts/libraries/UniswapLibrary.sol": {
      "UniswapLibrary": [
        {
          "length": 20,
          "start": 2460
        },
        {
          "length": 20,
          "start": 3369
        },
        {
          "length": 20,
          "start": 3626
        },
        {
          "length": 20,
          "start": 4598
        },
        {
          "length": 20,
          "start": 4792
        },
        {
          "length": 20,
          "start": 5898
        },
        {
          "length": 20,
          "start": 7647
        },
        {
          "length": 20,
          "start": 7960
        },
        {
          "length": 20,
          "start": 8147
        },
        {
          "length": 20,
          "start": 8341
        },
        {
          "length": 20,
          "start": 8430
        },
        {
          "length": 20,
          "start": 8502
        },
        {
          "length": 20,
          "start": 10601
        },
        {
          "length": 20,
          "start": 11547
        },
        {
          "length": 20,
          "start": 11962
        },
        {
          "length": 20,
          "start": 12961
        },
        {
          "length": 20,
          "start": 14750
        },
        {
          "length": 20,
          "start": 16634
        },
        {
          "length": 20,
          "start": 16712
        },
        {
          "length": 20,
          "start": 16881
        },
        {
          "length": 20,
          "start": 17259
        }
      ]
    }
  },
  "deployedLinkReferences": {
    "contracts/libraries/UniswapLibrary.sol": {
      "UniswapLibrary": [
        {
          "length": 20,
          "start": 2413
        },
        {
          "length": 20,
          "start": 3322
        },
        {
          "length": 20,
          "start": 3579
        },
        {
          "length": 20,
          "start": 4551
        },
        {
          "length": 20,
          "start": 4745
        },
        {
          "length": 20,
          "start": 5851
        },
        {
          "length": 20,
          "start": 7600
        },
        {
          "length": 20,
          "start": 7913
        },
        {
          "length": 20,
          "start": 8100
        },
        {
          "length": 20,
          "start": 8294
        },
        {
          "length": 20,
          "start": 8383
        },
        {
          "length": 20,
          "start": 8455
        },
        {
          "length": 20,
          "start": 10554
        },
        {
          "length": 20,
          "start": 11500
        },
        {
          "length": 20,
          "start": 11915
        },
        {
          "length": 20,
          "start": 12914
        },
        {
          "length": 20,
          "start": 14703
        },
        {
          "length": 20,
          "start": 16587
        },
        {
          "length": 20,
          "start": 16665
        },
        {
          "length": 20,
          "start": 16834
        },
        {
          "length": 20,
          "start": 17212
        }
      ]
    }
  }
}