{
  "_format": "hh-sol-artifact-1",
  "contractName": "RewardEscrow",
  "sourceName": "contracts/staking/RewardEscrow.sol",
  "abi": [
    {
      "anonymous": false,
      "inputs": [
        {
          "indexed": true,
          "internalType": "address",
          "name": "previousOwner",
          "type": "address"
        },
        {
          "indexed": true,
          "internalType": "address",
          "name": "newOwner",
          "type": "address"
        }
      ],
      "name": "OwnershipTransferred",
      "type": "event"
    },
    {
      "anonymous": false,
      "inputs": [
        {
          "indexed": true,
          "internalType": "address",
          "name": "rewardContract",
          "type": "address"
        }
      ],
      "name": "RewardContractAdded",
      "type": "event"
    },
    {
      "anonymous": false,
      "inputs": [
        {
          "indexed": true,
          "internalType": "address",
          "name": "rewardContract",
          "type": "address"
        }
      ],
      "name": "RewardContractRemoved",
      "type": "event"
    },
    {
      "anonymous": false,
      "inputs": [
        {
          "indexed": true,
          "internalType": "address",
          "name": "token",
          "type": "address"
        },
        {
          "indexed": true,
          "internalType": "address",
          "name": "from",
          "type": "address"
        },
        {
          "indexed": true,
          "internalType": "address",
          "name": "to",
          "type": "address"
        },
        {
          "indexed": false,
          "internalType": "uint256",
          "name": "value",
          "type": "uint256"
        }
      ],
      "name": "Transfer",
      "type": "event"
    },
    {
      "anonymous": false,
      "inputs": [
        {
          "indexed": true,
          "internalType": "address",
          "name": "pool",
          "type": "address"
        },
        {
          "indexed": true,
          "internalType": "address",
          "name": "token",
          "type": "address"
        },
        {
          "indexed": true,
          "internalType": "address",
          "name": "beneficiary",
          "type": "address"
        },
        {
          "indexed": false,
          "internalType": "uint256",
          "name": "time",
          "type": "uint256"
        },
        {
          "indexed": false,
          "internalType": "uint256",
          "name": "value",
          "type": "uint256"
        }
      ],
      "name": "Vested",
      "type": "event"
    },
    {
      "anonymous": false,
      "inputs": [
        {
          "indexed": true,
          "internalType": "address",
          "name": "pool",
          "type": "address"
        },
        {
          "indexed": true,
          "internalType": "address",
          "name": "token",
          "type": "address"
        },
        {
          "indexed": true,
          "internalType": "address",
          "name": "beneficiary",
          "type": "address"
        },
        {
          "indexed": false,
          "internalType": "uint256",
          "name": "time",
          "type": "uint256"
        },
        {
          "indexed": false,
          "internalType": "uint256",
          "name": "value",
          "type": "uint256"
        }
      ],
      "name": "VestingEntryCreated",
      "type": "event"
    },
    {
      "anonymous": false,
      "inputs": [
        {
          "indexed": true,
          "internalType": "address",
          "name": "pool",
          "type": "address"
        },
        {
          "indexed": false,
          "internalType": "uint256",
          "name": "vestingPeriod",
          "type": "uint256"
        }
      ],
      "name": "VestingPeriodSet",
      "type": "event"
    },
    {
      "inputs": [],
      "name": "MAX_VESTING_ENTRIES",
      "outputs": [
        {
          "internalType": "uint256",
          "name": "",
          "type": "uint256"
        }
      ],
      "stateMutability": "view",
      "type": "function"
    },
    {
      "inputs": [
        {
          "internalType": "address",
          "name": "_rewardContract",
          "type": "address"
        }
      ],
      "name": "addRewardsContract",
      "outputs": [],
      "stateMutability": "nonpayable",
      "type": "function"
    },
    {
      "inputs": [
        {
          "internalType": "address",
          "name": "token",
          "type": "address"
        },
        {
          "internalType": "address",
          "name": "account",
          "type": "address"
        },
        {
          "internalType": "address",
          "name": "pool",
          "type": "address"
        },
        {
          "internalType": "uint256",
          "name": "quantity",
          "type": "uint256"
        }
      ],
      "name": "appendVestingEntry",
      "outputs": [],
      "stateMutability": "nonpayable",
      "type": "function"
    },
    {
      "inputs": [
        {
          "internalType": "address",
          "name": "token",
          "type": "address"
        },
        {
          "internalType": "address",
          "name": "account",
          "type": "address"
        }
      ],
      "name": "balanceOf",
      "outputs": [
        {
          "internalType": "uint256",
          "name": "",
          "type": "uint256"
        }
      ],
      "stateMutability": "view",
      "type": "function"
    },
    {
      "inputs": [
        {
          "internalType": "address",
          "name": "pool",
          "type": "address"
        },
        {
          "internalType": "address",
          "name": "token",
          "type": "address"
        },
        {
          "internalType": "address",
          "name": "account",
          "type": "address"
        }
      ],
      "name": "checkAccountSchedule",
      "outputs": [
        {
          "internalType": "uint256[520]",
          "name": "",
          "type": "uint256[520]"
        }
      ],
      "stateMutability": "view",
      "type": "function"
    },
    {
      "inputs": [
        {
          "internalType": "address",
          "name": "",
          "type": "address"
        }
      ],
      "name": "clrPoolVestingPeriod",
      "outputs": [
        {
          "internalType": "uint256",
          "name": "",
          "type": "uint256"
        }
      ],
      "stateMutability": "view",
      "type": "function"
    },
    {
      "inputs": [
        {
          "internalType": "address",
          "name": "pool",
          "type": "address"
        },
        {
          "internalType": "address",
          "name": "token",
          "type": "address"
        },
        {
          "internalType": "address",
          "name": "account",
          "type": "address"
        }
      ],
      "name": "getNextVestingEntry",
      "outputs": [
        {
          "internalType": "uint256[2]",
          "name": "",
          "type": "uint256[2]"
        }
      ],
      "stateMutability": "view",
      "type": "function"
    },
    {
      "inputs": [
        {
          "internalType": "address",
          "name": "pool",
          "type": "address"
        },
        {
          "internalType": "address",
          "name": "token",
          "type": "address"
        },
        {
          "internalType": "address",
          "name": "account",
          "type": "address"
        }
      ],
      "name": "getNextVestingIndex",
      "outputs": [
        {
          "internalType": "uint256",
          "name": "",
          "type": "uint256"
        }
      ],
      "stateMutability": "view",
      "type": "function"
    },
    {
      "inputs": [
        {
          "internalType": "address",
          "name": "pool",
          "type": "address"
        },
        {
          "internalType": "address",
          "name": "token",
          "type": "address"
        },
        {
          "internalType": "address",
          "name": "account",
          "type": "address"
        }
      ],
      "name": "getNextVestingQuantity",
      "outputs": [
        {
          "internalType": "uint256",
          "name": "",
          "type": "uint256"
        }
      ],
      "stateMutability": "view",
      "type": "function"
    },
    {
      "inputs": [
        {
          "internalType": "address",
          "name": "pool",
          "type": "address"
        },
        {
          "internalType": "address",
          "name": "token",
          "type": "address"
        },
        {
          "internalType": "address",
          "name": "account",
          "type": "address"
        }
      ],
      "name": "getNextVestingTime",
      "outputs": [
        {
          "internalType": "uint256",
          "name": "",
          "type": "uint256"
        }
      ],
      "stateMutability": "view",
      "type": "function"
    },
    {
      "inputs": [
        {
          "internalType": "address",
          "name": "pool",
          "type": "address"
        },
        {
          "internalType": "address",
          "name": "token",
          "type": "address"
        },
        {
          "internalType": "address",
          "name": "account",
          "type": "address"
        },
        {
          "internalType": "uint256",
          "name": "index",
          "type": "uint256"
        }
      ],
      "name": "getVestingQuantity",
      "outputs": [
        {
          "internalType": "uint256",
          "name": "",
          "type": "uint256"
        }
      ],
      "stateMutability": "view",
      "type": "function"
    },
    {
      "inputs": [
        {
          "internalType": "address",
          "name": "pool",
          "type": "address"
        },
        {
          "internalType": "address",
          "name": "token",
          "type": "address"
        },
        {
          "internalType": "address",
          "name": "account",
          "type": "address"
        },
        {
          "internalType": "uint256",
          "name": "index",
          "type": "uint256"
        }
      ],
      "name": "getVestingScheduleEntry",
      "outputs": [
        {
          "internalType": "uint256[2]",
          "name": "",
          "type": "uint256[2]"
        }
      ],
      "stateMutability": "view",
      "type": "function"
    },
    {
      "inputs": [
        {
          "internalType": "address",
          "name": "pool",
          "type": "address"
        },
        {
          "internalType": "address",
          "name": "token",
          "type": "address"
        },
        {
          "internalType": "address",
          "name": "account",
          "type": "address"
        },
        {
          "internalType": "uint256",
          "name": "index",
          "type": "uint256"
        }
      ],
      "name": "getVestingTime",
      "outputs": [
        {
          "internalType": "uint256",
          "name": "",
          "type": "uint256"
        }
      ],
      "stateMutability": "view",
      "type": "function"
    },
    {
      "inputs": [],
      "name": "initialize",
      "outputs": [],
      "stateMutability": "nonpayable",
      "type": "function"
    },
    {
      "inputs": [
        {
          "internalType": "address",
          "name": "",
          "type": "address"
        }
      ],
      "name": "isRewardContract",
      "outputs": [
        {
          "internalType": "bool",
          "name": "",
          "type": "bool"
        }
      ],
      "stateMutability": "view",
      "type": "function"
    },
    {
      "inputs": [
        {
          "internalType": "address",
          "name": "pool",
          "type": "address"
        },
        {
          "internalType": "address",
          "name": "token",
          "type": "address"
        },
        {
          "internalType": "address",
          "name": "account",
          "type": "address"
        }
      ],
      "name": "numVestingEntries",
      "outputs": [
        {
          "internalType": "uint256",
          "name": "",
          "type": "uint256"
        }
      ],
      "stateMutability": "view",
      "type": "function"
    },
    {
      "inputs": [],
      "name": "owner",
      "outputs": [
        {
          "internalType": "address",
          "name": "",
          "type": "address"
        }
      ],
      "stateMutability": "view",
      "type": "function"
    },
    {
      "inputs": [
        {
          "internalType": "address",
          "name": "_rewardContract",
          "type": "address"
        }
      ],
      "name": "removeRewardsContract",
      "outputs": [],
      "stateMutability": "nonpayable",
      "type": "function"
    },
    {
      "inputs": [],
      "name": "renounceOwnership",
      "outputs": [],
      "stateMutability": "nonpayable",
      "type": "function"
    },
    {
      "inputs": [
        {
          "internalType": "address",
          "name": "pool",
          "type": "address"
        },
        {
          "internalType": "uint256",
          "name": "vestingPeriod",
          "type": "uint256"
        }
      ],
      "name": "setCLRPoolVestingPeriod",
      "outputs": [],
      "stateMutability": "nonpayable",
      "type": "function"
    },
    {
      "inputs": [
        {
          "internalType": "address",
          "name": "",
          "type": "address"
        },
        {
          "internalType": "address",
          "name": "",
          "type": "address"
        }
      ],
      "name": "totalEscrowedAccountBalance",
      "outputs": [
        {
          "internalType": "uint256",
          "name": "",
          "type": "uint256"
        }
      ],
      "stateMutability": "view",
      "type": "function"
    },
    {
      "inputs": [
        {
          "internalType": "address",
          "name": "",
          "type": "address"
        }
      ],
      "name": "totalEscrowedBalance",
      "outputs": [
        {
          "internalType": "uint256",
          "name": "",
          "type": "uint256"
        }
      ],
      "stateMutability": "view",
      "type": "function"
    },
    {
      "inputs": [
        {
          "internalType": "address",
          "name": "token",
          "type": "address"
        }
      ],
      "name": "totalSupply",
      "outputs": [
        {
          "internalType": "uint256",
          "name": "",
          "type": "uint256"
        }
      ],
      "stateMutability": "view",
      "type": "function"
    },
    {
      "inputs": [
        {
          "internalType": "address",
          "name": "",
          "type": "address"
        },
        {
          "internalType": "address",
          "name": "",
          "type": "address"
        }
      ],
      "name": "totalVestedAccountBalance",
      "outputs": [
        {
          "internalType": "uint256",
          "name": "",
          "type": "uint256"
        }
      ],
      "stateMutability": "view",
      "type": "function"
    },
    {
      "inputs": [
        {
          "internalType": "address",
          "name": "newOwner",
          "type": "address"
        }
      ],
      "name": "transferOwnership",
      "outputs": [],
      "stateMutability": "nonpayable",
      "type": "function"
    },
    {
      "inputs": [
        {
          "internalType": "address",
          "name": "pool",
          "type": "address"
        },
        {
          "internalType": "address",
          "name": "token",
          "type": "address"
        }
      ],
      "name": "vest",
      "outputs": [],
      "stateMutability": "nonpayable",
      "type": "function"
    },
    {
      "inputs": [
        {
          "internalType": "address",
          "name": "pool",
          "type": "address"
        },
        {
          "internalType": "address[]",
          "name": "tokens",
          "type": "address[]"
        }
      ],
      "name": "vestAll",
      "outputs": [],
      "stateMutability": "nonpayable",
      "type": "function"
    },
    {
      "inputs": [
        {
          "internalType": "address",
          "name": "",
          "type": "address"
        },
        {
          "internalType": "address",
          "name": "",
          "type": "address"
        },
        {
          "internalType": "address",
          "name": "",
          "type": "address"
        },
        {
          "internalType": "uint256",
          "name": "",
          "type": "uint256"
        },
        {
          "internalType": "uint256",
          "name": "",
          "type": "uint256"
        }
      ],
      "name": "vestingSchedules",
      "outputs": [
        {
          "internalType": "uint256",
          "name": "",
          "type": "uint256"
        }
      ],
      "stateMutability": "view",
      "type": "function"
    }
  ],
  "bytecode": "0x608060405234801561001057600080fd5b50611d0d806100206000396000f3fe608060405234801561001057600080fd5b50600436106101845760003560e01c80638da5cb5b116100d9578063d0cc82e311610087578063d0cc82e314610606578063df97a2001461060e578063e4dc2aa41461064a578063f2fde38b14610670578063f7888aec14610696578063f9646c4e146106c4578063fc02b4e6146106f257610184565b80638da5cb5b146104ac5780638dde6b38146104d05780639f61e68e1461050c578063b0e852f814610532578063bb56571f1461056c578063bef7242a14610592578063d0ca9f1d146105ca57610184565b80635d808efe116101365780635d808efe1461038a5780636e6f730a146103b0578063715018a6146103fe57806374e30799146104065780637f4bb3111461043e5780638129fc1c14610476578063888bd29c1461047e57610184565b80630bcc8c171461018957806313f57f97146101b15780631ab3cee7146101f157806320b867b3146102715780633149b741146102e45780635aa1837d1461031c5780635bad20921461035e575b600080fd5b6101af6004803603602081101561019f57600080fd5b50356001600160a01b031661072e565b005b6101df600480360360408110156101c757600080fd5b506001600160a01b03813581169160200135166107fb565b60408051918252519081900360200190f35b6101af6004803603604081101561020757600080fd5b6001600160a01b03823516919081019060408101602082013564010000000081111561023257600080fd5b82018360208201111561024457600080fd5b8035906020019184602083028401116401000000008311171561026657600080fd5b509092509050610818565b6102a96004803603606081101561028757600080fd5b506001600160a01b038135811691602081013582169160409091013516610856565b6040518082600260200280838360005b838110156102d15781810151838201526020016102b9565b5050505090500191505060405180910390f35b6101df600480360360608110156102fa57600080fd5b506001600160a01b0381358116916020810135821691604090910135166108b1565b6101df600480360360a081101561033257600080fd5b506001600160a01b038135811691602081013582169160408201351690606081013590608001356108f7565b6101af6004803603604081101561037457600080fd5b506001600160a01b038135169060200135610953565b6101df600480360360208110156103a057600080fd5b50356001600160a01b0316610a09565b6103e8600480360360608110156103c657600080fd5b506001600160a01b038135811691602081013582169160409091013516610a1b565b60405181518152808261410080838360206102b9565b6101af610aa1565b6101df6004803603606081101561041c57600080fd5b506001600160a01b038135811691602081013582169160409091013516610b3b565b6101df6004803603606081101561045457600080fd5b506001600160a01b038135811691602081013582169160409091013516610b58565b6101af610b8d565b6101af6004803603604081101561049457600080fd5b506001600160a01b0381358116916020013516610c36565b6104b4610e89565b604080516001600160a01b039092168252519081900360200190f35b6101df600480360360808110156104e657600080fd5b506001600160a01b03813581169160208101358216916040820135169060600135610e98565b6101af6004803603602081101561052257600080fd5b50356001600160a01b0316610eb7565b6105586004803603602081101561054857600080fd5b50356001600160a01b0316610f85565b604080519115158252519081900360200190f35b6101df6004803603602081101561058257600080fd5b50356001600160a01b0316610f9a565b6101df600480360360608110156105a857600080fd5b506001600160a01b038135811691602081013582169160409091013516610fac565b6102a9600480360360808110156105e057600080fd5b506001600160a01b03813581169160208101358216916040820135169060600135610fc0565b6101df611048565b6101af6004803603608081101561062457600080fd5b506001600160a01b0381358116916020810135821691604082013516906060013561104e565b6101df6004803603602081101561066057600080fd5b50356001600160a01b0316611343565b6101af6004803603602081101561068657600080fd5b50356001600160a01b031661135e565b6101df600480360360408110156106ac57600080fd5b506001600160a01b038135811691602001351661144f565b6101df600480360360408110156106da57600080fd5b506001600160a01b038135811691602001351661147a565b6101df6004803603608081101561070857600080fd5b506001600160a01b03813581169160208101358216916040820135169060600135611497565b6107366114ac565b6001600160a01b0316610747610e89565b6001600160a01b031614610790576040805162461bcd60e51b81526020600482018190526024820152600080516020611c6e833981519152604482015290519081900360640190fd5b6001600160a01b03811660009081526065602052604090205460ff16156107f8576001600160a01b038116600081815260656020526040808220805460ff19169055517fdf629f2060d3f7f4a65bdb2ae8d8cad8c16cf804af98b16951819a8111ae44039190a25b50565b606860209081526000928352604080842090915290825290205481565b60005b81811015610850576108488484848481811061083357fe5b905060200201356001600160a01b0316610c36565b60010161081b565b50505050565b61085e611ac0565b600061086b8585856108b1565b9050610878858585610b58565b81141561089a57505060408051808201909152600080825260208201526108aa565b6108a685858584610fc0565b9150505b9392505050565b6000806108bf858585610b58565b905060005b818110156108ee576108d886868684610e98565b156108e65791506108aa9050565b6001016108c4565b50949350505050565b6066602052846000526040600020602052836000526040600020602052826000526040600020828154811061092b57600080fd5b9060005260206000209060020201816002811061094757600080fd5b01549450859350505050565b61095b6114ac565b6001600160a01b031661096c610e89565b6001600160a01b0316146109b5576040805162461bcd60e51b81526020600482018190526024820152600080516020611c6e833981519152604482015290519081900360640190fd5b6001600160a01b0382166000818152606a6020908152604091829020849055815184815291517fdbf2705a882ab3673447ec2203b97aeb0f720b8fd364172c54e04e60893aecd79281900390910190a25050565b60696020526000908152604090205481565b610a23611ade565b610a2b611ade565b6000610a38868686610b58565b905060005b81811015610a96576000610a5388888885610fc0565b805190915084600284026102088110610a6857fe5b6020020152806001602002015184836002026001016102088110610a8857fe5b602002015250600101610a3d565b509095945050505050565b610aa96114ac565b6001600160a01b0316610aba610e89565b6001600160a01b031614610b03576040805162461bcd60e51b81526020600482018190526024820152600080516020611c6e833981519152604482015290519081900360640190fd5b6033546040516000916001600160a01b031690600080516020611c8e833981519152908390a3603380546001600160a01b0319169055565b6000610b48848484610856565b60005b6020020151949350505050565b6001600160a01b0392831660009081526066602090815260408083209486168352938152838220929094168152925290205490565b600054610100900460ff1680610ba65750610ba66114b0565b80610bb4575060005460ff16155b610bef5760405162461bcd60e51b815260040180806020018281038252602e815260200180611c40602e913960400191505060405180910390fd5b600054610100900460ff16158015610c1a576000805460ff1961ff0019909116610100171660011790555b610c226114c1565b80156107f8576000805461ff001916905550565b6000610c43838333610b58565b90506000805b82811015610d08576000610c5f86863385610e98565b905042811115610c6f5750610d00565b6000610c7d87873386611497565b905080610c8b575050610d00565b604080518082018252600080825260208083018290526001600160a01b03808c16835260668252848320908b1683528152838220338352905291909120805485908110610cd457fe5b9060005260206000209060020201906002610cf0929190611afe565b50610cfb848261155e565b935050505b600101610c49565b508015610850576001600160a01b038316600090815260696020526040902054610d3290826115b8565b6001600160a01b0384166000908152606960209081526040808320939093556067815282822033835290522054610d6990826115b8565b6001600160a01b038416600081815260676020908152604080832033808552908352818420959095559282526068815282822093825292909252902054610db0908261155e565b6001600160a01b038416600081815260686020908152604080832033808552925290912092909255610de29183611615565b336001600160a01b0316836001600160a01b0316856001600160a01b03167f6c65c826a20b2e1e62e0dd5a03ab31df7534eb36e033a5b37bf1911d21f90a374285604051808381526020018281526020019250505060405180910390a460408051828152905160009133916001600160a01b038716917fd1398bee19313d6bf672ccb116e51f4a1a947e91c757907f51fbb5b5e56c698f919081900360200190a450505050565b6033546001600160a01b031690565b6000610ea685858585610fc0565b60005b602002015195945050505050565b610ebf6114ac565b6001600160a01b0316610ed0610e89565b6001600160a01b031614610f19576040805162461bcd60e51b81526020600482018190526024820152600080516020611c6e833981519152604482015290519081900360640190fd5b6001600160a01b03811660009081526065602052604090205460ff166107f8576001600160a01b038116600081815260656020526040808220805460ff19166001179055517f07d8ee2fc36bea90923c93777f9957c6e8ad8ef72ff3168ee0a65672cf5b6c969190a250565b60656020526000908152604090205460ff1681565b606a6020526000908152604090205481565b6000610fb9848484610856565b6001610b4b565b610fc8611ac0565b6001600160a01b0380861660009081526066602090815260408083208885168452825280832093871683529290522080548390811061100357fe5b600091825260209091206040805180820191829052926002908102909201919082845b8154815260200190600101908083116110265750505050509050949350505050565b61010481565b3360009081526065602052604090205460ff1661109c5760405162461bcd60e51b815260040180806020018281038252602c815260200180611c14602c913960400191505060405180910390fd5b6001600160a01b0384166000908152606960205260409020546110bf908261155e565b6001600160a01b0385166000818152606960209081526040918290209390935580516370a0823160e01b8152306004820152905191926370a0823192602480840193829003018186803b15801561111557600080fd5b505afa158015611129573d6000803e3d6000fd5b505050506040513d602081101561113f57600080fd5b50516001600160a01b03851660009081526069602052604090205411156111975760405162461bcd60e51b8152600401808060200182810382526043815260200180611b856043913960600191505060405180910390fd5b6001600160a01b038083166000908152606660209081526040808320888516845282528083209387168352929052205461010481111561121e576040805162461bcd60e51b815260206004820152601c60248201527f56657374696e67207363686564756c6520697320746f6f206c6f6e6700000000604482015290519081900360640190fd5b6001600160a01b038084166000908152606a60209081526040808320548985168452606783528184209489168452939091529020544290910190611262908461155e565b6001600160a01b0380881660008181526067602090815260408083208b8616808552908352818420969096559389168252606681528382209282529182528281209381529281528183208251808401909352848352828201879052805460018101825590845292206112dd9260029081029091019190611b41565b50846001600160a01b0316866001600160a01b0316856001600160a01b03167fcc83cf514d1745bd1323dbaea04b0eb38601601a74c5845684aedb423c33caa14287604051808381526020018281526020019250505060405180910390a4505050505050565b6001600160a01b031660009081526069602052604090205490565b6113666114ac565b6001600160a01b0316611377610e89565b6001600160a01b0316146113c0576040805162461bcd60e51b81526020600482018190526024820152600080516020611c6e833981519152604482015290519081900360640190fd5b6001600160a01b0381166114055760405162461bcd60e51b8152600401808060200182810382526026815260200180611bc86026913960400191505060405180910390fd5b6033546040516001600160a01b03808416921690600080516020611c8e83398151915290600090a3603380546001600160a01b0319166001600160a01b0392909216919091179055565b6001600160a01b03918216600090815260676020908152604080832093909416825291909152205490565b606760209081526000928352604080842090915290825290205481565b60006114a585858585610fc0565b6001610ea9565b3390565b60006114bb3061166c565b15905090565b600054610100900460ff16806114da57506114da6114b0565b806114e8575060005460ff16155b6115235760405162461bcd60e51b815260040180806020018281038252602e815260200180611c40602e913960400191505060405180910390fd5b600054610100900460ff1615801561154e576000805460ff1961ff0019909116610100171660011790555b611556611672565b610c22611712565b6000828201838110156108aa576040805162461bcd60e51b815260206004820152601b60248201527f536166654d6174683a206164646974696f6e206f766572666c6f770000000000604482015290519081900360640190fd5b60008282111561160f576040805162461bcd60e51b815260206004820152601e60248201527f536166654d6174683a207375627472616374696f6e206f766572666c6f770000604482015290519081900360640190fd5b50900390565b604080516001600160a01b038416602482015260448082018490528251808303909101815260649091019091526020810180516001600160e01b031663a9059cbb60e01b1790526116679084906117f9565b505050565b3b151590565b600054610100900460ff168061168b575061168b6114b0565b80611699575060005460ff16155b6116d45760405162461bcd60e51b815260040180806020018281038252602e815260200180611c40602e913960400191505060405180910390fd5b600054610100900460ff16158015610c22576000805460ff1961ff00199091166101001716600117905580156107f8576000805461ff001916905550565b600054610100900460ff168061172b575061172b6114b0565b80611739575060005460ff16155b6117745760405162461bcd60e51b815260040180806020018281038252602e815260200180611c40602e913960400191505060405180910390fd5b600054610100900460ff1615801561179f576000805460ff1961ff0019909116610100171660011790555b60006117a96114ac565b603380546001600160a01b0319166001600160a01b03831690811790915560405191925090600090600080516020611c8e833981519152908290a35080156107f8576000805461ff001916905550565b600061184e826040518060400160405280602081526020017f5361666545524332303a206c6f772d6c6576656c2063616c6c206661696c6564815250856001600160a01b03166118aa9092919063ffffffff16565b8051909150156116675780806020019051602081101561186d57600080fd5b50516116675760405162461bcd60e51b815260040180806020018281038252602a815260200180611cae602a913960400191505060405180910390fd5b60606118b984846000856118c1565b949350505050565b6060824710156119025760405162461bcd60e51b8152600401808060200182810382526026815260200180611bee6026913960400191505060405180910390fd5b61190b8561166c565b61195c576040805162461bcd60e51b815260206004820152601d60248201527f416464726573733a2063616c6c20746f206e6f6e2d636f6e7472616374000000604482015290519081900360640190fd5b600080866001600160a01b031685876040518082805190602001908083835b6020831061199a5780518252601f19909201916020918201910161197b565b6001836020036101000a03801982511681845116808217855250505050505090500191505060006040518083038185875af1925050503d80600081146119fc576040519150601f19603f3d011682016040523d82523d6000602084013e611a01565b606091505b5091509150611a11828286611a1c565b979650505050505050565b60608315611a2b5750816108aa565b825115611a3b5782518084602001fd5b8160405162461bcd60e51b81526004018080602001828103825283818151815260200191508051906020019080838360005b83811015611a85578181015183820152602001611a6d565b50505050905090810190601f168015611ab25780820380516001836020036101000a031916815260200191505b509250505060405180910390fd5b60405180604001604052806002906020820280368337509192915050565b604051806141000160405280610208906020820280368337509192915050565b8260028101928215611b31579160200282015b82811115611b31578251829060ff16905591602001919060010190611b11565b50611b3d929150611b6f565b5090565b8260028101928215611b31579160200282015b82811115611b31578251825591602001919060010190611b54565b5b80821115611b3d5760008155600101611b7056fe4e6f7420656e6f7567682062616c616e636520696e2074686520636f6e747261637420746f2070726f7669646520666f72207468652076657374696e6720656e7472794f776e61626c653a206e6577206f776e657220697320746865207a65726f2061646472657373416464726573733a20696e73756666696369656e742062616c616e636520666f722063616c6c4f6e6c792072657761726420636f6e74726163742063616e20706572666f726d207468697320616374696f6e496e697469616c697a61626c653a20636f6e747261637420697320616c726561647920696e697469616c697a65644f776e61626c653a2063616c6c6572206973206e6f7420746865206f776e65728be0079c531659141344cd1fd0a4f28419497f9722a3daafe3b4186f6b6457e05361666545524332303a204552433230206f7065726174696f6e20646964206e6f742073756363656564a2646970667358221220cf1225a2838f800502648314006fc9f14636b87f7e2adba99050793311a32ba464736f6c63430007060033",
  "linkReferences": {},
  "deployedLinkReferences": {}
}