{
  "_format": "hh-sol-artifact-1",
  "contractName": "StakedCLRToken",
  "sourceName": "contracts/StakedCLRToken.sol",
  "abi": [
    {
      "inputs": [],
      "stateMutability": "nonpayable",
      "type": "constructor"
    },
    {
      "anonymous": false,
      "inputs": [
        {
          "indexed": true,
          "internalType": "address",
          "name": "owner",
          "type": "address"
        },
        {
          "indexed": true,
          "internalType": "address",
          "name": "spender",
          "type": "address"
        },
        {
          "indexed": false,
          "internalType": "uint256",
          "name": "value",
          "type": "uint256"
        }
      ],
      "name": "Approval",
      "type": "event"
    },
    {
      "anonymous": false,
      "inputs": [
        {
          "indexed": true,
          "internalType": "address",
          "name": "from",
          "type": "address"
        },
        {
          "indexed": true,
          "internalType": "address",
          "name": "to",
          "type": "address"
        },
        {
          "indexed": false,
          "internalType": "uint256",
          "name": "value",
          "type": "uint256"
        }
      ],
      "name": "Transfer",
      "type": "event"
    },
    {
      "inputs": [
        {
          "internalType": "address",
          "name": "owner",
          "type": "address"
        },
        {
          "internalType": "address",
          "name": "spender",
          "type": "address"
        }
      ],
      "name": "allowance",
      "outputs": [
        {
          "internalType": "uint256",
          "name": "",
          "type": "uint256"
        }
      ],
      "stateMutability": "view",
      "type": "function"
    },
    {
      "inputs": [
        {
          "internalType": "address",
          "name": "spender",
          "type": "address"
        },
        {
          "internalType": "uint256",
          "name": "amount",
          "type": "uint256"
        }
      ],
      "name": "approve",
      "outputs": [
        {
          "internalType": "bool",
          "name": "",
          "type": "bool"
        }
      ],
      "stateMutability": "nonpayable",
      "type": "function"
    },
    {
      "inputs": [
        {
          "internalType": "address",
          "name": "account",
          "type": "address"
        }
      ],
      "name": "balanceOf",
      "outputs": [
        {
          "internalType": "uint256",
          "name": "",
          "type": "uint256"
        }
      ],
      "stateMutability": "view",
      "type": "function"
    },
    {
      "inputs": [
        {
          "internalType": "address",
          "name": "_sender",
          "type": "address"
        },
        {
          "internalType": "uint256",
          "name": "_amount",
          "type": "uint256"
        }
      ],
      "name": "burnFrom",
      "outputs": [
        {
          "internalType": "bool",
          "name": "",
          "type": "bool"
        }
      ],
      "stateMutability": "nonpayable",
      "type": "function"
    },
    {
      "inputs": [],
      "name": "clrPool",
      "outputs": [
        {
          "internalType": "address",
          "name": "",
          "type": "address"
        }
      ],
      "stateMutability": "view",
      "type": "function"
    },
    {
      "inputs": [],
      "name": "decimals",
      "outputs": [
        {
          "internalType": "uint8",
          "name": "",
          "type": "uint8"
        }
      ],
      "stateMutability": "view",
      "type": "function"
    },
    {
      "inputs": [
        {
          "internalType": "address",
          "name": "spender",
          "type": "address"
        },
        {
          "internalType": "uint256",
          "name": "subtractedValue",
          "type": "uint256"
        }
      ],
      "name": "decreaseAllowance",
      "outputs": [
        {
          "internalType": "bool",
          "name": "",
          "type": "bool"
        }
      ],
      "stateMutability": "nonpayable",
      "type": "function"
    },
    {
      "inputs": [
        {
          "internalType": "address",
          "name": "spender",
          "type": "address"
        },
        {
          "internalType": "uint256",
          "name": "addedValue",
          "type": "uint256"
        }
      ],
      "name": "increaseAllowance",
      "outputs": [
        {
          "internalType": "bool",
          "name": "",
          "type": "bool"
        }
      ],
      "stateMutability": "nonpayable",
      "type": "function"
    },
    {
      "inputs": [
        {
          "internalType": "string",
          "name": "_name",
          "type": "string"
        },
        {
          "internalType": "string",
          "name": "_symbol",
          "type": "string"
        },
        {
          "internalType": "address",
          "name": "_clrPool",
          "type": "address"
        },
        {
          "internalType": "bool",
          "name": "_transferable",
          "type": "bool"
        }
      ],
      "name": "initialize",
      "outputs": [],
      "stateMutability": "nonpayable",
      "type": "function"
    },
    {
      "inputs": [
        {
          "internalType": "address",
          "name": "",
          "type": "address"
        }
      ],
      "name": "lastLockedTimestamp",
      "outputs": [
        {
          "internalType": "uint256",
          "name": "",
          "type": "uint256"
        }
      ],
      "stateMutability": "view",
      "type": "function"
    },
    {
      "inputs": [
        {
          "internalType": "address",
          "name": "_recipient",
          "type": "address"
        },
        {
          "internalType": "uint256",
          "name": "_amount",
          "type": "uint256"
        }
      ],
      "name": "mint",
      "outputs": [
        {
          "internalType": "bool",
          "name": "",
          "type": "bool"
        }
      ],
      "stateMutability": "nonpayable",
      "type": "function"
    },
    {
      "inputs": [],
      "name": "name",
      "outputs": [
        {
          "internalType": "string",
          "name": "",
          "type": "string"
        }
      ],
      "stateMutability": "view",
      "type": "function"
    },
    {
      "inputs": [],
      "name": "symbol",
      "outputs": [
        {
          "internalType": "string",
          "name": "",
          "type": "string"
        }
      ],
      "stateMutability": "view",
      "type": "function"
    },
    {
      "inputs": [],
      "name": "totalSupply",
      "outputs": [
        {
          "internalType": "uint256",
          "name": "",
          "type": "uint256"
        }
      ],
      "stateMutability": "view",
      "type": "function"
    },
    {
      "inputs": [
        {
          "internalType": "address",
          "name": "recipient",
          "type": "address"
        },
        {
          "internalType": "uint256",
          "name": "amount",
          "type": "uint256"
        }
      ],
      "name": "transfer",
      "outputs": [
        {
          "internalType": "bool",
          "name": "",
          "type": "bool"
        }
      ],
      "stateMutability": "nonpayable",
      "type": "function"
    },
    {
      "inputs": [
        {
          "internalType": "address",
          "name": "sender",
          "type": "address"
        },
        {
          "internalType": "address",
          "name": "recipient",
          "type": "address"
        },
        {
          "internalType": "uint256",
          "name": "amount",
          "type": "uint256"
        }
      ],
      "name": "transferFrom",
      "outputs": [
        {
          "internalType": "bool",
          "name": "",
          "type": "bool"
        }
      ],
      "stateMutability": "nonpayable",
      "type": "function"
    },
    {
      "inputs": [],
      "name": "transferable",
      "outputs": [
        {
          "internalType": "bool",
          "name": "",
          "type": "bool"
        }
      ],
      "stateMutability": "view",
      "type": "function"
    }
  ],
  "bytecode": "0x60806040523480156200001157600080fd5b50600054610100900460ff16806200002e57506200002e620000c0565b806200003d575060005460ff16155b6200007a5760405162461bcd60e51b815260040180806020018281038252602e81526020018062001780602e913960400191505060405180910390fd5b600054610100900460ff16158015620000a6576000805460ff1961ff0019909116610100171660011790555b8015620000b9576000805461ff00191690555b50620000e4565b6000620000d830620000de60201b62000b6b1760201c565b15905090565b3b151590565b61168c80620000f46000396000f3fe608060405234801561001057600080fd5b50600436106100eb5760003560e01c80635a7f3aa6116100925780635a7f3aa6146102995780635c108a43146102bd57806370a08231146103f857806379cc67901461041e57806392ff0d311461044a57806395d89b4114610452578063a457c2d71461045a578063a9059cbb14610486578063dd62ed3e146104b2576100eb565b806303005315146100f057806306fdde0314610128578063095ea7b3146101a557806318160ddd146101e557806323b872dd146101ed578063313ce56714610223578063395093511461024157806340c10f191461026d575b600080fd5b6101166004803603602081101561010657600080fd5b50356001600160a01b03166104e0565b60408051918252519081900360200190f35b6101306104f2565b6040805160208082528351818301528351919283929083019185019080838360005b8381101561016a578181015183820152602001610152565b50505050905090810190601f1680156101975780820380516001836020036101000a031916815260200191505b509250505060405180910390f35b6101d1600480360360408110156101bb57600080fd5b506001600160a01b038135169060200135610588565b604080519115158252519081900360200190f35b6101166105a5565b6101d16004803603606081101561020357600080fd5b506001600160a01b038135811691602081013590911690604001356105ab565b61022b610670565b6040805160ff9092168252519081900360200190f35b6101d16004803603604081101561025757600080fd5b506001600160a01b038135169060200135610679565b6101d16004803603604081101561028357600080fd5b506001600160a01b0381351690602001356106cc565b6102a1610792565b604080516001600160a01b039092168252519081900360200190f35b6103f6600480360360808110156102d357600080fd5b810190602081018135600160201b8111156102ed57600080fd5b8201836020820111156102ff57600080fd5b803590602001918460018302840111600160201b8311171561032057600080fd5b91908080601f0160208091040260200160405190810160405280939291908181526020018383808284376000920191909152509295949360208101935035915050600160201b81111561037257600080fd5b82018360208201111561038457600080fd5b803590602001918460018302840111600160201b831117156103a557600080fd5b91908080601f016020809104026020016040519081016040528093929190818152602001838380828437600092019190915250929550506001600160a01b03833516935050506020013515156107a1565b005b6101166004803603602081101561040e57600080fd5b50356001600160a01b03166108d8565b6101d16004803603604081101561043457600080fd5b506001600160a01b0381351690602001356108f3565b6101d16109af565b6101306109bf565b6101d16004803603604081101561047057600080fd5b506001600160a01b038135169060200135610a20565b6101d16004803603604081101561049c57600080fd5b506001600160a01b038135169060200135610a88565b610116600480360360408110156104c857600080fd5b506001600160a01b0381358116916020013516610b40565b60656020526000908152604090205481565b60368054604080516020601f600260001961010060018816150201909516949094049384018190048102820181019092528281526060939092909183018282801561057e5780601f106105535761010080835404028352916020019161057e565b820191906000526020600020905b81548152906001019060200180831161056157829003601f168201915b5050505050905090565b600061059c610595610b71565b8484610b75565b50600192915050565b60355490565b606654600090600160a01b900460ff166105f65760405162461bcd60e51b81526004018080602001828103825260228152602001806115f06022913960400191505060405180910390fd5b6001600160a01b0384166000908152606560205260409020548490421015610653576040805162461bcd60e51b815260206004820152601d6024820152600080516020611637833981519152604482015290519081900360640190fd5b61065c85610c61565b610667858585610c80565b95945050505050565b60385460ff1690565b600061059c610686610b71565b846106c78560346000610697610b71565b6001600160a01b03908116825260208083019390935260409182016000908120918c168152925290205490610cf8565b610b75565b6066546000906001600160a01b031633146107185760405162461bcd60e51b815260040180806020018281038252602e81526020018061149a602e913960400191505060405180910390fd5b6001600160a01b0383166000908152606560205260409020548390421015610775576040805162461bcd60e51b815260206004820152601d6024820152600080516020611637833981519152604482015290519081900360640190fd5b61077e84610c61565b6107888484610d59565b5060019392505050565b6066546001600160a01b031681565b600054610100900460ff16806107ba57506107ba610e39565b806107c8575060005460ff16155b6108035760405162461bcd60e51b815260040180806020018281038252602e815260200180611510602e913960400191505060405180910390fd5b600054610100900460ff1615801561082e576000805460ff1961ff0019909116610100171660011790555b6001600160a01b038316610889576040805162461bcd60e51b815260206004820152601e60248201527f434c5220506f6f6c2063616e6e6f742062652030783020616464726573730000604482015290519081900360640190fd5b606680546001600160a01b0319166001600160a01b0385161760ff60a01b1916600160a01b841515021790556108bf8585610e4a565b80156108d1576000805461ff00191690555b5050505050565b6001600160a01b031660009081526033602052604090205490565b6066546000906001600160a01b0316331461093f5760405162461bcd60e51b815260040180806020018281038252602e81526020018061149a602e913960400191505060405180910390fd5b6001600160a01b038316600090815260656020526040902054839042101561099c576040805162461bcd60e51b815260206004820152601d6024820152600080516020611637833981519152604482015290519081900360640190fd5b6109a584610c61565b6107888484610f00565b606654600160a01b900460ff1681565b60378054604080516020601f600260001961010060018816150201909516949094049384018190048102820181019092528281526060939092909183018282801561057e5780601f106105535761010080835404028352916020019161057e565b600061059c610a2d610b71565b846106c7856040518060600160405280602581526020016116126025913960346000610a57610b71565b6001600160a01b03908116825260208083019390935260409182016000908120918d16815292529020549190610fea565b606654600090600160a01b900460ff16610ad35760405162461bcd60e51b81526004018080602001828103825260228152602001806115f06022913960400191505060405180910390fd5b33600081815260656020526040902054421015610b25576040805162461bcd60e51b815260206004820152601d6024820152600080516020611637833981519152604482015290519081900360640190fd5b610b2e33610c61565b610b388484611081565b949350505050565b6001600160a01b03918216600090815260346020908152604080832093909416825291909152205490565b3b151590565b3390565b6001600160a01b038316610bba5760405162461bcd60e51b81526004018080602001828103825260248152602001806115cc6024913960400191505060405180910390fd5b6001600160a01b038216610bff5760405162461bcd60e51b81526004018080602001828103825260228152602001806114c86022913960400191505060405180910390fd5b6001600160a01b03808416600081815260346020908152604080832094871680845294825291829020859055815185815291517f8c5be1e5ebec7d5bd14f71427d1e84f3dd0314c0f7b2291e5b200ac8c7c3b9259281900390910190a3505050565b6001600160a01b0316600090815260656020526040902042600a019055565b6000610c8d848484611091565b61078884610c99610b71565b6106c78560405180606001604052806028815260200161153e602891396001600160a01b038a16600090815260346020526040812090610cd7610b71565b6001600160a01b031681526020810191909152604001600020549190610fea565b600082820183811015610d52576040805162461bcd60e51b815260206004820152601b60248201527f536166654d6174683a206164646974696f6e206f766572666c6f770000000000604482015290519081900360640190fd5b9392505050565b6001600160a01b038216610db4576040805162461bcd60e51b815260206004820152601f60248201527f45524332303a206d696e7420746f20746865207a65726f206164647265737300604482015290519081900360640190fd5b610dc060008383610efb565b603554610dcd9082610cf8565b6035556001600160a01b038216600090815260336020526040902054610df39082610cf8565b6001600160a01b03831660008181526033602090815260408083209490945583518581529351929391926000805160206115668339815191529281900390910190a35050565b6000610e4430610b6b565b15905090565b600054610100900460ff1680610e635750610e63610e39565b80610e71575060005460ff16155b610eac5760405162461bcd60e51b815260040180806020018281038252602e815260200180611510602e913960400191505060405180910390fd5b600054610100900460ff16158015610ed7576000805460ff1961ff0019909116610100171660011790555b610edf6111dc565b610ee9838361127e565b8015610efb576000805461ff00191690555b505050565b6001600160a01b038216610f455760405162461bcd60e51b81526004018080602001828103825260218152602001806115866021913960400191505060405180910390fd5b610f5182600083610efb565b610f8e81604051806060016040528060228152602001611478602291396001600160a01b0385166000908152603360205260409020549190610fea565b6001600160a01b038316600090815260336020526040902055603554610fb49082611356565b6035556040805182815290516000916001600160a01b038516916000805160206115668339815191529181900360200190a35050565b600081848411156110795760405162461bcd60e51b81526004018080602001828103825283818151815260200191508051906020019080838360005b8381101561103e578181015183820152602001611026565b50505050905090810190601f16801561106b5780820380516001836020036101000a031916815260200191505b509250505060405180910390fd5b505050900390565b600061059c61108e610b71565b84845b6001600160a01b0383166110d65760405162461bcd60e51b81526004018080602001828103825260258152602001806115a76025913960400191505060405180910390fd5b6001600160a01b03821661111b5760405162461bcd60e51b81526004018080602001828103825260238152602001806114556023913960400191505060405180910390fd5b611126838383610efb565b611163816040518060600160405280602681526020016114ea602691396001600160a01b0386166000908152603360205260409020549190610fea565b6001600160a01b0380851660009081526033602052604080822093909355908416815220546111929082610cf8565b6001600160a01b03808416600081815260336020908152604091829020949094558051858152905191939287169260008051602061156683398151915292918290030190a3505050565b600054610100900460ff16806111f557506111f5610e39565b80611203575060005460ff16155b61123e5760405162461bcd60e51b815260040180806020018281038252602e815260200180611510602e913960400191505060405180910390fd5b600054610100900460ff16158015611269576000805460ff1961ff0019909116610100171660011790555b801561127b576000805461ff00191690555b50565b600054610100900460ff16806112975750611297610e39565b806112a5575060005460ff16155b6112e05760405162461bcd60e51b815260040180806020018281038252602e815260200180611510602e913960400191505060405180910390fd5b600054610100900460ff1615801561130b576000805460ff1961ff0019909116610100171660011790555b825161131e9060369060208601906113b3565b5081516113329060379060208501906113b3565b506038805460ff191660121790558015610efb576000805461ff0019169055505050565b6000828211156113ad576040805162461bcd60e51b815260206004820152601e60248201527f536166654d6174683a207375627472616374696f6e206f766572666c6f770000604482015290519081900360640190fd5b50900390565b828054600181600116156101000203166002900490600052602060002090601f0160209004810192826113e9576000855561142f565b82601f1061140257805160ff191683800117855561142f565b8280016001018555821561142f579182015b8281111561142f578251825591602001919060010190611414565b5061143b92915061143f565b5090565b5b8082111561143b576000815560010161144056fe45524332303a207472616e7366657220746f20746865207a65726f206164647265737345524332303a206275726e20616d6f756e7420657863656564732062616c616e63654f6e6c7920434c5220506f6f6c20696e7374616e6365206d617920706572666f726d207468697320616374696f6e45524332303a20617070726f766520746f20746865207a65726f206164647265737345524332303a207472616e7366657220616d6f756e7420657863656564732062616c616e6365496e697469616c697a61626c653a20636f6e747261637420697320616c726561647920696e697469616c697a656445524332303a207472616e7366657220616d6f756e74206578636565647320616c6c6f77616e6365ddf252ad1be2c89b69c2b068fc378daa952ba7f163c4a11628f55a4df523b3ef45524332303a206275726e2066726f6d20746865207a65726f206164647265737345524332303a207472616e736665722066726f6d20746865207a65726f206164647265737345524332303a20617070726f76652066726f6d20746865207a65726f20616464726573735374616b656420546f6b656e7320617265206e6f6e2d7472616e7366657261626c6545524332303a2064656372656173656420616c6c6f77616e63652062656c6f77207a65726f416464726573732069732074656d706f726172696c79206c6f636b6564000000a264697066735822122068a2361a988afa6baaef7a954ec819956dd1549840879307e782984e08423d1864736f6c63430007060033496e697469616c697a61626c653a20636f6e747261637420697320616c726561647920696e697469616c697a6564",
  "linkReferences": {},
  "deployedLinkReferences": {}
}