{
  "_format": "hh-sol-artifact-1",
  "contractName": "ProxyAdmin",
  "sourceName": "contracts/proxies/ProxyAdmin.sol",
  "abi": [
    {
      "anonymous": false,
      "inputs": [
        {
          "indexed": true,
          "internalType": "address",
          "name": "previousOwner",
          "type": "address"
        },
        {
          "indexed": true,
          "internalType": "address",
          "name": "newOwner",
          "type": "address"
        }
      ],
      "name": "OwnershipTransferred",
      "type": "event"
    },
    {
      "inputs": [
        {
          "internalType": "address",
          "name": "proxy",
          "type": "address"
        },
        {
          "internalType": "address",
          "name": "admin",
          "type": "address"
        }
      ],
      "name": "addProxyAdmin",
      "outputs": [],
      "stateMutability": "nonpayable",
      "type": "function"
    },
    {
      "inputs": [
        {
          "internalType": "contract TransparentUpgradeableProxy",
          "name": "proxy",
          "type": "address"
        }
      ],
      "name": "getProxyAdmin",
      "outputs": [
        {
          "internalType": "address",
          "name": "",
          "type": "address"
        }
      ],
      "stateMutability": "view",
      "type": "function"
    },
    {
      "inputs": [
        {
          "internalType": "contract TransparentUpgradeableProxy",
          "name": "proxy",
          "type": "address"
        }
      ],
      "name": "getProxyImplementation",
      "outputs": [
        {
          "internalType": "address",
          "name": "",
          "type": "address"
        }
      ],
      "stateMutability": "view",
      "type": "function"
    },
    {
      "inputs": [],
      "name": "owner",
      "outputs": [
        {
          "internalType": "address",
          "name": "",
          "type": "address"
        }
      ],
      "stateMutability": "view",
      "type": "function"
    },
    {
      "inputs": [],
      "name": "renounceOwnership",
      "outputs": [],
      "stateMutability": "nonpayable",
      "type": "function"
    },
    {
      "inputs": [
        {
          "internalType": "address",
          "name": "newOwner",
          "type": "address"
        }
      ],
      "name": "transferOwnership",
      "outputs": [],
      "stateMutability": "nonpayable",
      "type": "function"
    },
    {
      "inputs": [
        {
          "internalType": "address",
          "name": "proxy",
          "type": "address"
        },
        {
          "internalType": "address",
          "name": "newAdmin",
          "type": "address"
        }
      ],
      "name": "transferProxyOwnership",
      "outputs": [],
      "stateMutability": "nonpayable",
      "type": "function"
    },
    {
      "inputs": [
        {
          "internalType": "address payable",
          "name": "proxy",
          "type": "address"
        },
        {
          "internalType": "address",
          "name": "implementation",
          "type": "address"
        }
      ],
      "name": "upgrade",
      "outputs": [],
      "stateMutability": "nonpayable",
      "type": "function"
    },
    {
      "inputs": [
        {
          "internalType": "address payable",
          "name": "proxy",
          "type": "address"
        },
        {
          "internalType": "address",
          "name": "implementation",
          "type": "address"
        },
        {
          "internalType": "bytes",
          "name": "data",
          "type": "bytes"
        }
      ],
      "name": "upgradeAndCall",
      "outputs": [],
      "stateMutability": "nonpayable",
      "type": "function"
    }
  ],
  "bytecode": "0x608060405234801561001057600080fd5b50600061001b61006a565b600080546001600160a01b0319166001600160a01b0383169081178255604051929350917f8be0079c531659141344cd1fd0a4f28419497f9722a3daafe3b4186f6b6457e0908290a35061006e565b3390565b6108e08061007d6000396000f3fe608060405234801561001057600080fd5b50600436106100825760003560e01c8062361d5514610087578063204e1c7a146100b75780633de30b11146100f9578063715018a6146101275780638da5cb5b1461012f5780639623609d1461013757806399a88ec4146101c0578063f2fde38b146101ee578063f3b7dead14610214575b600080fd5b6100b56004803603604081101561009d57600080fd5b506001600160a01b038135811691602001351661023a565b005b6100dd600480360360208110156100cd57600080fd5b50356001600160a01b0316610334565b604080516001600160a01b039092168252519081900360200190f35b6100b56004803603604081101561010f57600080fd5b506001600160a01b03813581169160200135166103c6565b6100b5610456565b6100dd610502565b6100b56004803603606081101561014d57600080fd5b6001600160a01b03823581169260208101359091169181019060608101604082013564010000000081111561018157600080fd5b82018360208201111561019357600080fd5b803590602001918460018302840111640100000000831117156101b557600080fd5b509092509050610511565b6100b5600480360360408110156101d657600080fd5b506001600160a01b0381358116916020013516610623565b6100b56004803603602081101561020457600080fd5b50356001600160a01b03166106ff565b6100dd6004803603602081101561022a57600080fd5b50356001600160a01b0316610801565b6001600160a01b03808316600090815260016020526040902054839133911681146102a9576040805162461bcd60e51b815260206004820152601a60248201527955736572206973206e6f742061646d696e206f662070726f787960301b604482015290519081900360640190fd5b6001600160a01b038316610304576040805162461bcd60e51b815260206004820181905260248201527f41646d696e2063616e6e6f7420626520746865207a65726f2061646472657373604482015290519081900360640190fd5b50506001600160a01b03918216600090815260016020526040902080546001600160a01b03191691909216179055565b6000806000836001600160a01b03166040518080635c60da1b60e01b8152506004019050600060405180830381855afa9150503d8060008114610393576040519150601f19603f3d011682016040523d82523d6000602084013e610398565b606091505b5091509150816103a757600080fd5b8080602001905160208110156103bc57600080fd5b5051949350505050565b6103ce610860565b6001600160a01b03166103df610502565b6001600160a01b031614610428576040805162461bcd60e51b8152602060048201819052602482015260008051602061088b833981519152604482015290519081900360640190fd5b6001600160a01b03918216600090815260016020526040902080546001600160a01b03191691909216179055565b61045e610860565b6001600160a01b031661046f610502565b6001600160a01b0316146104b8576040805162461bcd60e51b8152602060048201819052602482015260008051602061088b833981519152604482015290519081900360640190fd5b600080546040516001600160a01b03909116907f8be0079c531659141344cd1fd0a4f28419497f9722a3daafe3b4186f6b6457e0908390a3600080546001600160a01b0319169055565b6000546001600160a01b031690565b6001600160a01b0380851660009081526001602052604090205485913391168114610580576040805162461bcd60e51b815260206004820152601a60248201527955736572206973206e6f742061646d696e206f662070726f787960301b604482015290519081900360640190fd5b856001600160a01b0316634f1ef2868686866040518463ffffffff1660e01b815260040180846001600160a01b03168152602001806020018281038252848482818152602001925080828437600081840152601f19601f820116905080830192505050945050505050600060405180830381600087803b15801561060357600080fd5b505af1158015610617573d6000803e3d6000fd5b50505050505050505050565b6001600160a01b0380831660009081526001602052604090205483913391168114610692576040805162461bcd60e51b815260206004820152601a60248201527955736572206973206e6f742061646d696e206f662070726f787960301b604482015290519081900360640190fd5b836001600160a01b0316633659cfe6846040518263ffffffff1660e01b815260040180826001600160a01b03168152602001915050600060405180830381600087803b1580156106e157600080fd5b505af11580156106f5573d6000803e3d6000fd5b5050505050505050565b610707610860565b6001600160a01b0316610718610502565b6001600160a01b031614610761576040805162461bcd60e51b8152602060048201819052602482015260008051602061088b833981519152604482015290519081900360640190fd5b6001600160a01b0381166107a65760405162461bcd60e51b81526004018080602001828103825260268152602001806108656026913960400191505060405180910390fd5b600080546040516001600160a01b03808516939216917f8be0079c531659141344cd1fd0a4f28419497f9722a3daafe3b4186f6b6457e091a3600080546001600160a01b0319166001600160a01b0392909216919091179055565b6000806000836001600160a01b031660405180806303e1469160e61b8152506004019050600060405180830381855afa9150503d8060008114610393576040519150601f19603f3d011682016040523d82523d6000602084013e610398565b339056fe4f776e61626c653a206e6577206f776e657220697320746865207a65726f20616464726573734f776e61626c653a2063616c6c6572206973206e6f7420746865206f776e6572a2646970667358221220e75a0c8f53c1b2f9fb8e7d8d566c2f2b4923555d2e3da9e7ba31bd7972376b2664736f6c63430007060033",
  "linkReferences": {},
  "deployedLinkReferences": {}
}